:020000040800F2
:1000000078070020D5010008790C0008F9080008DD
:10001000750C00087D04000847150008000000006A
:100020000000000000000000000000005D1000085B
:10003000F104000800000000191000087111000808
:10004000EF010008EF010008EF010008EF010008D0
:10005000EF010008EF010008F5040008EF010008B7
:10006000EF010008EF010008EF010008EF010008B0
:10007000EF010008EF010008EF010008EF010008A0
:10008000EF010008EF010008EF010008EF01000890
:10009000EF010008EF010008EF010008610500080A
:1000A000EF010008EF010008EF010008EF01000870
:1000B0006D120008EF010008EF010008EF010008D1
:1000C000EF010008EF010008EF010008EF01000850
:1000D000EF01000861140008EF010008EF010008BB
:1000E00031050008EF010008EF010008EF010008EA
:1000F000EF010008EF010008EF010008EF01000820
:10010000EF010008EF010008EF010008EF0100080F
:10011000EF010008EF010008EF010008EF010008FF
:10012000EF010008EF010008EF010008EF010008EF
:1001300000F002F800F03FF80AA090E8000C8244BA
:100140008344AAF10107DA4501D100F034F8AFF297
:10015000090EBAE80F0013F0010F18BFFB1A43F0A5
:10016000010318473420000054200000103A24BF37
:1001700078C878C1FAD8520724BF30C830C144BF0C
:1001800004680C607047000000230024002500264E
:10019000103A28BF78C1FBD8520728BF30C148BFEA
:1001A0000B607047642900F07F80002070471FB506
:1001B0001FBD10B510BD00F02EF91146FFF7F7FF77
:1001C00001F0F5FA00F04CF903B4FFF7F2FF03BCBD
:1001D00001F0ECF90948804709480047FEE7FEE7CF
:1001E000FEE7FEE7FEE7FEE7FEE7FEE7FEE7FEE7E7
:1001F00004480549054A064B704700007511000880
:1002000031010008780100207807002078030020E1
:1002100078030020704700000FB41CB5074B06AAF6
:100220007B4469460090059800F0DDF8002069469F
:1002300000F0ECF81CBC5DF814FB0000E9010000C4
:100240002DE9F0410E460446002020622046E16878
:10025000884730B3252805D0D4E901219047206A8A
:10026000401CF2E7E168204600278847050018D0C7
:10027000A5F14100192802D820354FF40067324615
:10028000294620462760FFF78DFF40B1012804D0A2
:10029000F61D26F007060836D8E7361DD6E72846AD
:1002A000DAE7206ABDE8F0812DE9F0410646002436
:1002B00010687529314616A510D0AFF300800028CC
:1002C00002DA404213A507E031688A0701D512A57A
:1002D00002E0490704D511A5012401E0AFF3008035
:1002E00000210A2206F1240709E0B0FBF2FCB0FB72
:1002F000F2F302FB1C00303078541846491C0028E9
:10030000F3D123462A463046BDE8F04100F00CB850
:10031000000000002D0000002B0000002000000065
:1003200070477047704770472DE9F0470D46994672
:100330009246044600F124080168880604D5E06965
:1003400021F01001216000E00120A84201DD471BDF
:1003500000E00027A1697A1902EB0900081AA061E0
:100360002078C00602D42046AFF30080002608E0C3
:10037000D4E901211AF806009047206A401C761C37
:1003800020624E45F4DB2078C0060AD52046AFF344
:10039000008006E0D4E9012130209047206A401C0B
:1003A0002062381EA7F10107F4DC07E0D4E901213F
:1003B00018F805009047206A401C2062281EA5F10D
:1003C0000105F3DC2046AFF300802078000602D55B
:1003D0000220BDE8F0870120FBE7000001694A1C0C
:1003E00002610878704700B58FB0CDE90131002176
:1003F000059105497944CDE9031011466846FFF798
:100400001FFF0FB000BD0000E5FFFFFF0A6802F804
:10041000010B0A607047754600F02CF8AE460500E7
:100420006946534620F00700854618B020B5FFF70F
:10043000DFFEBDE820404FF000064FF000074FF010
:1004400000084FF0000B21F00701AC46ACE8C009F2
:10045000ACE8C009ACE8C009ACE8C0098D467047FB
:1004600010B50446AFF300802046BDE81040FFF70A
:10047000ABBE0000004870471401002000BFFEE73B
:1004800010B50446082C2FD2DFE804F02E040A1021
:10049000161C22284FF49671144800F08CFF23E0BC
:1004A0004FF49671114800F086FF1DE04FF49671ED
:1004B0000E4800F080FF17E04FF496710B4800F0F3
:1004C0007AFF11E04FF49671084800F074FF0BE0DA
:1004D0004FF48E71054800F06EFF05E04FF48E7109
:1004E000024800F068FF00BF00BF10BD002C0140B3
:1004F0007047000010B50A2001F07EF8012109487C
:1005000000F0EFF9012809D10748008814300649A6
:10051000088008460188054800F04DFF012000F0E2
:10052000D1F810BD0008014020000020002C01403F
:1005300010B50A2001F060F84FF40041064800F0C1
:10054000D0F920B905480068401C044908604FF400
:10055000004000F0B7F810BD00080140280000205E
:1005600010B5402000F0B4F8002864D0402000F01E
:10057000A9F840214E4800F0B4F950B94D48006840
:10058000032806D100204C490860FE214B4800F0AA
:1005900012FF4021464800F0A4F958B945480068C8
:1005A000012807D10020444908604FF49371434863
:1005B00000F001FF40213E4800F093F958B93D4852
:1005C0000068022807D100203B49086040F2091169
:1005D0003A4800F0F0FE4021354800F082F950B969
:1005E00034480068042806D1002033490860F5210A
:1005F000324800F0E0FE40212D4800F072F950B979
:100600002C480068052806D100202B490860F021FD
:100610002A4800F0D0FE4021254800F062F950B988
:1006200024480068062806D1002023490860EE21EE
:10063000224800F0C0FE4FF4007000F049F818B3F3
:100640004FF4007000F03EF80A2000F0D5FF4FF4A0
:100650000071174800F045F9B0B91648006807283E
:1006600012D1002014490860E621144800F0A3FECE
:100670000121134800F035F930B901200E49086016
:10068000E6210E4800F097FE202000F021F870B11E
:10069000202000F017F80A2000F0AEFF20210448C7
:1006A00000F01FF918B903480068FFF7E9FE10BD14
:1006B000001001402800002088812242002C0140C7
:1006C000000C01400149086070470000140401401B
:1006D000014600200022074B1B6803EA0102054B7C
:1006E00014331B680B4013B10AB1012000E0002055
:1006F0007047000000040140002123498279002A4C
:100700003AD00A46126803689A430B461A600A1DDB
:10071000126803689A430B1D1A60027911440A6833
:1007200003681A430A60184A0832126803689A4339
:10073000154B08331A601A1D126803689A43124B4E
:100740000C331A604279102A0ED11A1F12680368FE
:100750001A430D4B08331A601A1D126803681A43B6
:10076000094B0C331A600DE00749427911440A68BD
:1007700003681A430A6005E0027911440A680368B5
:100780009A430A60704700000004014030B500221F
:100790008B071C0F0F2303FA04F20B4B8C1053F83A
:1007A00024309343084C8D1044F8253023468C1098
:1007B00053F824308C07240F00FA04F42343024C2E
:1007C0008D1044F8253030BD080001402DE9F0417E
:1007D000024600250026002000230024002791F86F
:1007E00003C00CF00F0591F803C00CF0100CBCF125
:1007F000000F03D091F802C04CEA050591F800C043
:10080000BCF1000F31D0146800202BE04FF0010C38
:100810000CFA00F3B1F800C00CEA03069E4220D1A6
:1008200083004FF00F0C0CFA03F7BC4305FA03FCEE
:100830004CEA040491F803C0BCF1280F06D14FF034
:10084000010C0CFA00FCC2F814C00AE091F803C0D5
:10085000BCF1480F05D14FF0010C0CFA00FCC2F8B6
:1008600010C0401C0828D1D31460B1F800C0BCF1FE
:10087000FF0F34DD546800202EE000F1080C4FF02B
:10088000010808FA0CF3B1F800C00CEA03069E4216
:1008900021D183004FF00F0C0CFA03F7BC4305FA8B
:1008A00003FC4CEA040491F803C0BCF1280F05D105
:1008B00000F1080C08FA0CF8C2F8148091F803C093
:1008C000BCF1480F07D100F1080C4FF0010808FAFD
:1008D0000CF8C2F81080401C0828CED35460BDE844
:1008E000F0810246002093680B400BB1012000E02C
:1008F000002070470161704700BFFEE708B5012185
:10090000142000F09BFB4FF40040ADF8000048209D
:100910008DF8030069460C48FFF758FF2020ADF81A
:10092000000048208DF8030069460848FFF74EFF95
:100930000120ADF8000028208DF803006946024828
:10094000FFF744FF08BD000000080140001001400F
:1009500010B500221146104600F0BCFA0122002119
:10096000102000F0B7FA02220021202000F0B2FA95
:1009700003220021302000F0ADFA9348028893A1B1
:100980009348FFF749FC934890A102689248FFF70B
:1009900043FC92A20421002000F0C6FA8C4A0421F4
:1009A000372000F0C1FA90A20621002000F0BCFA26
:1009B000894A0621322000F0B7FA04218C48FFF75B
:1009C00090FF50B98BA20221002000F0ADFA41F255
:1009D000883000F011FE00F093F908218448FFF7F9
:1009E00080FF50B984A20221002000F09DFA41F25C
:1009F000883000F001FE00F083F910217C48FFF7F9
:100A000070FF50B97EA20221002000F08DFA41F261
:100A1000883000F0F1FD00F073F920217448FFF7F1
:100A200060FF50B977A20221002000F07DFA41F268
:100A3000883000F0E1FD00F063F94FF480516C481C
:100A4000FFF74FFF50B971A20221002000F06CFAAD
:100A500041F2883000F0D0FD00F052F94FF400511F
:100A60006348FFF73EFF50B96AA20221002000F060
:100A70005BFA41F2883000F0BFFD00F041F94021FF
:100A80006648FFF72EFF50B965A20221002000F052
:100A90004BFA41F2883000F0AFFD00F031F98021CF
:100AA0005E48FFF71EFF50B95FA20221002000F050
:100AB0003BFA41F2883000F09FFD00F021F94FF43D
:100AC00080715648FFF70DFF50B959A2022100204E
:100AD00000F02AFA41F2883000F08EFD00F010F9A3
:100AE0004FF400714D48FFF7FCFE50B952A20221AD
:100AF000002000F019FA41F2883000F07DFD00F08E
:100B0000FFF801214E48FFF7ECFE50B94DA202213B
:100B1000002000F009FA41F2883000F06DFD00F08D
:100B2000EFF802214648FFF7DCFE50B947A2022148
:100B3000002000F0F9F941F2883000F05DFD00F08E
:100B4000DFF84FF480613E48FFF7CBFE50B941A279
:100B50000221002000F0E8F941F2883000F04CFD5D
:100B600000F0CEF808213648FFF7BBFE50B93BA293
:100B70000221002000F0D8F941F2883000F03CFD5D
:100B800000F0BEF810212E48FFF7ABFE50B935A299
:100B90000221002000F0C8F941F2883000F02CFD5D
:100BA00000F0AEF84FF400612548FFF79AFE50B907
:100BB0002EA20221002000F0B7F941F2883000F0A7
:100BC0001BFD00F09DF810BD2000002025640000F2
:100BD00000010020280000200A01002070776D6CC1
:100BE0006576656C00000000706F696E743A0000F5
:100BF0000008014030636D00322E35636D00000047
:100C000035636D00372E35636D0000003130636D44
:100C10000000000031322E35636D000000100140ED
:100C20003135636D0000000031372E35636D0000F3
:100C30003230636D0000000032322E35636D0000EB
:100C4000000C01403235636D0000000032372E3554
:100C5000636D00003330636D0000000033322E35C9
:100C6000636D00003335636D0000000033372E35AF
:100C7000636D000000BFFEE77047000070B5002103
:100C800000230F22C47804B3154C246804F4E064F4
:100C9000C4F5E064210AC1F10403CA40447804FAAF
:100CA00003F184781440214309010E4C0678A155C4
:100CB000047804F01F050124AC4005786D11AD00E7
:100CC00005F1E025C5F8004109E0047804F01F05AE
:100CD0000124AC40044D0678761145F8264070BDDD
:100CE0000CED00E000E400E080E100E00249014397
:100CF000024A1160704700000000FA050CED00E0A8
:100D000070B5002415E004F1B001C8B200F064F938
:100D1000012000F061F9102000F05EF9002504E0E8
:100D2000002000F069F9681CC5B2802DF8DB601C5A
:100D3000C4B2082CE7DB70BD70B50646002415E090
:100D400004F1B001C8B200F047F9012000F044F905
:100D5000102000F041F9002504E0304600F04CF985
:100D6000681CC5B2802DF8DB601CC4B2082CE7DB20
:100D700070BD00000C48806940F008000A49886195
:100D80000A48006820F07F4008490860084600686B
:100D900040F0EE40086005480C30006840F4807078
:100DA00002490C310860704700100240000C0140FD
:100DB00010B50120084908600849C1F8980100F001
:100DC00041FC002004490860012000F03BFC0020A9
:100DD0000249C1F8980110BD9C8121420080214246
:100DE00010B50020084908600849C1F89C0101209D
:100DF00000F028FC0120044908600449C1F89C0166
:100E000000F020FC10BD00009881214200802142AA
:100E100010B54FF4FA7000F0EFFBAE2000F0DCF8F4
:100E2000002000F0D9F8102000F0D6F8402000F0A3
:100E3000D3F8812000F0D0F8CF2000F0CDF8A12029
:100E400000F0CAF8C82000F0C7F8A62000F0C4F8E7
:100E5000A82000F0C1F83F2000F0BEF8D32000F039
:100E6000BBF8002000F0B8F8D52000F0B5F88020DD
:100E700000F0B2F8D92000F0AFF8F12000F0ACF8A3
:100E8000DA2000F0A9F8122000F0A6F8DB2000F02C
:100E9000A3F8402000F0A0F8202000F09DF80220E8
:100EA00000F09AF88D2000F097F8142000F094F8E4
:100EB000A42000F091F8A62000F08EF8AF2000F0FA
:100EC0008BF80020FFF738FF0021084600F070F88B
:100ED00010BD00002DE9F04180460E461746002463
:100EE0007D013146404600F063F800BF06E00D4941
:100EF000485D00F081F86D1C601CC4B2102CF6DB5C
:100F0000701CC1B2404600F053F8002406E00549C9
:100F1000485D00F071F86D1C601CC4B2102CF6DB4B
:100F2000BDE8F081C01800082DE9F04706460F46DD
:100F3000904600250024A14631E018F80900203829
:100F4000C5B2782E02DD0026781CC7B2394630467D
:100F500000F02EF8002407E004EB0511134A505C62
:100F600000F04AF8601CC4B2082CF5DB781CC1B252
:100F7000304600F01DF8002408E004EB05110831AC
:100F80000A4A505C00F038F8601CC4B2082CF4DB4C
:100F900006F10800C6B209F1010000F0FF0918F8D7
:100FA00009000028C9D1BDE8F0870000A81B00088F
:100FB00070B504460D4605F1B001C8B200F00CF85A
:100FC000102141EA141000F007F804F00F0141F07D
:100FD000010000F001F870BD10B50446FFF7E8FE0F
:100FE000782000F0B3FA002000F0B0FA204600F0BC
:100FF000ADFAFFF7F5FE10BD10B50446FFF7D8FEB9
:10100000782000F0A3FA402000F0A0FA204600F07B
:101010009DFAFFF7E5FE10BD7047000029B1064AB2
:10102000D2690243044BDA6104E0034AD269824385
:10103000014BDA61704700000010024029B1064AF6
:1010400092690243044B9A6104E0034A9269824325
:10105000014B9A617047000000100240704710B5C4
:1010600000F002F810BD00000CB5002001900090C7
:101070003348006840F480303149086000BF304890
:10108000006800F4003000900198401C0190009826
:1010900018B90198B0F5A06FF1D12948006800F4A3
:1010A000003010B10120009001E000200090009875
:1010B000012843D12348006840F01000214908600E
:1010C0000846006820F0030008600846006840F009
:1010D000020008601A48406819494860084640689C
:1010E00048600846406840F48060486008464068B0
:1010F00020F47C1048600846406840F4E8104860DE
:101100000846006840F08070086000BF0C48006826
:1011100000F000700028F9D00948406820F0030072
:10112000074948600846406840F00200486000BF38
:101130000348406800F00C000828F9D10CBD0000FD
:101140000010024000200240042808D14FF0E021A6
:10115000096941F004014FF0E022116107E04FF00E
:10116000E021096921F004014FF0E022116170478C
:101170007047000010B51348006840F001001149A5
:10118000086008464068104908400E494860084613
:1011900000680E4908400B4908600846006820F4C2
:1011A000802008600846406820F4FE0048604FF444
:1011B0001F008860FFF753FF4FF00060044908608C
:1011C00010BD0000001002400000FFF8FFFFF6FE17
:1011D00008ED00E030B589B005460C460121C80293
:1011E000FFF72CFF01210420FFF728FF4FF4807048
:1011F000ADF8200018208DF8230003208DF8220080
:1012000008A91848FFF7E2FAADF81850ADF81440F5
:101210000020ADF81A00ADF8160005A9124800F03C
:10122000CDF86020ADF804000120ADF806000020E4
:10123000ADF80A00ADF80C0001A90B4800F066F803
:101240000121094800F041F80821074800F0AAF8F8
:101250000121054800F01EF80121034800F029F89B
:1012600009B030BD00080140002C014010B501213B
:10127000880700F039F8012808D10121800700F023
:1012800015F803480068401C0149086010BD0000C3
:101290002C00002021B1028842F08002028004E08C
:1012A00002884FF67F731A4002807047CA43028259
:1012B000704721B1028842F00102028004E00288F6
:1012C0004FF6FE731A400280704731B1B0F84420E7
:1012D00042F40042A0F8442005E0B0F84420C2F3F4
:1012E0000E02A0F84420704702460020138A0B40EB
:1012F0000BB1012000E0002070471AB183890B4335
:10130000838102E083898B438381704770B5002419
:1013100000220023058C4FF6FE7635400584028CB2
:101320008388048B4FF68F752C40B51E2C400D889A
:101330002C43751E2A400D892A434D882A43144D9B
:10134000A8420BD0134DA84208D0134DA84205D097
:10135000124DA84202D0124DA84213D14FF6F77594
:101360002A404D892A434FF6FB752A408D882A432F
:101370004FF6FF652B404FF6FF552B408D892B43D1
:10138000CD892B4383800483CD888586028470BDFC
:10139000002C014000340140004001400044014065
:1013A000004801400A460021018B4FF6F7731940AF
:1013B0001143018370478186704700000022028834
:1013C0001D4B98420ED01D4B98420BD0B0F1804F70
:1013D00008D01B4B984205D01A4B984202D01A4BAA
:1013E000984204D14FF68F731A404B881A43174B1B
:1013F000984207D0164B984204D04FF6FF431A404C
:10140000CB881A4302808B8883850B8803850A4B1F
:1014100098420BD0094B984208D00E4B984205D009
:101420000D4B984202D00D4B984201D10B7A0386A6
:101430000123838270470000002C014000340140EA
:101440000004004000080040000C00400010004074
:1014500000140040004001400044014000480140A9
:1014600010B540F225511D4800F03EF810B31B485E
:1014700000F064F8C4B21A48008800F40040C8B90B
:101480001748008800F4804060B10A2C03D0002087
:101490001349088020E01248008840F400401049B9
:1014A000088019E00D2C06D10D48008840F48040DA
:1014B0000B49088010E00A480088C0F30D00094974
:1014C0000C5407480088401C0549088008460088DD
:1014D000C72801DD0020088010BD00000038014051
:1014E0001C0000203800002070B5024600240023B4
:1014F0000025002040F66A16B14200D100BFC1F3BA
:10150000421501F01F03012606FA03F3012D02D153
:101510009689334006E0022D02D1168A334001E05D
:10152000968A33400C12012606FA04F416883440D9
:1015300013B10CB1012000E0002070BD0146888885
:10154000C0F30800704700BFFEE7000070B5044616
:10155000002517E004F0800018B10120114908604F
:1015600002E000200F49086001200E49091F0860B1
:1015700000F068F800200C49C1F898016006040EDC
:10158000681CC5B2082DE5DB012006490860064944
:10159000C1F8980100F056F800200249091F0860C0
:1015A00070BD00009C81214200802142014600BFA5
:1015B0007047000010B56FF00400FFF7C5FD0A4842
:1015C00000680A49B0FBF1F0094908700846007844
:1015D00000EB4001C1EBC0104FF6FF7101EAC00003
:1015E0000449088010BD00000000002000127A00AD
:1015F00014000020160000200146114A12884A43B8
:101600004FF0E0235A6100229A611A46126942F0B3
:1016100001021A6100BF4FF0E022106900F00102E0
:101620001AB100F48032002AF5D04FF0E02212699E
:1016300022F001024FF0E0231A6100229A61704704
:10164000160000200146114A12784A434FF0E02369
:101650005A6100229A611A46126942F001021A6127
:1016600000BF4FF0E022106900F001021AB100F44F
:101670008032002AF5D04FF0E022126922F00102F8
:101680004FF0E0231A6100229A6170471400002095
:101690000EB501210846FFF7D1FCFFF72FF9052110
:1016A0000220FFF773F82020019000208DF8080039
:1016B0000C208DF8090001208DF80A0001A8FFF721
:1016C0001BF809210220FFF761F84FF40070019028
:1016D00000208DF808000C208DF8090001208DF8FD
:1016E0000A0001A8FFF708F80F210020FFF74EF8C5
:1016F0004FF40040019000208DF808000C208DF878
:10170000090001208DF80A0001A8FEF7F5FF062167
:101710000220FFF73BF84020019000208DF80800E0
:101720000C208DF8090001208DF80A0001A8FEF7B1
:10173000E3FF00210846FFF729F80120019000206F
:101740008DF8080008208DF8090001208DF80A00A6
:1017500001A8FEF7D1FF06208DF8000002208DF8C9
:1017600001008DF8020001208DF803006846FFF7A4
:1017700085FA17208DF8000002208DF80100012065
:101780008DF802008DF803006846FFF777FA2820ED
:101790008DF8000002208DF8010000208DF8020075
:1017A00001208DF803006846FFF768FA0EBD4FF47C
:1017B000A060FFF79BFAFFF7FDFEFFF79FF80021FF
:1017C00040F28330FFF706FDFFF7D4FAFFF720FB66
:1017D00000F00CF8FFF75CFF472140F2E73000F023
:1017E00045F801E0FFF7B4F8FCE7000008B5012177
:1017F0003C20FFF723FC43F23C00ADF8000004203E
:101800008DF8030069461548FEF7E0FF4FF470704D
:10181000ADF8000004208DF8030069461048FEF77B
:10182000D5FF40F61B40ADF8000004208DF8030002
:1018300069460C48FEF7CAFF0420ADF800001020EE
:101840008DF8030003208DF8020069460648FEF774
:10185000BDFF04210448FFF74DF808BD0008014012
:1018600000100140000C0140001401407FB5054606
:101870000C4601210846FFF7D1FB0020ADF80A0015
:10188000ADF80600ADF80850ADF8044001A94FF0DE
:101890008040FFF793FD1C208DF8000001208DF89B
:1018A000030000208DF8010001208DF80200684639
:1018B000FFF7E4F9012211469007FFF71EFD7FBDF7
:1018C000000000E0000000FF000000204080000059
:1018D000080403000040807F0000000000010E00AB
:1018E0000808F80808000048C8880AFE8888C00070
:1018F0008181FF81810000080CC7C2FF01030C0831
:101900000008080808E8AAAEA8E8080808000000CF
:101910000000FE02023A2A2A2A3A4282FE00000011
:101920000080F8184849EA4C48E848480800000098
:10193000C03F0000008C5525558D000000000000C0
:101940002010F80426A02123263C202020A02000DF
:101950000000FF0000838684988080988483800044
:10196000003EA2A2A2BEA2E2A2A2BEA2A23E00008D
:1019700080808080FEABABAAAAAAAAFE808080806D
:101980000000000000000000002F00000000070021
:10199000070000147F147F1400242A7F2A1200629B
:1019A0006408132300364955225000000503000047
:1019B00000001C224100000041221C000014083ECF
:1019C00008140008083E0808000000A06000000895
:1019D00008080808000060600000002010080402E9
:1019E000003E5149453E0000427F400000426151A7
:1019F0004946002141454B31001814127F10002741
:101A000045454539003C4A49493000017109050303
:101A100000364949493600064949291E0000363634
:101A20000000000056360000000814224100001497
:101A30001414141400004122140800020151090674
:101A400000324959513E007C1211127C007F4949F5
:101A50004936003E41414122007F4141221C007F26
:101A600049494941007F09090901003E4149497A34
:101A7000007F0808087F0000417F410000204041AE
:101A80003F01007F08142241007F40404040007F1A
:101A9000020C027F007F0408107F003E4141413E5E
:101AA000007F09090906003E4151215E007F0919A6
:101AB00029460046494949310001017F0101003FA3
:101AC0004040403F001F2040201F003F4038403F23
:101AD0000063140814630007087008070061514987
:101AE000454300007F41410000552A552A5500001A
:101AF00041417F0000040201020400404040404098
:101B0000000001020400002054545478007F48442F
:101B1000443800384444442000384444487F003866
:101B20005454541800087E0901020018A4A4A47C8F
:101B3000007F080404780000447D40000040808459
:101B40007D00007F102844000000417F4000007CA1
:101B500004180478007C08040478003844444438AD
:101B600000FC242424180018242418FC007C0804F9
:101B7000040800485454542000043F444020003CD2
:101B80004040207C001C2040201C003C4030403C59
:101B9000004428102844001CA0A0A07C00446454E9
:101BA0004C4414141414141400000000000000002D
:101BB0000000000000000000000000F8000000002D
:101BC000000000333000000000100C06100C06006E
:101BD000000000000000000040C07840C0784000D5
:101BE000043F04043F040400007088FC0830000037
:101BF000001820FF211E0000F008F000E01800008F
:101C000000211C031E211E0000F008887000000047
:101C10001E2123241927211010160E000000000099
:101C20000000000000000000000000E018040200B6
:101C3000000000071820400000020418E000000027
:101C40000040201807000000404080F08040400025
:101C50000202010F01020200000000F0000000007B
:101C60000101011F0101010000000000000000004F
:101C700080B07000000000000000000000000000C4
:101C8000000101010101010100000000000000004D
:101C900000303000000000000000000080601804E8
:101CA000006018060100000000E010080810E000C5
:101CB000000F102020100F00001010F8000000008E
:101CC0000020203F202000000070080808887000D5
:101CD0000030282422213000003008888848300055
:101CE0000018202020110E000000C02010F8000075
:101CF00000070424243F240000F80888880808000E
:101D00000019212020110E0000E010888818000022
:101D1000000F112020110E0000380808C8380800F4
:101D20000000003F00000000007088080888700074
:101D3000001C222121221C0000E010080810E000F5
:101D40000000312222110F00000000C0C00000007E
:101D500000000030300000000000008000000000A3
:101D6000000080600000000000008040201008009B
:101D70000001020408102000404040404040400064
:101D8000040404040404040000081020408000003F
:101D90000020100804020100007048080808F00044
:101DA0000000003036010000C030C828E810E00014
:101DB0000718272423140B000000C038E00000009F
:101DC000203C23020227382008F888888870000009
:101DD000203F202020110E00C030080808083800DD
:101DE000071820202010080008F808080810E00054
:101DF000203F202020100F0008F88888E8081000F5
:101E0000203F20202320180008F88888E8081000C8
:101E1000203F200003000000C03008080838000000
:101E200007182020221E020008F808000008F80801
:101E3000203F210101213F20000808F80808000088
:101E40000020203F2020000000000808F8080800BB
:101E5000C08080807F00000008F888C02818080033
:101E6000203F20012638200008F80800000000006C
:101E7000203F20202020300008F8F800F8F8080063
:101E8000203F003F003F200008F830C00008F8085D
:101E9000203F200007183F00E01008080810E0006D
:101EA0000F10202020100F0008F808080808F00084
:101EB000203F210101010000E01008080810E000A7
:101EC0000F18242438504F0008F88888888870003C
:101ED000203F2000030C30200070880808083800DC
:101EE0000038202121221C00180808F808081800D2
:101EF0000000203F2000000008F808000008F80853
:101F0000001F202020201F000878880000C8380803
:101F1000000007380E010000F80800F80008F8007B
:101F2000033C0700073C0300081868808068180815
:101F300020302C03032C30200838C800C838080093
:101F40000000203F2000000010080808C8380800E2
:101F50002038262120201800000000FE0202020086
:101F60000000007F40404000000C30C00000000036
:101F7000000000010638C00000020202FE0000005E
:101F8000004040407F000000000004020202040004
:101F90000000000000000000000000000000000041
:101FA0008080808080808080000202040000000029
:101FB0000000000000000000000080808080000021
:101FC0000019242222223F2008F80080800000000F
:101FD000003F112020110E000000008080800000D2
:101FE000000E112020201100000000808088F800E1
:101FF000000E112020103F20000080808080000013
:10200000001F222222221300008080F08888881876
:102010000020203F20200000000080808080800081
:10202000006B94949493600008F800808080000016
:10203000203F210000203F200080989800000000F1
:102040000020203F20200000000000809898000021
:1020500000C08080807F000008F800008080800041
:10206000203F24022D302000000808F80000000066
:102070000020203F20200000808080808080800021
:10208000203F20003F20003F8080008080800000B3
:10209000203F210000203F20000080808080000041
:1020A000001F202020201F00808000808000000072
:1020B00080FFA12020110E000000008080808000A1
:1020C000000E112020A0FF80808080008080800092
:1020D00020203F21200001000000808080808000BF
:1020E0000033242424241900008080E08080000034
:1020F0000000001F20200000808000000080800081
:10210000001F202020103F208080800000808080E1
:1021100000010E3008060100808000800080808071
:102120000F300C030C300F00008080008080800096
:102130000020312E0E3120008080800000808080C1
:1021400080818E7018060100008080808080800071
:102150000021302C2221300000000000807C02028F
:1021600000000000003F404000000000FF000000B1
:1021700000000000FF0000000002027C8000000060
:102180000040403F0000000000060101020204047C
:102190000000000000000000B8210008000000203E
:1021A000380000006C010008F02100083800002011
:1021B000400700008801000800A24A040000000057
:1021C00000000000010203040607080900000000E7
:1021D00000000000000000000000000000000000FF
:1021E00000000000000000000000000000000000EF
:0400000508000131BD
:00000001FF
