:020000040800F2
:10000000100E0020F9110008490200084B020008F8
:100010004D0200084F0200085102000800000000D5
:100020000000000000000000000000005302000873
:10003000550200080000000057020008590200089D
:1000400013120008131200081312000813120008FC
:10005000131200081312000813120008A70A000860
:10006000AD0A0008131200082171000813120008DD
:1000700013120008131200081312000813120008CC
:1000800013120008131200081312000813120008BC
:1000900013120008131200081312000813120008AC
:1000A000131200081312000813120008131200089C
:1000B0000105000813120008317A00081312000825
:1000C000131200081312000813120008131200087C
:1000D00013120008911100081312000813120008EF
:1000E00013120008131200081312000800F002F89F
:1000F00000F06EF80AA090E8000C82448344AAF154
:100100000107DA4501D100F063F8AFF2090EBAE851
:100110000F0013F0010F18BFFB1A43F0010318473B
:10012000FC9600001C9700000A444FF0000C10F8E9
:10013000013B13F0070408BF10F8014B1D1108BF65
:1001400010F8015B641E05D010F8016B641E01F805
:10015000016BF9D113F0080F1EBF10F8014BAD1C55
:100160000C1B09D16D1E58BF01F801CBFAD505E073
:1001700014F8016B01F8016B6D1EF9D59142D6D3CD
:10018000704700000023002400250026103A28BFF5
:1001900078C1FBD8520728BF30C148BF0B607047F9
:1001A000692908F05781642908F05481752908F0FD
:1001B0005181782908F08A81632908F0E083732946
:1001C00008F0E583002070471FB51FBD10B510BDB6
:1001D00008F0F8FB1146FFF7F7FF00F009F808F008
:1001E00016FC03B4FFF7F2FF03BC00F07BFF000036
:1001F0004FF4A06001F042FC00F028FF4FF4E13022
:1002000000F07AFF0E4841684820884700F016FD4C
:1002100000F0B0FD00F0FEFE00F0A0FC00F0CAF817
:10022000084806F0C9FA0028FAD1002140F28330CC
:1002300000F046FC41F61F41C72000F0D2FCFEE76B
:10024000A00300205C0500207047FEE7FEE7FEE704
:10025000FEE7704770477047704700000CB50022FA
:100260004C4800920192016841F4803101604FF4E2
:10027000A063016801F4003101910099491C0091CB
:10028000019911B900999942F3D10168890333D5D5
:100290000121019140490A6842F010020A600A688F
:1002A00022F003020A600A6842F002020A60416812
:1002B000416041684160416841F48061416041684A
:1002C00021F47C114160416841F4E811416001680A
:1002D00041F08071016001688901FCD5416821F01D
:1002E00003014160416841F0020141604168C1F38E
:1002F00081010229FAD10CBD01920CBD254810B52F
:10030000016841F0010101604168244A11404160E7
:100310000168234A11400160016821F480210160D5
:10032000416821F4FE0141604FF41F018160FFF735
:1003300095FF1C494FF00060086010BD154A10B5CC
:100340005068194B10F00C01184803D0042901D053
:10035000082901D0036012E05168536801F470115C
:100360004FF0020413F4803F04EB914102D0536834
:100370009B0301D50E4B00E00B4B594301605168C4
:100380000A4AC1F30311121D515C0268CA4002609F
:1003900010BD000000100240002002400000FFF8E5
:1003A000FFFFF6FE08ED00E000127A0000000020DA
:1003B00000093D0038B50121082001F07CF9012138
:1003C000364801F01BF84020ADF80000344D4824B9
:1003D0008DF803406946284600F085FF8020ADF87F
:1003E00000008DF803406946284600F07CFFA81500
:1003F000ADF800008DF803406946284600F073FF11
:1004000038BD2DE9F0410126264C254D370208B1B3
:10041000267001E0207870B14021284600F0B9FF35
:1004200080B18021284600F0B4FF58B139462846F3
:1004300000F0AFFF30B14021284600F0AAFF0128AC
:100440001CD028E00A2000F02FFE00202070402160
:10045000284600F09EFF50B18021284600F099FF09
:1004600040B13946284600F094FF28B113E001203E
:10047000BDE8F0810220FBE70320F9E78021284650
:1004800000F087FF012806D13946284600F081FF99
:10049000012800D126700020EAE7000000023000A9
:1004A000000C01401400002070B5FE4CFD48241FD4
:1004B00000886188081A08F041FB0546E06029467B
:1004C000E06908F067FB06462846216908F02EFC23
:1004D000A16908F05FFB616908F0AEFA314608F0E7
:1004E000ABFAF1496061884200DD6161606908F042
:1004F00005FB81B2ED4802F0CEF8E068206170BDE6
:1005000010B501218C07204602F0E3F801280FD135
:100510000121204602F0F3F806F0F3F9FFF7C4FFDB
:100520000223BDE81040E24A0321184600F0A6BCB1
:1005300010BDE04810B5008808F018FBBDE8104079
:10054000DD4908F0F3BBDD490880081F0188490632
:10055000FCD5704710B50C460346002204E0985CB9
:10056000FFF7F1FF521CD2B2A242F8D310BD0CB576
:10057000D3A0022100680090D2A0006801906846D4
:10058000FFF7E8FF0221C748FFF7E4FF022101A8B7
:10059000FFF7E0FF0CBD30B5C249CB4B091FCB4A7A
:1005A000CB4C08281BD2DFE800F01A040A10141BF9
:1005B000222582204880C7488861C7480EE09620DF
:1005C0004880C6488861C64808E0C8204880C548B9
:1005D0000AE0FA204880C4488861C448C86130BD38
:1005E0004FF496704880C248C1E9060330BD4FF40D
:1005F000AF7001E04FF4C3704880C1E9062430BDFC
:1006000070B5402001F0F0FAA64CBA4D241F002826
:100610007ED0402001F0F6FA4021284600F0B9FED5
:10062000002875D1A268B4A1521E2046A26007F02E
:10063000ADFEA06801282AD100F09AFB02232246D1
:100640000521184600F01AFC00221146104600F061
:1006500079FC01220021102000F074FC022200210C
:10066000202000F06FFC03220021302000F06AFC03
:100670000223A2A203211D2000F000FC0223A0A25D
:100680000521102000F0FAFB012000F09BFCA0687F
:1006900002282BD100F06CFB824A0223121F052195
:1006A000184600F0EBFB00221146104600F04AFC11
:1006B00001220021102000F045FC02220021202010
:1006C00000F040FC03220021302000F03BFC02231C
:1006D0008AA203211D2000F0D1FB02238AA205215A
:1006E000102000F0CBFB032000F06CFCA068032876
:1006F0002DD100F03DFB6B4A0223121F0521184645
:1007000000F0BCFB00221146104600F01BFC00E08C
:1007100021E101220021102000F014FC022200211E
:10072000202000F00FFC03220021302000F00AFC02
:10073000022372A203211D2000F0A0FB022374A259
:100740000521102000F09AFB042000F03BFCA0687B
:1007500004282BD100F00CFB524A0223121F052162
:10076000184600F08BFB00221146104600F0EAFB11
:1007700001220021102000F0E5FB022200212020B0
:1007800000F0E0FB03220021302000F0DBFB02231D
:100790005AA203211D2000F071FB02235EA2052155
:1007A000102000F06BFB052000F00CFCA068052871
:1007B0002BD100F0DDFA3B4A0223121F0521184617
:1007C00000F05CFB00221146104600F0BBFB01224A
:1007D0000021102000F0B6FB02220021202000F0B2
:1007E000B1FB03220021302000F0ACFB022343A226
:1007F00003211D2000F042FB022349A20521102005
:1008000000F03CFB072000F0DDFBA06806282BD1A0
:1008100000F0AEFA234A0223121F0521184600F009
:100820002DFB00221146104600F08CFB0122002116
:10083000102000F087FB02220021202000F082FB24
:1008400003220021302000F07DFB02232BA2032194
:100850001D2000F013FB022333A20521102000F01D
:100860000DFB082000F0AEFBA068072873D100F054
:100870007FFA0C4A0223121F0521184600F0FEFAE7
:1008800000221146104600F05DFB012200211020DD
:1008900000F058FB02220021202000F053FB03222D
:1008A000002145E01C00002000006144002C0140B4
:1008B0004E03002050030020000020420438014075
:1008C00003FC0000FC0300005839343CDD24663F83
:1008D000728A0E3CA470ED3F4260653CF0A7C63FB3
:1008E000E3A59B3CDBF97E3F8195633F8FC2F53BDF
:1008F0000B24803F000C0140256400006D6D00005A
:1009000041706F696E74000042706F696E74000010
:1009100043706F696E74000044706F696E740000FC
:1009200045706F696E74000046706F696E740000E8
:10093000302000F007FB0223AFF2400203211D200C
:1009400000F09CFA02235BA20521102000F096FA29
:10095000092000F037FB802001F046F900287DD007
:10096000802001F04FF98021284600F012FD002878
:1009700074D1A268521CAFF280015048A26007F007
:1009800005FD02234D4A0521184600F077FA0022A2
:100990001146104600F0D6FA01220021102000F086
:1009A000D1FA02220021202000F0CCFA03220021FB
:1009B000302000F0C7FA0223AFF2C00203211D204D
:1009C00000F05CFAA068012809D10223AFF2D0023E
:1009D0000521102000F052FA022000F0F3FAA0687E
:1009E000022809D10223AFF2E0020521102000F015
:1009F00045FA032000F0E6FAA068032809D1022393
:100A0000AFF2F4020521102000F038FA042000F0C3
:100A1000D9FAA068042809D10223AFF204120521F3
:100A2000102000F02BFA052000F0CCFAA068052871
:100A300009D10223AFF218120521102000F01EFA8E
:100A4000072000F0BFFAA06806280BD10223AFF2FE
:100A500028120521102000F011FA00E00EE0092014
:100A600000F0B0FAA068072808D1022311A20521DE
:100A7000102000F003FA092000F0A4FA4FF4807669
:100A8000304601F0B1F800280CD0304601F0BAF839
:100A90003146284600F07DFC002803D1A068BDE85F
:100AA000704078E570BD022001F0ACB8042001F080
:100AB000A9B8000047706F696E740000180000202C
:100AC00030B50D460446012189B0C80200F0F3FD9F
:100AD0000121042000F0EFFD4FF48072ADF81C20DE
:100AE00018228DF81F2003208DF81E0007A9194831
:100AF00000F0F9FBADF81440ADF810500024164D8D
:100B0000ADF81640ADF8124004A9284601F01AF9D4
:100B10007021ADF800100120ADF802000220ADF800
:100B20000800ADF806406946284601F044F9012165
:100B3000284601F0B9FB0821284601F089FC012173
:100B4000284601F05DFC0121284601F0A3FB09B015
:100B500030BD000000080140002C0140FEB501211D
:100B6000084600F0A8FD0821012000F070FC0124D7
:100B70004FF480708DF80640002500908DF80450E9
:100B80000C268DF80560684600F0DEFF0721012085
:100B900000F05DFC80208DF8064000908DF8045038
:100BA0008DF80560684600F0CFFF0621012000F0B7
:100BB0004EFC40208DF8064000908DF804508DF8D2
:100BC0000560684600F0C0FF17208DF808008DF81A
:100BD0000B408DF809508DF80A4002A800F053FF31
:100BE000FEBD7FB50E4605460121084600F06CFDAE
:100BF0000024ADF80640ADF80450ADF802404FF0C7
:100C00008045ADF800606946284601F09BF81C203D
:100C10008DF80C0001218DF80F108DF80D408DF826
:100C20000E1003A800F02FFF01221146284601F004
:100C300046FB0121284601F02DFB7FBD10B50121A7
:100C400086B0880500F040FD0121082000F033FD4A
:100C50004FF44060ADF8100003208DF812001C2006
:100C60008DF8130004A9E44800F03DFBE34C204656
:100C700001F048FD0021ADF804104BF6FF71ADF80E
:100C800006103021ADF808102015ADF80A0000015B
:100C9000ADF80C00DA4800900121204601F0ACFDCF
:100CA0006946204601F041FD06B010BD2DE9F04136
:100CB000D24C0F4606464FF400352946204601F037
:100CC00081FE0028F9D10121204601F0B3FDCD4D70
:100CD0002046294601F063FE0028F9D00022782141
:100CE000204601F0EEFDC84D2046294601F057FE92
:100CF0000028F9D03146204601F0DEFD2546C24CE1
:100D0000A41C2146284601F04AFE0028F9D03946A5
:100D1000284601F0D1FD2146284601F040FE00287A
:100D2000F9D02846BDE8F041012101F08DBD014612
:100D30000020BBE701464020B8E770B50646002515
:100D400005F1B000C0B2FFF7F2FF0020FFF7EFFFA0
:100D50001020FFF7ECFF00243046FFF7EBFF641C88
:100D6000E4B2802CF8D36D1CEDB2082DE8D370BD31
:100D70000020E2E710B5642000F096F9AE20FFF7FE
:100D8000D6FF2020FFF7D3FF1020FFF7D0FFB020C1
:100D9000FFF7CDFFC820FFF7CAFF0020FFF7C7FF0E
:100DA0001020FFF7C4FF4020FFF7C1FF8120FFF7AD
:100DB000BEFFFF20FFF7BBFFA120FFF7B8FFA62073
:100DC000FFF7B5FFA820FFF7B2FF3F20FFF7AFFF07
:100DD000A420FFF7ACFFD320FFF7A9FF0020FFF707
:100DE000A6FFD520FFF7A3FFF020FFF7A0FFD92033
:100DF000FFF79DFF2220FFF79AFFDA20FFF797FF0A
:100E00001220FFF794FFDB20FFF791FF2020FFF770
:100E10008EFF8D20FFF78BFF1420FFF788FFAF2098
:100E2000FFF785FFBDE81040002086E710B50446B7
:100E3000B031C8B2FFF77BFF102040EA1410FFF773
:100E400076FF04F00F00BDE8104040F001006EE7AF
:100E500010B58D20FFF76BFF1420FFF768FFBDE88A
:100E60001040AF2063E710B58D20FFF760FF102022
:100E7000FFF75DFFBDE81040AE2058E72DE9F047D1
:100E8000002692460F460446012B22D0DFF87C91C3
:100E9000022B24D151E0203800F0FF087E2C02D92B
:100EA00000247F1CFFB239462046FFF7BFFF08EB46
:100EB0004800002509EB400818F80500FFF73AFF45
:100EC0006D1CEDB2062DF7D3A41D761CE4B2F6B26C
:100ED00001E0DFF83C911AF806000028DBD1BDE8FC
:100EE000F087203800F0FF08782C02D900247F1CFE
:100EF000FFB239462046FFF799FF002505EB0811A0
:100F000019F80100FFF716FF6D1CEDB2082DF5D39F
:100F1000781CC1B22046FFF789FF002505EB0811B8
:100F200001EB0900007AFFF705FF6D1CEDB2082DFB
:100F3000F4D30834761CE4B2F6B21AF8060000289E
:100F4000CFD1CCE72DE9F0410F4680460025540172
:100F5000FFF76CFF2E4EC03E305DFFF7EBFE6D1CC1
:100F6000EDB2641C102DF7D37F1CF9B24046FFF799
:100F70005DFF0025305DFFF7DDFE6D1CEDB2641CEA
:100F8000102DF7D3BDE8F0812DE9F0471F469046BC
:100F90000E4682460025DDF8209010E0314650468E
:100FA000FFF744FF544606E019F805006D1CFFF7F3
:100FB000C1FE641CE4B24445F6D3761CF6B2BE42D0
:100FC000ECD38CE770B50546002411E0214678206B
:100FD000FFF72CFFFF20FFF7ADFEFF20FFF7AAFE73
:100FE000FF20FFF7A7FEFF20FFF7A4FE641CE4B27A
:100FF000AC42EBD370BD0000000C01400058004033
:10100000801A06000100030082000700FE9000081D
:10101000D68E000838B50121142000F04CFB4FF4A7
:101020000054ADF8004010208DF803000320064D59
:101030008DF802006946284600F055F921462846F9
:1010400000F0BBF938BD00000010014010B56FF092
:10105000040000F058FD204820490068B0FBF1F082
:101060001F49C0B200EB40020870C2EBC0104FF63F
:10107000FF7202EAC000488010BD19490978484350
:101080004FF0E021486100238B61086940F00100C6
:1010900008610869C20701D0C003FAD5086920F0C9
:1010A000010008618B6170470D49498848434FF042
:1010B000E021486100238B61086940F0010008616C
:1010C0000869C20701D0C003FAD5086920F0010001
:1010D00008618B61704700000000002000127A0058
:1010E00038000020704740490A885206FCD53E4A25
:1010F000C1B2121D1180704770B5054686B001213E
:1011000044F2040000F0D7FA4FF40070ADF810007C
:1011100003248DF812401820344E8DF8130004A9D2
:10112000304600F0E0F83015ADF8100004208DF8DE
:10113000130004A9304600F0D6F825208DF81400DD
:101140008DF815408DF8164001208DF8170005A880
:1011500000F099FC0020ADF80400ADF80600ADF8F1
:101160000800ADF80C000C201F4CADF80A000095EB
:101170006946204600F01EFB012240F22551204620
:1011800000F095FB0121204600F087FB06B070BD02
:1011900070B5154C40F22551204600F03FFC002868
:1011A0000ED0204600F0D3FB114AC1B210880304D0
:1011B00006D444044FF0000306D50A2901D0138059
:1011C00070BD40F400400DE00D2909D0C0F30D04BE
:1011D000084D401C80B229551080C728EFD870BD3B
:1011E00040F48040108070BD00380140000801408C
:1011F0003C0000209404002009488047094800472B
:10120000FEE7FEE7FEE7FEE7FEE7FEE7FEE7FEE7B6
:10121000FEE7FEE704480549054A064B7047000013
:10122000FD020008ED00000810080020100E00204C
:10123000100A0020100A00208F4910B5884206D1FC
:101240000121042000F049FA002104203BE08B49F1
:10125000884206D10121082000F03FFA0021082031
:1012600031E08749884206D10121102000F035FA8B
:101270000021102027E08349884206D10121202047
:1012800000F02BFA002120201DE07F49884206D182
:101290000121402000F021FA0021402013E07B4989
:1012A000884206D10121802000F017FA0021802019
:1012B00009E0774988420AD184150121204600F0CF
:1012C0000CFA00212046BDE8104000F006BA10BD1F
:1012D00010B50121084600F000FA0021BDE81040D9
:1012E000012000F0FAB9F0B5CC78002204F00F0329
:1012F000E40601D58C7823430C784FF00F0C14F0E2
:10130000FF0F4FF0010E1BD005680E880EFA02F495
:101310002640A64210D196000CFA06F725EA0707E8
:1013200003FA06F5CE783D43282E02D0482E02D08F
:1013300002E0446100E00461521C082AE5D3056024
:101340000A88FF2A1CD94468002202F108060EFA16
:1013500006F50E882E40AE420ED196000CFA06F726
:10136000BC4303FA06F7CE783C43282E00D14561F2
:10137000CE78482E00D10561521C082AE5D344607E
:10138000F0BD4FF6FF710180022181700421C17010
:1013900070470246002092680A4200D00120704740
:1013A000806880B2704702460020D2680A4200D0AE
:1013B00001207047C06880B2704701617047416189
:1013C00070470AB10161704741617047C160704761
:1013D00041F48032826181618261816980697047F4
:1013E0002C4B10B51A684FF68074224042EA001068
:1013F0000843186010BD2849C8617047F0B5254CF6
:10140000002801DAE36900E06368450D2E0185B22A
:10141000C0F30157B540C0F30342032F05D0C60205
:101420000AD503269640B34307E023F07062636851
:1014300023F07063636002E0AB4343F0706201B17C
:101440002A43002801DAE261F0BD6260F0BD10B508
:101450008A0721F003040F49120F21440F238C68DF
:1014600093409C438C608B68904003438B6010BD1D
:101470000949C1F8DC00704700080140000C014038
:10148000001001400014014000180140001C014000
:10149000002001400000014000002042A5480168F2
:1014A00041F0010101604168A34A114041600168B7
:1014B000A24A11400160016821F480210160416865
:1014C00021F4FE0141604FF41F018160704799498A
:1014D0000A6822F480320A600A6822F480220A60D4
:1014E000B0F5803F07D0B0F5802F03D1086840F4F5
:1014F000A02008607047086840F48030F9E7034690
:10150000002059098B4A01290AD002290AD0516AC0
:1015100003F01F02012393400B4200D001207047CB
:101520001168F5E7116AF3E718B500204FF4A064DD
:1015300000903120FFF7E3FF0099491C0091A14280
:1015400001D00028F5D03120FFF7D9FF002800D0C6
:10155000012018BD774A116821F0F80141EAC00066
:1015600010607047764908607047724B5A680843AC
:1015700022F47C1210435860704771490866704726
:101580006C4A516821F0030101435160704769487A
:10159000406800F00C007047664A516821F0F00185
:1015A000014351607047634A516821F4E06101438F
:1015B000516070475F4A516821F4605141EAC000B0
:1015C000506070475B4A0029517A01D0014300E026
:1015D0008143517270475A49C1F8D8007047554A43
:1015E000516821F440410143516070475149002244
:1015F00081F8202081F82020012802D0042802D17F
:10160000052081F8200070474E490860704749491D
:101610000A6A02430A6270474A49443908607047BF
:1016200030B5444A5168484B11F00C0103D00429ED
:1016300001D0082901D0036012E05168536801F419
:1016400070114FF0020413F4803F04EB914102D07B
:1016500053689B0301D53D4B00E03B4B5943016070
:1016600051680F2303EA1111394B5C5C0168E140BA
:1016700041605468072505EA14241C5D21FA04F42E
:101680008460546805EAD4241B5DD940C160526867
:10169000032303EA92322E4B1B1F9A5CB1FBF2F13B
:1016A000016130BD234A0029516901D0014300E0A6
:1016B0008143516170471F4A0029916901D001435C
:1016C00000E08143916170471A4A0029D16901D035
:1016D000014300E08143D1617047164A0029D16877
:1016E00001D0014300E08143D1607047114A0029D5
:1016F000116901D0014300E0814311617047114934
:101700004039086070470E49C86470470949C8717C
:1017100070470848416A41F0807141627047054A4C
:101720000146002092680A4200D00120704701491A
:1017300088727047001002400000FFF8FFFFF6FEBD
:10174000000042428004424200127A0000093D003B
:1017500048000020C44910B588420AD101218C03F9
:101760002046FFF7BAFF2046BDE810400021FFF7F2
:10177000B4BFBE49884202D101214C0410E0BC49EB
:10178000884202D101218C040AE0BA49884202D180
:101790000121CC0404E0B84988420AD101210C059A
:1017A0002046FFF7A3FF2046BDE810400021FFF7C9
:1017B0009DBF10BD30B50446008A85B00D464CF67D
:1017C000FF710840E98801432182A0894EF6F31198
:1017D0000840A9882A8911436A8902431143A181DB
:1017E000A08A4FF6FF410840A9890143A1826846BB
:1017F000FFF716FF9C48844201D1039800E002984D
:10180000A189090400EBC00101EB0010296801D592
:10181000490000E08900B0FBF1F06422B0FBF2F176
:1018200009010B096FF018056B4300EB8300A389D6
:101830001D044FF0320306D503EBC000B0FBF2F0FD
:1018400000F0070005E003EB0010B0FBF2F000F041
:101850000F000843208105B030BD4FF416510160E0
:1018600000218180C18001810C22428181817047E9
:1018700010B5028A4FF2FF031A400B884C882343AD
:101880008C88C9880C4323431343038210BD002175
:10189000018041808180C18070470029818902D008
:1018A00041F4005101E021F400518181704710B5ED
:1018B000C1F3421301F01F040121A140012B07D005
:1018C000022B07D01430002A026805D00A4304E036
:1018D0000C30F8E71030F6E78A43026010BD002AAA
:1018E000828A01D00A4300E08A4382827047028ADA
:1018F00022F00F020282028A0A4302827047828922
:1019000022F40062828182890A4382817047002921
:10191000818902D041F0020101E021F002018181C0
:101920007047028A22F020020282028A0A4302825F
:1019300070470029018A02D041F4804101E021F47E
:10194000804101827047C1F308018180704780881F
:10195000C0F308007047818941F00101818170471F
:10196000028BD2B20283028B42EA012101837047CB
:10197000028B02F47F420283028B0A430283704788
:101980000029818A02D041F0200101E021F02001EC
:10199000818270470029818A02D041F0100101E064
:1019A00021F01001818270470029818A02D041F024
:1019B000080101E021F00801818270470029818936
:1019C00002D041F4004101E0C1F30E018181704772
:1019D0000029818A02D041F4006101E021F4006114
:1019E00081827047828A22F004028282828A0A43BC
:1019F000828270470029818A02D041F0020101E011
:101A000021F00201818270470246002012880A42BA
:101A100000D001207047C9430180704770B501F0C4
:101A20001F0501260024C1F3421306FA05F2012B1B
:101A30000FD0022B0FD0838A4FEA11210088134266
:101A400006FA01F600EA060001D000B101242046A2
:101A500070BD8389F0E7038AEEE70A0A012191400D
:101A6000C943018070470000003801400044004035
:101A700000480040004C0040005000402849084306
:101A800028490860704730B50F23C27801780125D6
:101A9000F2B1244A126801F1E02102F4E062C2F5D9
:101AA000E062120AC2F10404D3404278A240847872
:101AB0001C401443220181F80024007800F01F012B
:101AC0008D404009800000F1E020C0F8005130BD99
:101AD00001F01F0085404809800000F1E020C0F8B7
:101AE000805130BD104A114001430E48001F016073
:101AF00070470C4A121D0029116801D0014300E013
:101B00008143116070474FF0E0210428086903D039
:101B100020F004000861704740F00400FAE700007C
:101B20000000FA050CED00E080FFFF1F37490020A0
:101B30000860091D0860091D0860091D0860334917
:101B4000334814310860704730B5304A83790168F2
:101B500053B313688B431360111D0B680468A343D0
:101B60000B60017911440B68046823430B60274B19
:101B7000083319680468A14319601C1D21680568B1
:101B8000A94321604179102905D011440A680068F1
:101B900002430A6030BD1968026811431960216868
:101BA00000680143216030BD0079104402688A4317
:101BB000026030BD0021016001710C22427181710F
:101BC0007047124910310A6802430A6070470146A3
:101BD0000E4A0020143212680A4200D001207047D9
:101BE0000A49143108607047084A0146002012680B
:101BF000064B0A4014331B680B4202D0002A00D067
:101C00000120704701491431086070470004014009
:101C1000FFFF0F00F94910B5884202D10121C41419
:101C200086E0B0F1804F09D0F54988420DD10121FD
:101C30000220FFF75BFD0021022064E0012108463D
:101C4000FFF754FD002101205DE0EE49884206D1F6
:101C500001210420FFF74AFD0021042053E0EA4956
:101C6000884206D101210820FFF740FD002108200D
:101C700049E0E649884206D101211020FFF736FDF0
:101C8000002110203FE0E249884206D101212020B6
:101C9000FFF72CFD0021202035E0DE49884202D1EB
:101CA0000121441444E0DC49884202D10121CC04E2
:101CB0003EE0DA49884202D101210C0538E0D849DA
:101CC000884202D101214C0532E0D649884206D132
:101CD00001214020FFF70AFD0021402013E0D249F6
:101CE000884206D101218020FFF700FD00218020DD
:101CF00009E0CE4988420AD1841501212046FFF728
:101D0000F5FC00212046BDE81040FFF7EFBCC849B4
:101D1000884202D101210C040AE0C649884202D15E
:101D200001214C0404E0C44988420AD101218C04F9
:101D30002046FFF7D2FC2046BDE810400021FFF707
:101D4000CCBC10BD30B50288AC4CB24DA0420DD019
:101D5000A8420BD0B0F1804F08D0A94B984205D0D3
:101D6000A84B984202D0A84B984203D122F07003AE
:101D70004A881A43A54B984206D0A54B984203D0F7
:101D800022F44073CA881A4302808A8882850A88AE
:101D90000285A0420AD0A84208D0A54A904205D0A8
:101DA000A44A904202D0A44A904201D1097A018605
:101DB0000121818230BD30B5028C22F00102028403
:101DC000028C8388048B22F0020224F073050C88B5
:101DD0002C430D8915434A882A43884DA8420BD0CD
:101DE0008C4DA84208D0924DA84205D0914DA842F2
:101DF00002D0914DA8420DD122F008054A8923F462
:101E000040732A4322F004058A882A438D891D43A2
:101E1000CB892B4383800483C9888186028430BDAB
:101E200070B5028C22F010020284028C8388048B2D
:101E30000D8824F4E6464FF6FF7404EA0525354381
:101E40000E8922F0200204EA061616434A8804EAA4
:101E500002123243694EB04202D06E4EB04215D1EA
:101E600022F080064A8923F4406304EA02123243D6
:101E700022F040068A8804EA021232438E8904EA7C
:101E800086061E43CB8904EA83033343838005839C
:101E9000C9880187028470BD70B5028C22F48072FB
:101EA0000284028C8388848B0D8824F0730425437C
:101EB0000E894FF6FF7422F4007204EA06261643D8
:101EC0004A8804EA022232434C4EB04202D0514EBC
:101ED000B04215D122F400664A8923F4405304EA43
:101EE0000222324322F480668A8804EA02223243C4
:101EF0008E8904EA06161E43CB8904EA0313334392
:101F000083808583C9888187028470BD70B5028C07
:101F100022F480520284058C8288838B0C8823F4FF
:101F2000E6464FF6FF7303EA0424344325F40056D3
:101F30000D8903EA053535434E8803EA06362E43FC
:101F40002E4DA84202D0334DA84205D122F480453F
:101F50008A8903EA82122A4382808483C988A0F88E
:101F60004010068470BD828B22F440628283828B93
:101F70004FF6FF7303EA01210A4382837047828B85
:101F800022F00C028283828B0A4382837047028B89
:101F900022F440620283028B4FF6FF7303EA0121B1
:101FA0000A4302837047F0B5048C24F010040484C3
:101FB000078B048C4FF6FF7527F4734705EA03334C
:101FC0003B4305EA02221A430C4B05EA01169842EC
:101FD0000ED0104B98420BD0B0F1804F08D0084B78
:101FE000984205D0074B984202D0074B984225D122
:101FF00024F02001314341F0100124E0002C014085
:102000000004004000080040000C004000100040A8
:102010000014004000340140004C014000500140D9
:102020000054014000180040001C00400020004007
:1020300000400140004401400048014024F0A0035A
:102040000B4343F0100102830184F0BD028B22F0A8
:102050000C020283028B0A430283704770B5048C22
:1020600024F001040484058B048C4FF6FF7606EA05
:102070000313134325F0F305F84A2B4390420ED087
:10208000F74A90420BD0B0F1804F08D0F54A904209
:1020900005D0F54A904202D0F44A904202D124F091
:1020A000020201E024F00A020A4342F00101038324
:1020B000018470BD2DE9F84F0D4604460888E74FAE
:1020C000DFF89CC3DFF89C83DFF89C934988AA88DB
:1020D0002B894FF0804A48B304282FD04FF6FF7663
:1020E0000828934632D0208C9E4620F480502084CD
:1020F000A38B208C06EA0132009223F4734306EA94
:102100000B221A4306EA0E331343BC420AD064453D
:1021100008D0544506D0444504D04C4502D0D34A9B
:10212000944242D120F40050009940E02046FFF74D
:1021300095FFE9882046BDE8F84F87E72046FFF77E
:1021400032FFE9882046BDE8F84F20E7208C20F4D4
:1021500080702084B4F81CE0208C06EA031306EAA1
:1021600001222EF0F30E43EA0B0343EA0E03009222
:10217000BC420AD0644508D0544506D0444504D03A
:102180004C4502D0B94A944203D120F40070009922
:1021900001E020F42060084340F48070A383208491
:1021A000E9882046BDE8F84FE9E620F402400843FC
:1021B00040F48050A3832084E9882046BDE8F84F8E
:1021C000D1E62DE9F0410C46002649880746012555
:1021D00001B90226A288012A00D10225208823897C
:1021E0000028384610D0FFF7DEFEE1883846FFF7BA
:1021F000CEFE23892A4631463846FFF72FFFE18875
:102200003846BDE8F04121E7FFF728FFE18838466E
:10221000FFF71CFF23892A4631463846FFF7C3FEE5
:10222000E1883846BDE8F041B1E610B50A884B8830
:10223000CC881A438B8823431A430B891A434B8952
:1022400089891A430A43A0F8442010BD4FF6FF7154
:10225000818000210180C18041800172704700218E
:10226000018041808180C180018141818181C18162
:10227000704700210180418001228280C18001815C
:1022800070470021018041808180C18001814181AE
:10229000818170470029018802D041F0010101E0ED
:1022A00021F0010101807047002930F8441F02D05D
:1022B00041F4004101E0C1F30E0101807047002AA2
:1022C000828901D00A4300E08A438281704781827B
:1022D00070471143A0F848107047002A828901D046
:1022E0000A4300E08A4382817047018921F0070197
:1022F00001817047028922F070020A43028170470F
:1023000000B50346FFF7F6FF188940F00700188173
:1023100000BD70B516460D46602904464FF0010217
:1023200031460AD0FFF79AFE29462046FFF7E2FF22
:10233000208940F00700208170BDFFF734FEF3E7ED
:1023400030B504894FF6FF7505EA03231343E4B261
:102350000B432343038130BD10B50446FFF7F0FF64
:10236000208940F07700208110BD10B50446FFF7AA
:10237000E7FF208940F48040208110BD01858282E2
:102380007047028822F070020A430280704770B5DD
:102390000589048B068C25F007050D434FF6FC419B
:1023A0000C4040F201110C434FF6FF7101EA03119A
:1023B00026F022061143314305810483018470BD58
:1023C000028B22F070020A4302837047028B4FF6A1
:1023D000FF7322F4E04203EA0121114301837047B5
:1023E000828B22F070020A4382837047828B4FF601
:1023F000FF7322F4E04203EA012111438183704715
:102400000029018802D041F0800101E021F0800123
:10241000018070470029818802D041F0040101E069
:1024200021F00401818070470029818802D041F0A9
:10243000080101E021F008018180704700298188AE
:1024400002D041F0010101E021F0010181807047DB
:10245000028B22F008020A4302837047002C0140DD
:10246000003401400004004000080040000C00401F
:10247000028B4FF6FF7322F4006203EA012111433D
:102480000183EAE7828B22F008020A438283E4E7B1
:10249000828B4FF6FF7322F4006203EA012111439D
:1024A0008183DAE7028B22F004020A430283D4E735
:1024B000028B4FF6FF7322F4806203EA012111437D
:1024C0000183CAE7828B22F004020A438283C4E7B5
:1024D000828B4FF6FF7322F4806203EA01211143DD
:1024E0008183BAE7028B22F080020A430283B4E7B9
:1024F000028B4FF6FF73C2F30E0203EA0121114370
:102500000183AAE7828B22F080020A438283A4E738
:10251000828B4FF6FF73C2F30E0203EA01211143CF
:1025200081839AE7028C22F002020A43028494E734
:10253000028C22F008020A4302848EE7028C4FF6D6
:10254000FF7322F0200203EA01111143018484E7A2
:10255000028C4FF6FF7322F0800203EA011111434F
:1025600001847AE7028C4FF6FF7322F4007203EACB
:1025700001211143018470E7028C4FF6FF7322F4AE
:10258000006203EA01211143018466E7028C4FF6E1
:10259000FF7322F4005203EA0131114301845CE726
:1025A00010B50123048C8B409C430484038C8A4027
:1025B0001343038410BD10B50423048C8B409C434B
:1025C0000484038C8A401343038410BD30B5012476
:1025D000058C00F118038C40A543058489B10829B6
:1025E0000FD0091FC1F34E001844016821F4E041E7
:1025F000016001684FF6FF7303EA02221143016094
:1026000030BD03EB5100016821F0700101600168E9
:10261000F4E70029018802D041F0020101E021F035
:102620000201018019E70029018802D041F004016C
:1026300001E021F0040101800FE70029818802D028
:1026400041F0800101E021F08001818005E70288EE
:1026500022F00802028002880A430280FDE6828896
:1026600022F07002828082880A438280F5E6028925
:1026700022F00702028102890A430281EDE6028903
:1026800022F08002028102890A430281E5E6818408
:10269000E3E68185E1E68186DFE60187DDE6818785
:1026A000DBE6A0F84010D8E6028822F440720280EF
:1026B00002880A430280D0E6808ECEE6008FCCE608
:1026C000808FCAE6B0F84000C7E6808CC5E6008D72
:1026D000C3E602460020128A0A4200D00120BCE66E
:1026E000C9430182B9E602460020138A92890B424F
:1026F00002EA010202D0002A00D00120ADE6C9435F
:102700000182AAE6C64910B588424FF0010101D105
:102710004C0501E04FF480042046FEF7E7FF204619
:10272000BDE810400021FEF7E1BF70B50446808887
:1027300086B00D4620F03F066846FEF771FFB949A6
:102740000298B0FBF1F189B20E43A680228822F0F4
:1027500001022280B44B2A689A421CD85200B0FB76
:10276000F2F080B2042800D20420491C2184A08306
:10277000208840F00100208020884FF6F531084085
:10278000A9886A89114301432180A88929890843BE
:10279000208106B070BDEB88A3F53F46FF3E0BD00D
:1027A00002EBC20303EB0212B0FBF2F080B240F482
:1027B0008040020506D007E002EB4202B0FBF2F0D7
:1027C00080B2F6E740F001004FF4967251434FF4A7
:1027D0007A72B1FBF2F140F40040C6E741F2883171
:1027E0000160002181804BF6FF72C280018141812E
:1027F0004FF48041818170470029018802D041F067
:10280000010101E021F00101018070470029818868
:1028100002D041F4006101E021F400618180704741
:102820000029818802D041F4805101E021F48051D7
:10283000818070470029018802D041F4807101E055
:1028400021F48071018070470029018802D041F491
:10285000007101E021F400710180704700290188B6
:1028600002D041F4806101E021F480610180704771
:10287000828901F0FE0122F0FE021143818170473E
:102880000029818902D041F0010101E021F001011C
:10289000818170470029018802D041F0400101E0A8
:1028A00021F0400101807047002A828801D00A434C
:1028B00000E08A438280704701827047008AC0B27C
:1028C000704712B141F0010101E001F0FE01018207
:1028D000704708B508440090008808BD00290188A9
:1028E00002D041F4004101E0C1F30E0101807047C4
:1028F000B1F5006F018803D021F4006101807047B9
:1029000041F40061FAE7B1F5005F018803D021F4DA
:1029100000510180704741F40051FAE70029018815
:1029200002D041F4805101E021F4805101807047D0
:10293000B1F5006F018803D021F400610180704778
:1029400041F40061FAE70029018802D041F020013A
:1029500001E021F0200101807047008B000A7047E0
:102960000029018802D041F0100101E021F010019E
:10297000018070470029018803D021F08001018087
:10298000704741F08001FAE7B1F5804F818B02D0AA
:1029900021F4804101E041F4804181837047034686
:1029A00000209A8A1B8B42EA034222F07F42914325
:1029B00000D101207047818A008B41EA004121F05B
:1029C0007F4070470CB50246002000920A0F21F0AC
:1029D0007F41019202D0009A143202E0009A090C61
:1029E0001832009212680A4200D001200CBDC9437F
:1029F0008182704710B5034600209A884FF4E06446
:102A000004EA11449B8A224021F07F410B4202D00C
:102A1000002A00D0012010BDC94381827047000008
:102A20000054004040420F00A086010001210171C6
:102A3000002141710222827141F2D72202600846D0
:102A40007047012202710222002142710722827125
:102A50004FF4B46202600846704738B515460C461C
:102A60006A46C22103F004FE012121709DF8001086
:102A70000909297038BD02F0E5BF38B50C466A4631
:102A8000142103F0F5FD9DF80010C1F3C30222707C
:102A900038BD03F00DB803F03EB803F058B803F0AA
:102AA000AEB80246002092F832210A70704702F058
:102AB000F1BB02F007BC2DE9F84307460020904621
:102AC0000E468DF800006A460121384603F0D0FD1D
:102AD0009DF800400500204630D1291FB8F1010FB4
:102AE00006D0052E29D2DFE806F0191C1F2225008A
:102AF000052E22D2DFE806F00306090C0F0044F091
:102B000010041BE044F0280418E044F0040415E02D
:102B100044F0400412E044F080040FE004F0EF04BD
:102B20000CE004F0D70409E004F0FB0406E004F034
:102B3000BF0403E004F07F0400E00D4684420DD0A2
:102B400065B922460121384603F050FD050005D144
:102B500087F8304138467969FFF7ABFF2846BDE872
:102B6000F88310B50C460A46092103F081FD0028C0
:102B700003D1217801F00101217010BD02F003BCE6
:102B800038B50C4605466A46012103F071FD002860
:102B90000BD19DF8001085F83011090601D50121EF
:102BA00000E00021217085F84C1038BD034600205C
:102BB000062902D3001F002102E0194491F82810D1
:102BC000117070472DE9F843054600200E46174660
:102BD0008046062E2ED2DFE806F0030511131515E8
:102BE0006C6B2EE06A464421284603F04CFD10B978
:102BF000BDF800104C024FF001080CE0EC6B20E037
:102C00002C6C1EE06A466421284603F03CFD10B996
:102C1000BDF800104C020028A1D1B8F1000F10D06F
:102C200005EB8601AA1944B13C604C63012182F88E
:102C3000281094E76FF0030091E7496B3960002199
:102C4000F5E73C608BE701F0ABB938B50D460446BB
:102C50006A46202103F017FD002807D1BDF80010B7
:102C600029B1CA002A6001212262217738BD216A78
:102C700029600021F9E77CB50C4605466A46F82133
:102C800003F001FD00280ED101AA0421284603F01B
:102C900005FD002807D1BDF800202AB10199B1FB3C
:102CA000F2F12160A9617CBD2168FBE702460020AA
:102CB000127C0A70704770B506460D46007C01F81C
:102CC000080B3046FFF7D7FF002832D1287305F1F3
:102CD00010013046FFF7B9FF00282AD105F1140191
:102CE0003046FFF7B0FF002823D1002401E0002880
:102CF0001FD105EB8402A1B230462432FFF762FFF8
:102D0000002816D12A19A1B230461832FFF74EFF1B
:102D1000641C062CEBDB00280BD105F13C0130468E
:102D2000FFF72EFF002804D1291D3046BDE8704072
:102D300024E770BDF8B50646002401220B21304679
:102D400003F054FC074600220B21304603F04EFCF2
:102D500040EA07056A461321304603F089FC641CEB
:102D60009DF800102843E4B2490704D0032C04D294
:102D70000028E2D0F8BD032CFCD36FF00B00F8BDA7
:102D80002DE9F0411D46069E044619B16FF0090079
:102D9000BDE8F081142A08D0152A0FD0052D74D271
:102DA000DFE805F07476787A7C002EB10122BDE868
:102DB000F041842103F01ABC1022F8E70122FF2120
:102DC00003F014FC064600221146204603F00EFCD8
:102DD00040EA06050022FF21204603F007FC40EAF6
:102DE000050701228021204603F000FC40EA070687
:102DF00002228521204603F0F9FB40EA0605042261
:102E0000FF21204603F0F2FB40EA05060022CD2117
:102E1000204603F0EBFB40EA06051122CC212046B8
:102E200003F0E4FB40EA05060722FF21204603F0F9
:102E3000DDFB40EA06050022BE21204603F0D6FB5A
:102E400040EA05060622FF21204603F0CFFB40EAB8
:102E500006050922CC21204603F0C8FB40EA0506FE
:102E60000022FF21204603F0C1FB40EA06050122B3
:102E7000FF21204603F0BAFB40EA05060022114676
:102E8000204603F0B3FB304382E71EE0002206E059
:102E9000012204E0022202E0032200E004220A21CF
:102EA000204603F0A3FB0028EED18EB11023EF22C1
:102EB0008421204603F0BBFB0028E5D184F8DA50DA
:102EC0002046BDE8F041002134E76FF00A005FE7DB
:102ED0000023ECE770B598B00446402101A805F046
:102EE000A2FC00258DF84450ADF850508DF8545098
:102EF00001212046169501F0DFFC94F8142194F886
:102F00001311012A06D802D1202903D808E03AB9C2
:102F10000C2905D915AA16A9204601F094FA02E059
:102F2000204601F0A8FBFE4900287DD194F850010D
:102F300008B9D4F84C11204602F087FA00287FD156
:102F400000220423114620460095FFF719FF0028B0
:102F500076D10122FF21204603F048FB064614AA41
:102F60008421204603F08FFB40EA06050022FF2162
:102F7000204603F03BFB284362D1BDF8500001A975
:102F80000001C4F8D4002046FFF795FE002857D171
:102F900011A92046FFF7E5FD002851D19DF8440016
:102FA00084F83101402201A904F1100005F0E7FB8B
:102FB00011AA0121204603F05BFB002840D19DF8B7
:102FC000440084F83001002211462046FFF773FDCB
:102FD000002835D1002202212046FFF76CFD002891
:102FE0002ED1032084F8320112AA00212046FFF7D7
:102FF0005EFD002824D19DF8480084F8E80012AA5C
:1030000001212046FFF753FD002819D19DF8480003
:1030100084F8E00013AA0321204601F021FF0028D4
:103020000ED1139813AA00E00AE0C4F8E4000421CA
:10303000204601F015FF002802D11399C4F8DC10D6
:1030400018B070BD70B50446022521B102290ED01A
:103050006FF0070070BD0022802103F0C7FA00283E
:10306000F8D184F83251002184F8331170BD002268
:10307000802103F0BBFA0028F8D12046FFF72AFF91
:103080000028F3D184F8335170BD38B504466A4640
:10309000802103F0EDFA002806D19DF800100129E7
:1030A00003D0002184F8331138BD0221FAE700F083
:1030B0005DBF034600204FF47A72914201D9001F90
:1030C0007047A3F852119142FAD0002220211846ED
:1030D00003F097BA02460020B2F852210A807047E6
:1030E0006FF0620070476FF06200704730B50D46B8
:1030F00087B0044600F150011C22684605F03FFBF2
:103100002A466946204602F004FA07B030BD4A0854
:103110008A2103F06BBA70B514460022431800EB05
:10312000810593F82830DBB1C4F34F23062914D26C
:10313000DFE801F00305080A0C0C446310E01A46AE
:10314000442105E0C4630BE0046409E01A466421ED
:1031500003F057FA020003D003E06FF0030200E02F
:103160006C63104670BD2DE9F041044600200D4609
:103170001646071F034601460246062D2ED256B1BB
:1031800004EB85014B6B0121062D27D2DFE805F00A
:1031900005080F1215180122F6E784F8281017E029
:1031A000C3F34F224421204603F02BFA0EE084F8AB
:1031B0002A100DE084F82B100AE05300FE2201E0F3
:1031C0001301EF226021204603F031FA002804D1D8
:1031D00061192EB1012281F82820D9E53846D7E5BA
:1031E0000022F8E7F0B591B004460123FE228921C0
:1031F00003F01DFA20B900228821204603F0F6F9D9
:10320000002684F8F0604FF47A70A4F852014FF46D
:10321000C870A4F854014348C4F8580142482662D3
:10322000C4F8D40069462046FFF745FD050009D1E2
:103230008DF800608DF801604022694604F11000AD
:1032400005F09DFA6420A4F834014FF46170A4F8ED
:1032500036014FF4FA70A4F838014FF42060A4F856
:103260003C01012784F850713A468021204603F042
:10327000BDF905430122FF21204603F0B7F90543BC
:1032800000221146204603F0B1F9054310AA91210E
:10329000204603F0EDF905439DF8400084F83A011B
:1032A00001220021204603F0A1F905430022FF215D
:1032B000204603F09BF9054300228021204603F0BD
:1032C00095F928430025002859D1A9B201222046AA
:1032D000FFF749FF6D1C062DF5DB00284FD10022BA
:1032E00002212046FFF73FFF002848D1002203219A
:1032F0002046FFF738FF002841D100220421204654
:10330000FFF731FF00283AD1002205212046FFF7C0
:103310002AFF002833D14FF490120021204605E007
:1033200058000020856B0100A4700900FFF7F3FE30
:10333000002824D14FF4804201212046FFF7EBFE04
:1033400000281CD14FF40C1202212046FFF7E3FEA7
:10335000002814D1002203212046FFF7DCFE0028BC
:103360000DD1FF2084F8300102460121204603F0F0
:103370003DF984F83271002801D184F8156111B04B
:10338000F0BD0023012A07D00A783AB1C0F84C11E9
:10339000002180F8501103E00121FAE76FF00303E8
:1033A0001846704710B5D0F84C410C6090F85001A9
:1033B00000231070184610BD6FF06200704738B5DA
:1033C00005460022BF2103F011F940B96A46C02129
:1033D000284603F04DF99DF800000028F6D1284654
:1033E00003F067F90122BF21284603F0FFF804002B
:1033F00009D16A46C021284603F03AF904469DF8EF
:1034000000000028F5D0284603F053F914B9002035
:1034100085F83201204638BD38B50C4605466A4667
:10342000012103F025F99DF8000094B140F08000DF
:103430008DF800000124C2B20121284603F0D6F81D
:10344000002805D19DF8001085F8301185F84C4012
:1034500038BD00F07F008DF800000024EBE770B568
:1034600004460D46227FB4F8521100204AB1B1F54E
:103470007A7F08D000222021204603F0C2F80028DD
:1034800000D1256270BDC5F3CF02F4E738B50C4614
:1034900005466A46F82103F0F6F800280DD1BDF87C
:1034A000000010B104FB00F200E02246042128468F
:1034B00003F0B2F8002800D1AC6138BD024600200C
:1034C00003290BD003DC49B1012904D106E01429FA
:1034D00004D0152902D06FF00700704711747047AF
:1034E00070B50D4606460978FFF7E8FF68B9304623
:1034F000A968FFF7CBFF40B930462969FFF7AFFF56
:1035000018B930466969FFF7D2FD0024002820D1A0
:103510002819A1B2027E3046FFF725FE002818D1F7
:1035200005EB8400A1B2426A3046FFF7F4FD641C4B
:10353000062CEBDB00280CD195F83C103046FFF749
:103540006BFF002805D130466968BDE87040FFF781
:10355000B0BA70BD70B50C460A460546092103F0A5
:1035600045F8002801D185F8314170BD6FF0620047
:1035700070476FF06200704701F06CBD10B500201D
:103580001870052913D2DFE801F00306090C0F00BB
:10359000C2F3001109E0C2F3C00106E0C2F38001EA
:1035A00003E0C2F3801100E0D109197010BD6FF083
:1035B000030010BDF8B50646002014460D468DF8F0
:1035C00000006A460121304603F052F8002806D177
:1035D00023469DF8002029463046FFF7CFFFF8BD6F
:1035E00038B5054600200C468DF800006A460121DA
:1035F000284603F03DF800282AD123469DF80020F4
:1036000000212846FFF7BAFF002821D1A31C9DF80E
:10361000002001212846FFF7B1FF002818D1631CC4
:103620009DF8002002212846FFF7A8FF00280FD1AF
:10363000E31C9DF8002003212846FFF79FFF002888
:1036400006D1231D9DF8002004212846FFF796FF90
:1036500038BD002005220A70704702F0DDBCF8B5C5
:10366000054602EB42000E46C0EBC2104FF400418B
:1036700001EBC000040C6A463146284601F0F0FB1D
:10368000002818D122463146284601F062FC002865
:1036900011D16C6928462146FFF70BFA00280AD0A1
:1036A00031462846009A01F054FC002803D12146F7
:1036B0002846FFF7FEF9F8BD38B514466A4601F012
:1036C000CFFB00280AD100994FF47A7209020091C9
:1036D00001F5FA71B1FBF2F10902216038BD70B554
:1036E0000446B0F852010D0002D0B0F57A7F01D047
:1036F000002000E0206A2021C0F3CF02204602F023
:1037000080FF002802D115B10121217770BD002171
:10371000FBE702460020127F0A70704701F035B8BF
:1037200001F043B80146002006220A80704702F0EB
:103730008EBC03460020062901D3001F70471944A0
:1037400091F82E101170704770B5002514462B1F8C
:1037500088B00A46062915D200F15001062A11D276
:10376000DFE802F003060C060606D0F8400107E089
:103770001C22684605F003F8039801E0D0F84801E0
:10378000206000E01D4608B0284670BD70B50446B4
:10379000002531B12AB1A4F85411C0F858212846A7
:1037A00070BD042101F088F84FF4C871D4F82001ED
:1037B000A4F85411C4F85801F1E710B5B0F8544119
:1037C0000C80D0F8580100231060184610BDF8B5E1
:1037D00015461C4606466A460E2102F054FFBDF807
:1037E00000100905C9082960002809D16A460C2182
:1037F000304602F048FFBDF800100905C9082160F5
:10380000F8BD7CB50546002095F8DA200C46012A63
:1038100003D0022A01D0032A14D101AB6A46012148
:103820002846FFF7D4FF00994FF47F02914202D857
:103830000199914206D9002804D124B1F9492846BA
:1038400001F003FE7CBD0422FF21284602F0CEFEDB
:10385000064600227021284602F0C8FE40EA06040F
:103860000022FF21284602F0C1FE40EA04060022A1
:103870008021284602F0BAFE30437CBDF8B5012510
:103880000646047C2A46802102F0B0FE0122FF2178
:10389000304602F0ABFE00221146304602F0A6FE92
:1038A00096F83A219121304602F0A0FE0122002133
:1038B000304602F09BFE0022FF21304602F096FEC9
:1038C00000228021304602F091FE3CB10425012CFB
:1038D00026D0032C2ED06FF00700F8BD0122002166
:1038E000304602F083FE8DF800500028F5D1002408
:1038F0004FF4FA6705E024B16A460021304602F031
:10390000B7FE9DF80020641C25EA0201014304D0A3
:10391000BC42E2D36FF00600F8BDBC42EBD3F9E73E
:1039200018B901213046FFF76CFF022208E086F843
:103930003251F8BD18B901213046FFF762FF042269
:103940000021304602F052FE0028F0D0F8BD70B5DC
:10395000047C054614B9FFF791FF10B9284600F022
:1039600041FF50EA040102D1032185F8321170BDF4
:103970006FF062007047012300F045BD6FF06200F8
:10398000704700F023BA00F08EBA10B5002204464A
:10399000114602F02BFE0122FF21204602F026FEF6
:1039A00000221146204602F021FE002291212046ED
:1039B00002F01CFE01220021204602F017FE002228
:1039C000FF21204602F012FE002807D1032084F8D0
:1039D00032012046BDE81040002112E710BD38B585
:1039E0000C466A46132102F043FE9DF8002002F0C7
:1039F000070112F0180F216001D06FF0050038BDEB
:103A00007CB50C4690F8DA100025012604290AD06E
:103A10006A46142102F02CFE00280BD19DF80010FC
:103A2000C90706D007E001A9FFF7D9FF01990429CA
:103A300001D025707CBD26707CBD6FF062007047A0
:103A4000F0B58DB00C4605460C2309AA142102F0EE
:103A5000BEFD06007ED1844684F816C0C4F800C0BE
:103A60009DF82F009DF82E10C4F804C000EB012033
:103A70009DF82B109DF82A204FF47A7E01EB02214D
:103A80000904CA09E2609DF82D109DF82C3080B21F
:103A900001EB03210904C90921619DF827109DF854
:103AA000263001EB03218BB2A382B5F852119DF8A9
:103AB000246095F8317171451DD0414301F5FA71CB
:103AC00091FBFEF0298C95F81CE080B289B2BEF122
:103AD000000F10D05943B2EB212F06D117B142F29B
:103AE000B82008E048F6E02005E05043A2EB212191
:103AF000B0FBF1F080B227B1810821818001E0752F
:103B000002E0208184F817C00CA8CDE900403146BE
:103B1000284601F07FFE060024D19DF8307005F1A3
:103B2000500127761C220D4602A804F028FE2089A9
:103B3000ADF81000E07D8DF81F006089ADF812002F
:103B400060680390E068059020690690A08AADF84F
:103B50001C0000E006E08DF820701C2202A9284617
:103B600004F00DFE0DB03046F0BD38B5044600201F
:103B70000D468DF800006A4602212046FFF716F830
:103B80009DF800201AB1D4F84811296038BD6FF0B3
:103B90001D0038BD6FF06200704770B50C460546D9
:103BA0000021FFF78BFC002810D12846FFF7CFFE3D
:103BB00000280BD121462846FFF742FF002805D1F7
:103BC0002846BDE870400021FFF7B4B870BD002062
:103BD000012900D0001F7047002001220A707047A1
:103BE000002001220A707047F8B50546007C069E49
:103BF0001F46107011B16FF00900F8BD6A460A2126
:103C0000284602F035FD0028F7D19DF8000000F0AD
:103C1000070005281CD2DFE800F00307090B0D00A0
:103C2000002408E04B010020012404E0022402E00B
:103C3000032400E004246A468421284602F018FD8B
:103C40000028DAD19DF80010C90604D4002103E051
:103C50006FF00A00F8BD012131703C7085F8DA4040
:103C6000F8BD70B51D460446C2F34B420E2102F06A
:103C7000C8FC002807D1C5F34B422046BDE8704080
:103C80000C2102F0BEBC70BD38B5054600200C46C4
:103C90008DF800000122FF21284602F0A7FC50B950
:103CA0006A460421284602F0E3FC20B90022FF21E5
:103CB000284602F09BFC9DF800202260002A23D1B8
:103CC00001228021284602F091FC0122FF21284692
:103CD00002F08CFC00221146284602F087FC95F881
:103CE0003A219121284602F081FC01220021284638
:103CF00002F07CFC0022FF21284602F077FC002223
:103D00008021284602F072FC38BD6FF062007047D7
:103D100070B50E4605460122FF2102F067FC0446FD
:103D200032464021284602F06CFC04430022FF2169
:103D3000284602F05BFC204370BD70B50E46054678
:103D40000122FF2102F052FC04463246402128465F
:103D500002F099FC04430022FF21284602F046FCB1
:103D6000204370BD70B5CCB205460122FF2102F0A0
:103D70003DFC064622464221284602F037FC40EA36
:103D800006040022FF21284602F030FC204370BDCB
:103D9000F8B50D4606460122FF2102F027FC044635
:103DA0006A464221304602F063FC04430022FF21B0
:103DB000304602F01BFC9DF8001020432980F8BD1E
:103DC00000F059BC00F0AABC00F03DBB2DE9F04F5B
:103DD0004FF0000787B092465FEA01098346B84674
:103DE0003E463C463D4612D000215846FFF777FC40
:103DF00000280ED1002203215846FFF7B4F900280D
:103E000007D169465846FFF7C8FEC8B904E06FF00D
:103E1000030007B0BDE8F08F9DF8181061B9BDF838
:103E20000810BDF8142039448FB20399641C0E4465
:103E300008EB12211FFA81F86D1CEDB2322DE0D390
:103E4000BCB10028E5D14FEA08413804B1FBF4F1D8
:103E5000B6FBF4F3B0FBF4F001F5004109F50042C4
:103E6000090C4FEA124202D00AB1484504D300249B
:103E70000CE06FF00500CCE7B0FBF2F0B3FBF1F122
:103E8000C0F58030484300F50040040C012158463D
:103E9000CAF80040FFF723FC0028BAD12146584653
:103EA000FFF7DDFAB5E72DE9F0434FF0000689B0E2
:103EB00090460F008146344635461FD00021FFF75B
:103EC000F6F800281CD107AA00214846FFF772FB2C
:103ED000002815D1002211464846FEF7ECFD0028C7
:103EE0000ED1002203214846FFF73DF9002807D1F3
:103EF00069464846FFF751FE80B904E06FF00300C1
:103F000009B0BDE8F0839DF8181021B9BDF808107C
:103F1000641C31448EB26D1C322DE9DB1CB30028C9
:103F2000EED13004B0FBF4F007F5004700F5004097
:103F3000390CA1EB10404FF47A714843C8F80000E7
:103F4000C9F824004846D8F80010FFF7B0F8002858
:103F5000D6D19DF81C100029D2D00122002148465C
:103F6000FEF7A9FDCCE76FF00500C9E730B4FE4AC3
:103F7000FE4BFA24914201DD114605E0994201DA37
:103F8000194604E0002902DB91FBF4F103E091FB08
:103F9000F4F101F580518AB230BC282102F031BB26
:103FA00038B50C4640F2FF756A46282102F06BFBDB
:103FB00000280DD1BDF80010C1F30B02ADF80020B0
:103FC000AA424FF0FA0101DDA2F580524A43226075
:103FD00038BD38B50446072100F06EFC002810D12A
:103FE00069462046FEF72FFE00280AD10098A060FF
:103FF000E1680D1829462046FFF759F8002800D13E
:10400000656238BD2DE9F043082589460026711EFA
:104010001960B2FBF5F1B2FBF5F705FB112C3C463C
:1040200014E00021025DBC420DD122FA0CF261467F
:1040300009E05FEAC27804D004FB0511012619608B
:1040400003E05208491CA942F3D3641C4C4501D239
:10405000002EE6D055E70146C54A8909012052F8ED
:104060002110002900D10020704770B50824B2FB50
:10407000F4F3B2FBF4F60546002004FB16228B4253
:1040800002D36FF0310070BDE95C012494402143FC
:10409000E95470BD2DE9F84F08268346B2FBF6F0CF
:1040A000B2FBF6FC4FF0000E06FB10200A9F744690
:1040B000754600908C4501D36FF0310E4FF000082B
:1040C0004FF00109ACF1010AC3F8008017E01BF8BA
:1040D0000410002010E0CA070CD01A68521C1A60A5
:1040E00045B987F80090022C03D2042801D287F842
:1040F000008001254908401CB042ECD9641C54459D
:10410000E5D91BF80C20002005E0D10702D0196882
:10411000491C1960401C00998842F6D97046BDE8D8
:10412000F88F06230A46B02102F042BA06230A4657
:10413000B02102F04CBA2DE9FF4F83B00025DDE934
:10414000127B98468A46DDF840902C466FF0310687
:10415000009718E06B463A4649460598FFF752FF2C
:104160000098411C05D011990844FFF774FF504591
:1041700001D0354609E0009F49463A464046FFF7E0
:1041800074FF641C7F1C5C45E4D314980760BDB9C0
:1041900041460398FFF7C5FF050011D101A9039817
:1041A000FFF7C4FF0546002101A807E018F8012029
:1041B000435C9A4201D0354602E0491C4945F5D39B
:1041C000284626E670B50E4688B0054690F8304180
:1041D000C022012102F00AFA002823D169462846AC
:1041E000FFF7DBFC00281DD10122FF21284602F049
:1041F000FDF9002816D13246B621284602F043FACE
:1042000000280FD10022FF21284602F0EFF90028F4
:1042100008D122460121284602F0E8F9002801D100
:1042200085F8304108B070BD2DE9FF4F81B0002006
:10423000DDE90EA9DDE910650F468DF800009B460B
:104240000122FF21019802F0D1F904460022114613
:10425000019802F0CBF940EA04080022FF210198FE
:1042600002F0C4F940EA08046FB12EB15246CB21E6
:10427000019802F0FDF90443A5B16A46EE210198C8
:1042800002F0F6F90DE02EB1CB21039A019802F06D
:10429000ADF9044335B15B468022EE21019802F06E
:1042A000C6F904430122FF21019802F09FF940EA78
:1042B000040501220021019802F098F940EA050462
:1042C0000022FF21019802F091F99DF8001020438F
:1042D00001F0EF0289F8002005B09BE510B541F030
:1042E00001020446002102F081F9002811D1204684
:1042F00000F078FA00280CD100212046FEF71AFDC4
:10430000002806D120460022BDE81040114602F0E8
:104310006DB910BD2DE9F04385B01D0091460E46E4
:1043200007464FF0000401D097F8304102220121E6
:1043300002F05CF94FF0000838B900213846FFF769
:10434000CDFF10B9B9F1010F18D086F80080002810
:1043500012D1002D10D022460121384602F046F934
:10436000002809D106E0000018CC07000030F8FF53
:104370000403002087F8304105B0C2E5012004A9FC
:10438000CDE90016CDE90280424601461346384683
:10439000FFF74AFFDBE72DE9F04385B04FF000045B
:1043A0001E0091460F46804625468DF8104001D0EC
:1043B00098F830410122114602F018F938B940212D
:1043C0004046FFF78BFF10B9B9F1010F0ED03D70D9
:1043D0000028D1D1002ECFD022460121404602F044
:1043E00005F90028C8D188F83041C5E7012004A9A3
:1043F00000970395CDE901102A4601461346404631
:10440000FFF712FFE4E72DE9F0411E461746054687
:1044100090F8304100233246FFF7BDFF002810D14D
:104420000023324639462846FFF774FF002808D19A
:1044300022460121284602F0D9F8002801D185F84A
:104440003041BDE8F0812DE9F74F06462C2090B0B1
:104450000022079208920D908DF838208DF83C20AC
:104460000C92B6F83C814FF0B40A4FF0030B1046A3
:104470004FF00609174633180021401C83F8241119
:104480004845F8D30122FF21304602F0AFF804007E
:104490007AD100224F21304602F0A8F80400F7D16B
:1044A0002C224E21304602F0A1F80400F0D1002267
:1044B000FF21304602F09AF80400E9D15246B621B5
:1044C000304602F093F80400E2D100228021304609
:1044D00002F08CF80400DBD100230FAA0EA93046AD
:1044E000FFF791FF0400D3D107A9CDF80090079002
:1044F000CDE903B1CDE901A006F592739A1DCDE98E
:10450000053201463046FFF716FE04003CD109A9EA
:104510003046079DFFF756FE040036D1BDF8241043
:10452000414532D9014603E03218401C82F824117B
:104530004845F9D300E06D1C0AEB0500FFF78BFD41
:1045400010B90D988542F6D301200D9007A8CDF83B
:104550000090CDE903B0CDE901A5DDE905320121E7
:104560003046FFF7E8FD04000ED109A93046079D4B
:10457000FFF728FE04007AD1BDF82410414508D980
:1045800001205F460C9004E030E000200D90002CEC
:104590006DD1BDF82410414559D20D980C905F465D
:1045A0004A460AA8059904F0EAF8BDF82410B1EBD0
:1045B000080000D5404283460020009008AB2A4600
:1045C00049460698FFF71EFD0898411C0FD050443D
:1045D000FFF741FD0D99884238D1089D49462A468A
:1045E0007F1C0598FFF741FD040003D03FE06FF00A
:1045F00031043CE030466D1C0599FFF792FD040044
:1046000035D109A93046FFF7DDFD04002FD1BDF8F3
:104610002410B1EB080000D5404241450DD9584562
:1046200014D90AA93046FFF77CFD04464A460AA978
:10463000059804F0A4F87F1E08E083464A460AA8BD
:10464000059904F09CF800980028B7D07CB911981F
:10465000076012990C980870012086F815011198CE
:10466000007886F813011298007886F8140113B0C8
:104670002046BDE8F08F2DE9F04791468A4686B086
:1046800005460024B42606274FF02C080122FF21FE
:1046900001F0ACFFB0B900224F21284601F0A6FF7F
:1046A00080B92C224E21284601F0A0FF50B90022EB
:1046B000FF21284601F09AFF20B93246B62128464C
:1046C00001F094FF002001462A18401C82F82411B2
:1046D000B842F9D3B9F1000F01D106E0641C3019DA
:1046E000FFF7B9FC08B94445F8D305A90097CDE90F
:1046F00003A1CDE9016405F592739A1D4946284648
:10470000FFF719FD002806D1012185F8151185F85C
:1047100013A185F8149106B0BDE8F0872DE9F041AA
:1047200086B0044600200E468DF8040094F815115A
:10473000062715464FF02C0801291FD002A9204654
:10474000FFF7F4FC002817D101A8009004AB424603
:10475000394602A8FFF79EFC00280DD1049931606C
:104760009DF804202A70012284F8152184F8131181
:104770009DF8041084F8141106B062E694F8131141
:10478000316094F814111170F6E730B587B0134614
:1047900004AD012205AC0095CDE9014203920A4621
:1047A0000021FFF741FD07B030BD7FB5144601255C
:1047B0008DE832000022134629460395FFF734FDA9
:1047C00004B070BDF0B500264D08324606E08B1AE5
:1047D0005B1E845CC75C8754C454521CAA42F6D347
:1047E0003046F0BDF8B5064600208DF800000446BE
:1047F0004FF4FA6569463046FFF702F9002807D101
:104800009DF80010012903D0641CAC4201D3C01FE5
:10481000F8BD304601F04DFFECE74000801CC0B20F
:104820007047FF2101EB5000C0B2704702460020E4
:104830004FF0804100E089089142FCD808E043181D
:10484000934203D8D21A01EB500000E040088908D7
:104850000029F4D170474FF48032904201D2914246
:1048600002D34FF6FF707047404301FB0100DDE7C4
:10487000F8B507460022832101F0B8FE040010D1EC
:1048800000254FF4FA666A468321384601F0F0FEAF
:1048900004469DF8000020430AD0B54201D36FF0D2
:1048A000060401228321384601F0A0FE2043F8BD12
:1048B0006D1CB542E7D3F2E72DE9F04F91B0002728
:1048C00004464FF4C8500A970C9709970B970F901E
:1048D00094F8F0500E46BB46BA46072D7ED0012212
:1048E0008021204601F082FE07460122FF2120465A
:1048F00001F07CFE40EA070800221146204601F044
:1049000075FE40EA08070622FF21204601F06EFEF0
:1049100040EA07086A468321204601F0A9FE40EAE2
:1049200008079DF80000832140F00402204601F0B2
:104930005DFE40EA07080722FF21204601F056FEEF
:1049400040EA080701228121204601F04FFE40EA9B
:104950000708204601F0ADFE40EA08090122802147
:10496000204601F043FE40EA0907F00755D0E8076A
:1049700053D16B229421204601F038FE40EA07080B
:104980002046FFF775FF40EA080701AA902120465C
:1049900001F084FE40EA070801982422C0F30621B2
:1049A000C0F3C03B0C919421204601F01FFE40EA69
:1049B00008072046FFF75CFF40EA070801AA90219C
:1049C000204601F06BFE40EA08070198010E8DF8C1
:1049D0001C10010C8DF81D10010A00E0FEE18DF89D
:1049E0001E108DF81F0025229421204601F0FEFDA7
:1049F00040EA07082046FFF73BFF40EA080901AA02
:104A00009021204601F04AFE40EA09070198010E74
:104A10008DF82010000C8DF82100B0077ED5A80776
:104A20007CD402229421204601F0E0FD40EA0708F0
:104A30002046FFF71DFF40EA08070DAA90212046F7
:104A400001F016FE40EA07087B229421204601F07F
:104A5000CDFD40EA08072046FFF70AFF40EA0708B5
:104A60000EAA9021204601F003FE40EA08077722B3
:104A70009421204601F0BAFD40EA07082046FFF7DE
:104A8000F7FE40EA080701AA9021204601F006FE41
:104A900040EA070801987822410E8DF80810C0F30B
:104AA00086418DF80910C0F3C6218DF80A10C0F3B5
:104AB00006110007400E8DF80B108DF800009421B0
:104AC000204601F093FD40EA08092046FFF7D0FE9A
:104AD00040EA090701AA9021204601F0DFFD40EAE3
:104AE00007089DF80010019801EB50718DF80C102B
:104AF000C0F386518DF80D10C0F3C6318DF80E103D
:104B0000C0F306218DF80F10C0F34601C007400E18
:104B10008DF810108DF80000792200E055E0942106
:104B2000204601F063FD40EA08072046FFF7A0FE9B
:104B300040EA070801AA9021204601F0AFFD40EAB3
:104B400008099DF8001001987A2201EB90618DF818
:104B50001110C0F3C6418DF81210C0F306318DF864
:104B60001310C0F346118DF81410C006400E8DF8D6
:104B700000009421204601F039FD40EA0907204653
:104B8000FFF776FE40EA070801AA9021204601F0CF
:104B900085FD40EA08079DF80010019801EB90712F
:104BA0008DF81510C0F3C6518DF81610C0F30641EC
:104BB0008DF81710C0F346218DF81810C0F3860049
:104BC0008DF8190000208DF81A0070077ED568074F
:104BD0007CD47B229421204601F008FD40EA07089E
:104BE0002046FFF745FE40EA080709AA9021204623
:104BF00001F054FD40EA07087C229421204601F090
:104C0000F5FC40EA08072046FFF732FE40EA0708B5
:104C10000AAA9021204601F041FD40EA08077322CC
:104C20009421204601F0E2FC40EA07082046FFF705
:104C30001FFE40EA080701AA9021204601F02EFD40
:104C400040EA07080198742200064FEA104A9421AE
:104C5000204601F0CBFC40EA08092046FFF708FE99
:104C600040EA090701AA9021204601F017FD0199A9
:104C700040EA07084AEA11600B9075229421204609
:104C800001F0B4FC40EA08092046FFF7F1FD40EAD4
:104C9000090701AA9021204601F000FD40EA07081B
:104CA0000198762200064FEA10499421204601F02F
:104CB0009DFC40EA08072046FFF7DAFD40EA0708B6
:104CC00001AA9021204601F0E9FC00E004E00199EE
:104CD00040EA080749EA116A00228121204601F0D2
:104CE00085FC40EA07080622FF21204601F07EFCF1
:104CF00040EA08096A468321204601F0B9FC40EAEF
:104D000009079DF80000832100F0FB02204601F016
:104D10006DFC40EA07080122FF21204601F066FCF5
:104D200040EA080701220021204601F05FFC40EA2A
:104D300007090022FF21204601F058FC40EA09083B
:104D400000228021204601F051FC50EA080745D19D
:104D5000072D43D0F0070FD0E8070DD10C9884F849
:104D6000130184F814B1002007A923180A5C401C21
:104D700083F82A210628F8DBB0070ED5A8070CD443
:104D80009DF8340084F8F1009DF8380084F8F200B2
:104D900004F1F30002A903F089FC700719D5680734
:104DA00017D40998C4F818010A98C4F81C010B9884
:104DB0004002C4F820010020BAF1000F08D00F997A
:104DC000AAEB01004FF47A1148430014404200B2AC
:104DD000E06035438DF8005084F8F05011B038464B
:104DE000BDE8F08F01EBC10140F277600902A1FB41
:104DF000000170470022114648B1401E02E0400801
:104E0000491C89B2020AFAD161F31F2082B210460E
:104E10007047C1B2000A8140481C704700B50B467C
:104E20001146FFF7DFFF4FF47A7100F5FA70B0FB1F
:104E3000F1F04B4303EB5001B1FBF0F000BD00B5C6
:104E40000B461146FFF7CEFF4FF47A7100F5FA706A
:104E5000B0FBF1F0434303F5FA73B3FBF1F000BD8F
:104E60002DE9F041002486B0174680468DF80840B1
:104E70002546ADF80440264641B1012906D0022955
:104E800004D0032912D0042929D05DE06A4600210C
:104E90004046FDF70CFE040005D102AA462140461B
:104EA00001F0E6FB04469DF8080015E06A46002183
:104EB0004046FDF7FCFD040046D16A46002140460D
:104EC000FDF7F5FD040005D101AA5121404601F08E
:104ED000DAFB0446BDF80400FFF79BFF2DE003A9B1
:104EE0004046FEF77DFB9DF80F00002590B16A4615
:104EF00000214046FDF7DBFD04001DD101AA512130
:104F0000404601F0C0FB0446BDF80400FFF781FFF6
:104F100085B28CB96A4601214046FDF7C8FD040000
:104F20000AD105AA7121404601F0ADFB0446BDF847
:104F30001400FFF76EFF86B2701B81B29DF800204F
:104F40004046FFF77CFF05463D6006B02046BDE8C1
:104F5000F0812DE9FF411646054661B101290AD0CD
:104F6000022908D0032922D004293ED06FF003047F
:104F7000204604B0EBE76A460021FDF798FD0400E7
:104F8000F6D19DF8002031462846FFF747FF80B252
:104F9000B0F5807F01D9FF2201E0401EC2B2A5F822
:104FA000D8204621284601F021FB0446E0E76A4666
:104FB0000021FDF77CFD04469DF80020314628467F
:104FC000FFF72CFF80B2FFF715FFADF80400A5F83E
:104FD000D800002CCCD102465121284601F011FB0B
:104FE0000400C5D1C5F8E460C2E702A9FEF7F8FAEB
:104FF0009DF80B00002798B16A4600212846FDF76E
:1050000056FD0400B4D101AA5121284601F03BFB12
:105010000446BDF80400FFF7FCFE87B2002CA7D1C0
:105020006A4601212846FDF742FD0400A0D19DF803
:10503000002031462846FFF7F1FE3844FFF7DAFE3C
:1050400002467121284601F0DCFA040090D1C5F82F
:10505000DC608DE72DE9FF41064600208DF80C004D
:1050600014460D46D0076FF003077CD125B1012D02
:105070000FD02DB111D0C2E00C2C74D3122C72D8E9
:105080000C2C13D00E2C13D0102C13D0122C13D0A8
:10509000B5E0082CF1D30E2CF1D8082C17D00A2C2F
:1050A00037D00C2C49D00E2C79D0A8E0182204E07F
:1050B000302202E0402200E050225721304601F029
:1050C00095FA08225621304601F090FA95E0102218
:1050D0004821304601F08AFA08224721304601F083
:1050E00085FA804602223221304601F07FFA40EAFA
:1050F00008080C223021304601F078FA40EA08080E
:105100000122FF21304601F071FA40EA08083022FE
:1051100036E028224821304601F068FA082247216B
:10512000304601F063FA804603223221304601F016
:105130005DFA40EA0808092244E038224821304656
:1051400001F054FA08224721304601F04FFA804618
:1051500003223221304601F049FA40EA08080822C9
:105160003021304600E051E001F040FA40EA080802
:105170000122FF21304601F039FA40EA08082022D6
:105180003021304601F032FA40EA08080022FF21BF
:10519000304601F02BFA40EA08002EE0FFE74822F3
:1051A0001146304601F022FA08224721304601F02C
:1051B0001DFA804603223221304601F017FA40EAF8
:1051C000080807223021304601F010FA40EA0808AA
:1051D0000122FF21304601F009FA40EA08082022A6
:1051E0003021304601F002FA40EA08080022FF218F
:1051F000304601F0FBF940EA0800002807D12046BC
:10520000FFF70FFB80461DB1012D21D03846B0E6D7
:1052100001AA03213046FFF723FEB0B902AA0221FA
:105220003046FFF71DFE80B942465021304601F05E
:10523000DDF950B903213046019AFFF78AFE20B903
:1052400002213046029AFFF784FE86F8E84012E019
:105250006A4604213046FFF703FE50B942467021EA
:10526000304601F0C3F920B904213046009AFFF717
:1052700070FE86F8E0400028C9D130467169FDF71C
:1052800018FC0028C3D10123002203A93046FFF7F0
:1052900041F86EE638B5144621B1012905D06FF00A
:1052A00003010DE06A46502101E06A46702101F0D9
:1052B000DFF9010004D19DF80000FFF7AEFA20707D
:1052C000084638BD2DE9FF4107464FF4FA600290C9
:1052D0000020039044F620600E466FF003058142E3
:1052E0004FD3A6F6363469463846FEF779F90028DA
:1052F00046D19DF8001029B99DF8011011B99DF80B
:10530000021011B302AA02213846FFF7A9FD0028B6
:1053100036D19DF8001029B1029901F24E21A14227
:105320002FD2641A9DF8021031B1029901F2B22114
:10533000490007E0641A08E09DF8011029B10299BC
:1053400001F52571A142F5D31BE09DF8031061B171
:1053500003AA03213846FFF783FD039901F5257160
:10536000A1420ED2641A00280AD19DF80410002927
:1053700006D0A4F2262204213846FFF7EAFD7E611A
:10538000F7E52846F5E530B585B005464FF4FA60F7
:1053900002900020039040F6363008600C466946C3
:1053A0002846FEF71DF900284DD19DF8001029B9B7
:1053B0009DF8011011B99DF8021011B302AA022143
:1053C0002846FFF74DFD00283DD19DF8001029B17A
:1053D0000299226801F24E21114421609DF80210C9
:1053E00031B10299226801F2B22102EB410107E0DA
:1053F0009DF8011029B10299226801F52571114427
:1054000021609DF8031061B103AA03212846FFF72C
:1054100027FD0399226801F52571114421600028B8
:1054200011D19DF8041061B104AA04212846FFF7A8
:1054300017FD0499226801F22621114421600028F9
:1054400001D12168696105B030BDF8B5064600207C
:105450000D460446071F12E0641CFF2B05D0042BE9
:105460000CD8295D00206A4635E0295D641C61B1D5
:10547000012912D0022919D003291FD038462B5DEB
:10548000002B01D00028E7D0F8BD295D641C2A5DFF
:1054900002EB0121A6F8341106E0295D641C2A5DA7
:1054A00002EB0121A6F83611641CE8E7295D641CB3
:1054B0002A5D02EB0121A6F83811F5E7295D641C8D
:1054C0002A5D02EB0121A6F83C11EDE715F804C0B6
:1054D00002F800C0401C641C9842F7DB304601F023
:1054E00067F8CCE7F8B5064600200D461060144674
:1054F00069463046FEF70DF9002809D19DF80010E5
:10550000002905D0A98A326A51438031090A2160F5
:10551000F8BD38B51446CA6822606A46FFF7E2FF54
:10552000002803D12168009A1144216038BDF0B5EC
:105530000446DDE9060CB4F85451D4F8584100276C
:105540006C438034240ADDF814E0089E6C433D4629
:1055500052B1890201EB5201B1FBF2F101EB4101C1
:10556000494301F500410D0C03FB0EF303F5004325
:10557000190C00F50042120C0623D21CB2FBF3F208
:105580004943C2EBC202B2F5803F01D3F94808E0BB
:10559000C01CB0FBF3F0C0EBC00000F50040000CF5
:1055A0004043084400EB5C00B0FBFCF08003FE22AB
:1055B0007F30B0FBF2F068434FF47A7100F5FA7077
:1055C000B0FBF1F0000100F5FA70B0FBF1F54020FE
:1055D00004F12001B1FBF0F0FFF728F9844625B172
:1055E00004EB5500B0FBF5F000E00020FFF71EF9DA
:1055F000C6F800C0844500D930603846F0BD2DE9BA
:10560000FF4F87B00446006A06900E4608694FF4C3
:105610007A714843000C0290F0680490DFF858A3B8
:105620004FF4481705AA31462046FFF772FF06AA35
:1056300031462046FFF756FF80464FF47A710598B1
:10564000DDF818C0484300F50040050C0CFB01FCD8
:10565000BC4500D9BC46B8F1000073D1D4F8DC00D9
:10566000009094F8E07001463A462046FFF7D6FBDA
:10567000D4F8E4B0814694F8E82059462046FFF774
:10568000CDFB01460320082F00D1022049444143AD
:10569000C8024FF47A7100F5FA70B0FBF1F040F2F5
:1056A0007762504300F5FA70B0FBF1F9059880304D
:1056B000000A00FB09F180310F0A000205900DB1CC
:1056C0004FB109E00999C1F800A0C4F840A10A98B7
:1056D000002101609AE001274FF448700190029880
:1056E000A6490004B0FBF5F0884200D908464FF403
:1056F000167100FB01F807EB47008000FFF796F8F2
:105700004000029031899E48CCF1000241432804B8
:1057100000EB42004FF47A7C00F5FA70B0FBFCF22B
:105720004FF4FA7000EB0540B0FBFCF01202B2FB44
:10573000F0F0002800DA40420202307E18B14FF447
:1057400080350FE063E041F25C20B1FBF0F0C2F580
:105750008031414301F50041080C00F580304008DC
:105760004043850B4FF4487105FB01F000F5004004
:10577000000C08F500414043090C01FB0100FFF754
:1057800055F8000464213230B0FBF1F10298B1FB0E
:10579000F0F040F6B531484341F288310844490001
:1057A000B0FBF1F64FF47040864200D906460098EF
:1057B0004FF4C811584400F5FA70B0FBFCF001EB4F
:1057C0005001B1FBF0F0FFF731F8000200F5FA707C
:1057D000B0FBFCF0764340433044FFF727F84FF42A
:1057E0007A7148430FB1504500D950460999086075
:1057F000C4F840010A98019B03908DE80803DDE995
:1058000004212B462046FFF792FE804640460BB00F
:10581000BDE8F08F2DE9FF4F8BB04FF00009199DC7
:105820008DF800909A460646C8464F468DF804907B
:105830008DF808908DF80C90ADF81090C1F3C3046A
:10584000CDF81490BCB1052C15D0072C13D00C2C1E
:1058500011D00D2C0FD00E2C0DD00F2C0BD0002002
:1058600083466A4600213046FDF7A0F99DF80010F6
:10587000C9B110B11DE00120F2E705AB06AA304620
:105880001899FFF7BCFEA0B91899059807AA488196
:1058900000213046FDF796F9079921B1069A8A4210
:1058A00001D94FF0010920B902AA02213046FDF7C3
:1058B0007DF99DF8081011B338BB08AA02213046C3
:1058C000FDF780F980B90122FF21304600F08EFEFD
:1058D00050B904AAB621304600F0D5FE20B9002206
:1058E000FF21304600F082FEBDF810104902C6F8D4
:1058F0004811089A1AB1914201D94FF0010820B914
:1059000003AA03213046FDF751F99DF80C1091B11F
:1059100090B9BAF1000F12D00D980102B1FBFAF064
:10592000824609AA03213046FDF74CF9099911B1C5
:105930008A4500D2012720B12878D0B136E0002076
:10594000EEE7BBF1000F01D0FF201CE0012C19D0C5
:10595000022C17D0032C15D0062C16D0092C14D0ED
:10596000082C04D00A2C02D0B8F1000F0FD003206D
:1059700009E018E00000F0FFAE878F02666666005F
:105980009A9906000520287010E00420FBE7042CFB
:1059900000D00FB10220F6E7B9F1000F01D00120CD
:1059A000F1E70020287018990020488101AA012100
:1059B0003046FDF7FBF8002824D19DF8001011B106
:1059C0005FEA090100D0012186F82E10042C14D0C2
:1059D0009DF8041089B1002186F82F109DF8081059
:1059E00011B15FEA080100D0012186F830109DF85E
:1059F0000C1001B11FB1012102E00121ECE70021EF
:105A000086F831100FB003E72DE9F0410F46154637
:105A100004460221FEF750FF06000BD194F8F10076
:105A200058B194F8F200387004F1F30105F1400028
:105A300002F03CFE3046BDE8F0810020387085F869
:105A40004000F7E77CB50C460A46054601A9FFF77A
:105A5000DBFF00282BD19DF8040028B1222805D8AF
:105A6000202805D073A106E075A104E0272801D203
:105A700076A100E078A1204602F018FE7CA104F196
:105A8000200002F013FE04F16002C021284600F05D
:105A9000EFFD00280BD16A46C221284600F0E8FD40
:105AA000012104F8611F9DF80010090961707CBD97
:105AB00010B500240B460F282BD2DFE800F0080AAF
:105AC00010121416181A1C1E2022242628006AA15F
:105AD00000E06CA1184602F0E9FD204610BD71A15E
