:020000040800F2
:100000007007002091010008490C0008490A000807
:10001000450C00087D0400081315000800000000CE
:100020000000000000000000000000002D1000088B
:100030004D050008000000000910000841110008EB
:10004000AB010008AB010008AB010008AB010008E0
:10005000AB010008AB0100084F050008F5060008D9
:10006000050700080F07000819070008AB01000882
:10007000AB010008AB010008AB010008AB010008B0
:10008000AB010008AB010008AB010008AB010008A0
:10009000AB010008AB010008AB01000855070008E0
:1000A000AB010008AB010008AB010008AB01000880
:1000B00041120008AB010008AB010008AB010008C9
:1000C000AB010008AB010008AB010008AB01000860
:1000D000AB0100082D140008AB010008AB010008BB
:1000E00059050008AB010008AB01000800F002F858
:1000F00000F03FF80AA090E8000C82448344AAF183
:100100000107DA4501D100F034F8AFF2090EBAE880
:100110000F0013F0010F18BFFB1A43F0010318473B
:10012000A0210000C0210000103A24BF78C878C187
:10013000FAD8520724BF30C830C144BF04680C60ED
:10014000704700000023002400250026103A28BF35
:1001500078C1FBD8520728BF30C148BF0B60704739
:10016000642900F08B80002070471FB51FBD10B5BB
:1001700010BD00F051F91146FFF7F7FF01F0A4FBA5
:1001800000F06FF903B4FFF7F2FF03BC01F0F4F9DC
:100190000948804709480047FEE7FEE7FEE7FEE71B
:1001A000FEE7FEE7FEE7FEE7FEE7FEE70448054957
:1001B000054A064B7047000045110008ED00000895
:1001C00070010020700700207003002070030020E1
:1001D000704700000FB4044910B503AA029800F05C
:1001E00005F910BC5DF814FB180000200FB41CB515
:1001F000074B06AA7B4469460090059800F0DDF89D
:100200000020694600F0ECF81CBC5DF814FB00000F
:10021000E90100002DE9F0410E460446002020626D
:100220002046E168884730B3252805D0D4E901216C
:100230009047206A401CF2E7E16820460027884783
:10024000050018D0A5F14100192802D820354FF437
:1002500000673246294620462760FFF781FF40B1FC
:10026000012804D0F61D26F007060836D8E7361D0B
:10027000D6E72846DAE7206ABDE8F0812DE9F041AB
:100280000646002410687529314616A510D0AFF334
:100290000080002802DA404213A507E031688A078F
:1002A00001D512A502E0490704D511A5012401E0FA
:1002B000AFF3008000210A2206F1240709E0B0FB19
:1002C000F2FCB0FBF2F302FB1C003030785418460D
:1002D000491C0028F3D123462A463046BDE8F041A8
:1002E00000F00CB8000000002D0000002B00000002
:1002F0002000000070477047704770472DE9F047B5
:100300000D4699469246044600F124080168880685
:1003100004D5E06921F01001216000E00120A8422D
:1003200001DD471B00E00027A1697A1902EB0900F3
:10033000081AA0612078C00602D42046AFF30080DE
:10034000002608E0D4E901211AF806009047206A47
:10035000401C761C20624E45F4DB2078C0060AD58E
:100360002046AFF3008006E0D4E901213020904719
:10037000206A401C2062381EA7F10107F4DC07E068
:10038000D4E9012118F805009047206A401C20623A
:10039000281EA5F10105F3DC2046AFF3008020788C
:1003A000000602D50220BDE8F0870120FBE700002F
:1003B00001694A1C02610878704700B58FB0CDE929
:1003C00001310021059105497944CDE90310114619
:1003D0006846FFF71FFF0FB000BD0000E5FFFFFFFD
:1003E0000A6802F8010B0A6070470000074B70B5FD
:1003F0000D467B44FFF7E1FF0446284600F008F86D
:1004000010B14FF0FF3070BD204670BDB714000032
:10041000007B00F080007047754600F02BF8AE4678
:1004200005006946534620F00700854618B020B500
:10043000FFF7BCFEBDE820404FF000064FF000077C
:100440004FF000084FF0000B21F00701AC46ACE87C
:10045000C009ACE8C009ACE8C009ACE8C0098D46E9
:10046000704710B50446AFF300802046BDE8104049
:10047000FFF788BE004870471001002000BFFEE76C
:1004800010B504460F2C5DD2DFE804F05C080E14B2
:100490001A20262C32383E444A5056004FF4A071A0
:1004A000294800F06EFF4DE04FF49671264800F0A9
:1004B00068FF47E04FF4A071234800F062FF41E07D
:1004C0004FF4A071204800F05CFF3BE04FF49171C5
:1004D0001D4800F056FF35E04FF485711A4800F0D2
:1004E00050FF2FE04FF48E71174800F04AFF29E0CB
:1004F0004FF48C71144800F044FF23E04FF48C71EA
:10050000114800F03EFF1DE04FF48C710E4800F0E2
:1005100038FF17E04FF48C710B4800F032FF11E008
:100520004FF48C71084800F02CFF0BE04FF49671EB
:10053000054800F026FF05E04FF48E71024800F0F8
:1005400020FF00BF00BF10BD002C0140704710B558
:10055000012000F05FF910BD10B54FF4004000F02D
:100560005FF918B14FF4004000F054F94FF4806087
:1005700000F056F918B14FF4806000F04BF94FF4D9
:10058000006000F04DF900287BD04FF4006000F0CF
:1005900041F94FF40061524800F04BFA50B951480C
:1005A0000068032806D100204F490860FF214F480A
:1005B00000F0E7FE4FF40061494800F03AFA58B9FC
:1005C00048480068012807D10020474908604FF4D7
:1005D0009371464800F0D5FE4FF40061404800F0AA
:1005E00028FA50B93F480068022806D100203E4949
:1005F000086089153D4800F0C4FE4FF4006138489A
:1006000000F017FA50B937480068042806D10020D6
:1006100035490860F021354800F0B3FE4FF4006121
:100620002F4800F006FA50B92E480068052806D178
:1006300000202D490860EF212C4800F0A2FE4FF465
:100640000061274800F0F5F950B9264800680628EF
:1006500006D1002024490860E621244800F091FEDC
:100660004FF400611E4800F0E4F950B91D480068DD
:10067000072806D100201C490860E1211B4800F032
:1006800080FE4FF4805000F0CBF838B34FF4805028
:1006900000F0C0F84FF48051154800F0CAF958B97D
:1006A00010480068072807D101200F4908604FF45F
:1006B00082710E4800F065FE4FF480510C4800F046
:1006C000B8F958B907480068062807D1012006493B
:1006D00008604FF48271054800F053FE10BD000021
:1006E000000C01402C000020B4012242002C0140EB
:1006F0000008014010B50A2000F064FF022000F05D
:1007000089F810BD10B5042000F084F810BD10B5B4
:10071000082000F07FF810BD10B5102000F07AF826
:100720001021084800F085F950B9074800680D28E5
:1007300006D1002005490860F621054800F021FE99
:1007400010BD0000000C01402C000020B40122422A
:10075000002C014010B5402000F062F810B140209C
:1007600000F058F84FF4007000F05AF8002836D026
:100770004FF4007000F04EF84FF40071214800F083
:1007800058F950B920480068092806D100201F49AF
:100790000860F5211E4800F0F4FD4FF4007119487F
:1007A00000F047F950B918480068082806D1002021
:1007B00016490860FA21164800F0E3FD4FF4007175
:1007C000104800F036F950B90F4800680A2806D1E1
:1007D00000200E490860F5210D4800F0D2FD2020D0
:1007E00000F01EF828B1202000F014F80A2000F0D4
:1007F000E9FE802000F014F810B1802000F00AF823
:1008000010BD0000000C01402C000020B401224269
:10081000002C0140014908607047000014040140A9
:10082000014600200022074B1B6803EA0102054B2A
:1008300014331B680B4013B10AB1012000E0002003
:100840007047000000040140002123498279002AFA
:100850003AD00A46126803689A430B461A600A1D8A
:10086000126803689A430B1D1A60027911440A68E2
:1008700003681A430A60184A0832126803689A43E8
:10088000154B08331A601A1D126803689A43124BFD
:100890000C331A604279102A0ED11A1F12680368AD
:1008A0001A430D4B08331A601A1D126803681A4365
:1008B000094B0C331A600DE00749427911440A686C
:1008C00003681A430A6005E0027911440A68036864
:1008D0009A430A60704700000004014030B50022CE
:1008E0008B071C0F0F2303FA04F20B4B8C1053F8E9
:1008F00024309343084C8D1044F8253023468C1047
:1009000053F824308C07240F00FA04F42343024CDC
:100910008D1044F8253030BD080001402DE9F0412C
:10092000024600250026002000230024002791F81D
:1009300003C00CF00F0591F803C00CF0100CBCF1D3
:10094000000F03D091F802C04CEA050591F800C0F1
:10095000BCF1000F31D0146800202BE04FF0010CE7
:100960000CFA00F3B1F800C00CEA03069E4220D155
:1009700083004FF00F0C0CFA03F7BC4305FA03FC9D
:100980004CEA040491F803C0BCF1280F06D14FF0E3
:10099000010C0CFA00FCC2F814C00AE091F803C084
:1009A000BCF1480F05D14FF0010C0CFA00FCC2F865
:1009B00010C0401C0828D1D31460B1F800C0BCF1AD
:1009C000FF0F34DD546800202EE000F1080C4FF0DA
:1009D000010808FA0CF3B1F800C00CEA03069E42C5
:1009E00021D183004FF00F0C0CFA03F7BC4305FA3A
:1009F00003FC4CEA040491F803C0BCF1280F05D1B4
:100A000000F1080C08FA0CF8C2F8148091F803C041
:100A1000BCF1480F07D100F1080C4FF0010808FAAB
:100A20000CF8C2F81080401C0828CED35460BDE8F2
:100A3000F0810246002093680B400BB1012000E0DA
:100A4000002070470161704700BFFEE708B5012133
:100A5000142000F0DBFA0120ADF8000048208DF8EA
:100A6000030069461048FFF759FF0220ADF8000067
:100A700048208DF8030069460B48FFF74FFF04201C
:100A8000ADF8000048208DF8030069460648FFF7DE
:100A900045FF0820ADF8000048208DF803006946A6
:100AA0000148FFF73BFF08BD0008014010B50446B0
:100AB00014B101202B4908702A480078002835D04D
:100AC00001212948FFF7B5FF70B102212648FFF741
:100AD000B0FF48B104212448FFF7ABFF20B1082143
:100AE0002148FFF7A6FF08BB0A2000F06BFD00209D
:100AF0001C49087001211C48FFF79BFF08B9012021
:100B000010BD02211848FFF794FF08B90220F7E74B
:100B100004211548FFF78DFF08B90320F0E70821ED
:100B20001148FFF786FFD8B90420E9E701210E48F4
:100B3000FFF77FFF012813D102210B48FFF779FF50
:100B400001280DD104210848FFF773FF012807D1C0
:100B500008210548FFF76DFF012801D10149087000
:100B60000020CDE7300000200008014010B52848E3
:100B700028A102682848FFF739FB274A06213220BE
:100B800000F0CAF901212548FFF753FF58B9204862
:100B90000068012807D122A20321002000F0BCF93F
:100BA000012000F0D1FE80211F48FFF742FF58B915
:100BB00017480068052807D11CA20321002000F077
:100BC000ABF9032000F0C0FE4FF400511348FFF7CB
:100BD00030FF58B90E480068092807D115A2032133
:100BE000002000F099F9052000F0AEFE08210B4826
:100BF000FFF71FFF58B9064800680D2807D10FA25C
:100C00000321002000F088F9082000F09DFE10BDAF
:100C10002C0000202564000006010020000C01408B
:100C200041706F696E7400000008014042706F6986
:100C30006E74000043706F696E74000044706F69D9
:100C40006E74000000BFFEE77047000070B5002121
:100C500000230F22C47804B3154C246804F4E06424
:100C6000C4F5E064210AC1F10403CA40447804FADF
:100C700003F184781440214309010E4C0678A155F4
:100C8000047804F01F050124AC4005786D11AD0017
:100C900005F1E025C5F8004109E0047804F01F05DE
:100CA0000124AC40044D0678761145F8264070BD0D
:100CB0000CED00E000E400E080E100E002490143C7
:100CC000024A1160704700000000FA050CED00E0D8
:100CD00070B50646002415E004F1B001C8B200F07A
:100CE00073F9012000F070F9102000F06DF9002573
:100CF00004E0304600F078F9681CC5B2802DF8DBBE
:100D0000601CC4B2082CE7DB70BD000008B50121EF
:100D1000082000F07BF94FF48050ADF8000010205F
:100D20008DF8030003208DF8020069460D48FFF797
:100D3000F5FD4FF480510B48FFF784FE4FF400405F
:100D4000ADF8000010208DF8030003208DF802009C
:100D500069460448FFF7E2FD4FF400410148FFF700
:100D600071FE08BD000C014010B501200849086063
:100D70000849C1F8B00100F04BFC002004490860AC
:100D8000012000F045FC00200249C1F8B00110BD6F
:100D9000BC8121420080214210B500200849086032
:100DA0000849C1F8BC01012000F032FC01200449CF
:100DB00008600449C1F8BC0100F02AFC10BD000025
:100DC000B08121420080214210B54FF4FA7000F04A
:100DD000F9FBAE2000F0F8F8002000F0F5F8102044
:100DE00000F0F2F8402000F0EFF8812000F0ECF87D
:100DF000CF2000F0E9F8A12000F0E6F8C82000F0CC
:100E0000E3F8A62000F0E0F8A82000F0DDF83F208D
:100E100000F0DAF8D32000F0D7F8002000F0D4F882
:100E2000D52000F0D1F8802000F0CEF8D92000F0D5
:100E3000CBF8F12000F0C8F8DA2000F0C5F8122055
:100E400000F0C2F8DB2000F0BFF8402000F0BCF852
:100E5000202000F0B9F8022000F0B6F88D2000F054
:100E6000B3F8142000F0B0F8A42000F0ADF8A620EC
:100E700000F0AAF8AF2000F0A7F80020FFF728FF45
:100E80000021084600F08CF800221146104600F0C0
:100E900019F801220021102000F014F8022200218C
:100EA000202000F00FF803220021302000F00AF883
:100EB00002A20621002000F02FF810BD706F696EAD
:100EC000743A00002DE9F04180460E461746002492
:100ED0007D013146404600F063F800BF06E00D4951
:100EE000485D00F081F86D1C601CC4B2102CF6DB6C
:100EF000701CC1B2404600F053F8002406E00549DA
:100F0000485D00F071F86D1C601CC4B2102CF6DB5B
:100F1000BDE8F081E81900082DE9F04706460F46C4
:100F2000904600250024A14631E018F80900203839
:100F3000C5B2782E02DD0026781CC7B2394630468D
:100F400000F02EF8002407E004EB0511134A505C72
:100F500000F04AF8601CC4B2082CF5DB781CC1B262
:100F6000304600F01DF8002408E004EB05110831BC
:100F70000A4A505C00F038F8601CC4B2082CF4DB5C
:100F800006F10800C6B209F1010000F0FF0918F8E7
:100F900009000028C9D1BDE8F0870000D01C000876
:100FA00070B504460D4605F1B001C8B200F00CF86A
:100FB000102141EA141000F007F804F00F0141F08D
:100FC000010000F001F870BD10B50446FFF7CCFE3B
:100FD000782000F0A1FA002000F09EFA204600F0F0
:100FE0009BFAFFF7D9FE10BD10B50446FFF7BCFE13
:100FF000782000F091FA402000F08EFA204600F0B0
:101000008BFAFFF7C9FE10BD7047000029B1064AF0
:1010100092690243044B9A6104E0034A9269824355
:10102000014B9A617047000000100240704710B5F4
:1010300000F002F810BD00000CB5002001900090F7
:101040003348006840F480303149086000BF3048C0
:10105000006800F4003000900198401C0190009856
:1010600018B90198B0F5A06FF1D12948006800F4D3
:10107000003010B10120009001E0002000900098A5
:10108000012843D12348006840F01000214908603E
:101090000846006820F0030008600846006840F039
:1010A000020008601A4840681949486008464068CC
:1010B00048600846406840F48060486008464068E0
:1010C00020F47C1048600846406840F4E81048600E
:1010D0000846006840F08070086000BF0C48006857
:1010E00000F000700028F9D00948406820F00300A3
:1010F000074948600846406840F00200486000BF69
:101100000348406800F00C000828F9D10CBD00002D
:101110000010024000200240042808D14FF0E021D6
:10112000096941F004014FF0E022116107E04FF03E
:10113000E021096921F004014FF0E02211617047BC
:101140007047000010B51348006840F001001149D5
:10115000086008464068104908400E494860084643
:1011600000680E4908400B4908600846006820F4F2
:10117000802008600846406820F4FE0048604FF474
:101180001F008860FFF753FF4FF0006004490860BC
:1011900010BD0000001002400000FFF8FFFFF6FE47
:1011A00008ED00E030B589B005460C460121C802C3
:1011B000FFF72CFF01210420FFF728FF4FF4807078
:1011C000ADF8200018208DF8230003208DF82200B0
:1011D00008A91948FFF7A2FBADF81850ADF8144064
:1011E0000020ADF81A00ADF8160005A9134800F06C
:1011F000CBF87020ADF804000120ADF80600002007
:10120000ADF80A000220ADF80C0001A90B4800F06F
:1012100063F80121094800F046F80821074800F06A
:10122000A7F80121054800F023F80121034800F048
:101230002EF809B030BD000000080140002C01402C
:1012400010B50121880700F03DF801280BD10121DC
:10125000800700F019F801210348FFF7EAFB10B9F5
:1012600002A0FEF7B7FF10BD000C014030636D0017
:1012700021B1028842F08002028004E002884FF629
:101280007F731A4002807047CA430282704721B1BF
:10129000028842F00102028004E002884FF6FE73E9
:1012A0001A400280704731B1B0F8442042F4004245
:1012B000A0F8442005E0B0F84420C2F30E02A0F8E4
:1012C0004420704702460020138A0B400BB10120D6
:1012D00000E000207047000070B5002400220023C9
:1012E000058C4FF6FE7635400584028C8388048B8E
:1012F0004FF68F752C40B51E2C400D882C43751E63
:101300002A400D892A434D882A43144DA8420BD008
:10131000134DA84208D0134DA84205D0124DA84243
:1013200002D0124DA84213D14FF6F7752A404D89CD
:101330002A434FF6FB752A408D882A434FF6FF65F6
:101340002B404FF6FF552B408D892B43CD892B43E6
:1013500083800483CD888586028470BD002C014083
:101360000034014000400140004401400048014079
:101370000A460021018B4FF6F77319401143018390
:101380007047818670470000002202881D4B9842FA
:101390000ED01D4B98420BD0B0F1804F08D01B4BA4
:1013A000984205D01A4B984202D01A4B984204D169
:1013B0004FF68F731A404B881A43174B984207D049
:1013C000164B984204D04FF6FF431A40CB881A437D
:1013D00002808B8883850B8803850A4B98420BD04B
:1013E000094B984208D00E4B984205D00D4B9842BD
:1013F00002D00D4B984201D10B7A038601238382E0
:1014000070470000002C01400034014000040040FF
:1014100000080040000C0040001000400014004094
:1014200000400140004401400048014010B540F236
:1014300025511D4800F03EF810B31B4800F064F839
:10144000C4B21A48008800F40040C8B917480088A0
:1014500000F4804060B10A2C03D0002013490880BA
:1014600020E01248008840F400401049088019E04C
:101470000D2C06D10D48008840F480400B490880AF
:1014800010E00A480088C0F30D0009490C540748D1
:101490000088401C0549088008460088C72801DDEF
:1014A0000020088010BD0000003801401C00002012
:1014B0003400002070B502460024002300250020DF
:1014C00040F66A16B14200D100BFC1F3421501F0E7
:1014D0001F03012606FA03F3012D02D1968933403A
:1014E00006E0022D02D1168A334001E0968A33408D
:1014F0000C12012606FA04F41688344013B10CB11C
:10150000012000E0002070BD01468888C0F308007B
:10151000704700BFFEE7000070B50446002517E0E5
:1015200004F0800018B101201149086002E0002099
:101530000F49086001200E490C39086000F068F876
:1015400000200C49C1F8B0016006040E681CC5B249
:10155000082DE5DB0120064908600649C1F8B00105
:1015600000F056F8002002490C39086070BD0000F8
:10157000BC81214200802142014600BF704700002B
:1015800010B56FF00400FFF7C7FD0A4800680A496C
:10159000B0FBF1F0094908700846007800EB400103
:1015A000C1EBC0104FF6FF7101EAC000044908808A
:1015B00010BD00000000002000127A00140000207E
:1015C000160000200146114A12884A434FF0E023DA
:1015D0005A6100229A611A46126942F001021A61A8
:1015E00000BF4FF0E022106900F001021AB100F4D0
:1015F0008032002AF5D04FF0E022126922F0010279
:101600004FF0E0231A6100229A6170471600002013
:101610000146114A12784A434FF0E0235A610022F2
:101620009A611A46126942F001021A6100BF4FF036
:10163000E022106900F001021AB100F48032002AA1
:10164000F5D04FF0E022126922F001024FF0E023C2
:101650001A6100229A617047140000200EB5012122
:101660000846FFF7D3FCFFF7F1F905210220FFF749
:1016700035F92020019000208DF808000C208DF80D
:10168000090001208DF80A0001A8FFF7DDF80B2101
:101690000120FFF723F94FF40060019000208DF83E
:1016A00008000C208DF8090001208DF80A0001A81F
:1016B000FFF7CAF80F210020FFF710F94FF40040A0
:1016C000019000208DF808000C208DF80900012001
:1016D0008DF80A0001A8FFF7B7F803210120FFF7F2
:1016E000FDF80820019000208DF808000C208DF8EE
:1016F000090001208DF80A0001A8FFF7A5F80021D4
:101700000120FFF7EBF80120019000208DF8080080
:101710000C208DF8090001208DF80A0001A8FFF7C0
:1017200093F809210120FFF7D9F84FF400700190D8
:1017300000208DF808000C208DF8090001208DF89C
:101740000A0001A8FFF780F807210020FFF7C6F87C
:101750008020019000208DF808000C208DF80900F1
:1017600001208DF80A0001A8FFF76EF8062101207C
:10177000FFF7B4F84020019000208DF808000C20FD
:101780008DF8090001208DF80A0001A8FFF75CF828
:101790000C210020FFF7A2F84FF4805001900020A8
:1017A0008DF808000C208DF8090001208DF80A0042
:1017B00001A8FFF749F803210120FFF78FF8402027
:1017C000019000208DF808000C208DF80900012000
:1017D0008DF80A0001A8FFF737F804210120FFF770
:1017E0007DF81020019000208DF808000C208DF865
:1017F000090001208DF80A0001A8FFF725F806204E
:101800008DF8000002208DF801008DF80200012003
:101810008DF803006846FFF719FA08208DF80000DC
:1018200002208DF801008DF8020001208DF80300E0
:101830006846FFF70BFA09208DF8000002208DF8AA
:1018400001008DF8020001208DF803006846FFF7C3
:10185000FDF90A208DF8000002208DF801008DF8B6
:10186000020001208DF803006846FFF7EFF917200A
:101870008DF8000002208DF8010001208DF8020093
:101880008DF803006846FFF7E1F928208DF8000085
:1018900002208DF8010000208DF8020001208DF853
:1018A00003006846FFF7D2F90EBD000000BF054AED
:1018B000128802F04002002AF9D0C2B2014B1B1D6F
:1018C0001A8070470038014000244FF4A060FFF7F1
:1018D000F5F9FFF755FEFFF7B9F8FFF7BFFE002156
:1018E00040F28330FFF75EFC00F048F8FFF70EFA95
:1018F000FFF76AFA25E0FFF739F90020FFF7D6F87D
:101900000446012C06D0022C0AD0032C0ED0042C45
:1019100012D110E00B480068401E0A4908600FE031
:1019200008480068401C0749086009E0054800684D
:10193000FEF7A6FD04E003E00A20FFF743FE00BF28
:1019400000BFD8E72C00002070B50546002411E048
:1019500021467820FFF724FBFF20FFF745FBFF20FF
:10196000FFF742FBFF20FFF73FFBFF20FFF73CFBA9
:10197000601CC4B2AC42EBDB70BD000008B50121B5
:101980001C20FFF743FB4FF48750ADF80000042004
:101990008DF8030069461148FEF7C0FF42F6DB7080
:1019A000ADF8000004208DF8030069460C48FEF7EE
:1019B000B5FF4FF40050ADF8000010208DF8030083
:1019C00003208DF8020069460648FEF7A7FF4FF492
:1019D00000510448FFF736F808BD00000008014038
:1019E000000C014000100140000000E0000000FF7A
:1019F0000000002040800000080403000040807FB9
:101A00000000000000010E000808F8080800004867
:101A1000C8880AFE8888C0008181FF818100000893
:101A20000CC7C2FF01030C080008080808E8AAAEAA
:101A3000A8E80808080000000000FE02023A2A2A6E
:101A40002A3A4282FE0000000080F8184849EA4C19
:101A500048E8484808000000C03F0000008C5525B9
:101A6000558D0000000000002010F80426A021235E
:101A7000263C202020A020000000FF000083868458
:101A80009880809884838000003EA2A2A2BEA2E239
:101A9000A2A2BEA2A23E000080808080FEABABAAC4
:101AA000AAAAAAFE8080808000000000000000003A
:101AB000002F000000000700070000147F147F14AF
:101AC00000242A7F2A120062640813230036495535
:101AD000225000000503000000001C22410000000D
:101AE00041221C000014083E08140008083E0808A3
:101AF000000000A0600000080808080800006060FE
:101B00000000002010080402003E5149453E00003C
:101B1000427F4000004261514946002141454B311E
:101B2000001814127F10002745454539003C4A49EA
:101B3000493000017109050300364949493600065C
:101B40004949291E000036360000000056360000C4
:101B5000000814224100001414141414000041223F
:101B6000140800020151090600324959513E007C17
:101B70001211127C007F49494936003E4141412201
:101B8000007F4141221C007F49494941007F0909EA
:101B90000901003E4149497A007F0808087F00009A
:101BA000417F4100002040413F01007F0814224155
:101BB000007F40404040007F020C027F007F04080D
:101BC000107F003E4141413E007F09090906003E69
:101BD0004151215E007F0919294600464949493192
:101BE0000001017F0101003F4040403F001F2040B5
:101BF000201F003F4038403F006314081463000773
:101C00000870080700615149454300007F414100C9
:101C100000552A552A55000041417F000004020169
:101C20000204004040404040000001020400002047
:101C300054545478007F4844443800384444442085
:101C400000384444487F00385454541800087E0932
:101C500001020018A4A4A47C007F080404780000FA
:101C6000447D4000004080847D00007F10284400B7
:101C70000000417F4000007C04180478007C0804C8
:101C8000047800384444443800FC24242418001804
:101C9000242418FC007C08040408004854545420F0
:101CA00000043F444020003C4040207C001C204079
:101CB000201C003C4030403C004428102844001CBC
:101CC000A0A0A07C004464544C44141414141414B4
:101CD0000000000000000000000000000000000004
:101CE000000000F800000000000000333000000099
:101CF00000100C06100C06000000000000000000A0
:101D000040C07840C0784000043F04043F04040011
:101D1000007088FC08300000001820FF211E000021
:101D2000F008F000E018000000211C031E211E0036
:101D300000F00888700000001E21232419272110BC
:101D400010160E000000000000000000000000005F
:101D5000000000E018040200000000071820400006
:101D600000020418E00000000040201807000000F6
:101D7000404080F0804040000202010F010202005A
:101D8000000000F0000000000101011F010101003E
:101D9000000000000000000080B0700000000000A3
:101DA000000000000000000000010101010101012C
:101DB00000000000000000000030300000000000C3
:101DC0000000000080601804006018060100000098
:101DD00000E010080810E000000F102020100F0095
:101DE000001010F8000000000020203F202000001C
:101DF0000070080808887000003028242221300074
:101E000000300888884830000018202020110E007B
:101E10000000C02010F8000000070424243F240024
:101E200000F80888880808000019212020110E00F9
:101E300000E0108888180000000F112020110E000B
:101E400000380808C83808000000003F0000000003
:101E50000070880808887000001C222121221C00C4
:101E600000E010080810E0000000312222110F00ED
:101E7000000000C0C0000000000000303000000082
:101E800000000080000000000000806000000000F2
:101E9000000080402010080000010204081020000B
:101EA0004040404040404000040404040404040056
:101EB00000081020408000000020100804020100EB
:101EC000007048080808F0000000003036010000EB
:101ED000C030C828E810E0000718272423140B009E
:101EE0000000C038E0000000203C23020227382018
:101EF00008F8888888700000203F202020110E00FC
:101F0000C0300808080838000718202020100800F2
:101F100008F808080810E000203F202020100F00DB
:101F200008F88888E8081000203F202023201800A7
:101F300008F88888E8081000203F2000030000000F
:101F4000C03008080838000007182020221E0200B0
:101F500008F808000008F808203F210101213F206F
:101F6000000808F8080800000020203F202000009A
:101F700000000808F8080800C08080807F0000008A
:101F800008F888C028180800203F200126382000C3
:101F900008F8080000000000203F2020202030002A
:101FA00008F8F800F8F80800203F003F003F200044
:101FB00008F830C00008F808203F200007183F004C
:101FC000E01008080810E0000F10202020100F007B
:101FD00008F808080808F000203F2101010100006E
:101FE000E01008080810E0000F18242438504F00B3
:101FF00008F8888888887000203F2000030C302073
:1020000000708808080838000038202121221C00B0
:10201000180808F8080818000000203F20000000F9
:1020200008F808000008F808001F202020201F00E2
:102030000878880000C83808000007380E01000042
:10204000F80800F80008F800033C0700073C03000C
:10205000081868808068180820302C03032C302072
:102060000838C800C83808000000203F20000000E1
:1020700010080808C8380800203826212020180039
:10208000000000FE020202000000007F404040000D
:10209000000C30C000000000000000010638C00045
:1020A00000020202FE000000004040407F000000ED
:1020B0000000040202020400000000000000000012
:1020C0000000000000000000808080808080808010
:1020D00000020204000000000000000000000000F8
:1020E00000008080808000000019242222223F20EE
:1020F00008F8008080000000003F112020110E0031
:102100000000008080800000000E112020201100BF
:10211000000000808088F800000E112020103F2071
:102120000000808080800000001F222222221300F5
:10213000008080F0888888180020203F2020000040
:102140000000808080808000006B949494936000F5
:1021500008F8008080800000203F210000203F2000
:1021600000809898000000000020203F2020000000
:10217000000000809898000000C08080807F0000F0
:1021800008F8000080808000203F24022D302000CD
:10219000000808F8000000000020203F2020000078
:1021A0008080808080808000203F20003F20003F92
:1021B0008080008080800000203F210000203F20A0
:1021C0000000808080800000001F202020201F0051
:1021D000808000808000000080FFA12020110E0080
:1021E0000000008080808000000E112020A0FF8071
:1021F000808080008080800020203F21200001001E
:102200000000808080808000003324242424190072
:10221000008080E0808000000000001F202000007F
:102220008080000000808000001F202020103F20C0
:10223000808080000080808000010E300806010050
:1022400080800080008080800F300C030C300F00F5
:1022500000808000808080000020312E0E31200020
:10226000808080000080808080818E701806010050
:1022700000808080808080000021302C222130006E
:1022800000000000807C020200000000003F40408F
:1022900000000000FF00000000000000FF00000040
:1022A0000002027C800000000040403F000000006F
:1022B000000601010202040400000000000000000A
:1022C000E02200080000002034000000280100087F
:1022D00014230008340000203C07000044010008DB
:1022E00000A24A04000000000000000001020304F4
:1022F00006070809000000000000000000000000C0
:1023000000000000000000000000000000000000CD
:0423100001000000C8
:04000005080000ED02
:00000001FF
