:020000040800F2
:10000000100E00201D5400083D0200083F020008A9
:1000100041020008430200084502000800000000F9
:10002000000000000000000000000000470200087F
:1000300049020008000000004B0200084D020008C1
:100040003754000837540008375400083754000864
:100050003754000837540008375400083754000854
:1000600037540008375400084DB0000837540008D2
:100070003754000837540008375400083754000834
:100080003754000837540008375400083754000824
:100090003754000837540008375400083754000814
:1000A0003754000837540008375400083754000804
:1000B0001D510008375400085DB900083754000886
:1000C00037540008375400083754000837540008E4
:1000D00037540008B5530008375400083754000857
:1000E00037540008375400083754000800F002F86D
:1000F00000F06EF80AA090E8000C82448344AAF154
:100100000107DA4501D100F063F8AFF2090EBAE851
:100110000F0013F0010F18BFFB1A43F0010318473B
:10012000CCCF0000ECCF00000A444FF0000C10F8D8
:10013000013B13F0070408BF10F8014B1D1108BF65
:1001400010F8015B641E05D010F8016B641E01F805
:10015000016BF9D113F0080F1EBF10F8014BAD1C55
:100160000C1B09D16D1E58BF01F801CBFAD505E073
:1001700014F8016B01F8016B6D1EF9D59142D6D3CD
:10018000704700000023002400250026103A28BFF5
:1001900078C1FBD8520728BF30C148BF0B607047F9
:1001A00069290CF0ED8064290CF0EA8075290CF0C7
:1001B000E78078290CF0208163290CF0768373297D
:1001C0000CF07B83002070471FB51FBD10B510BD1C
:1001D0000CF08EFB1146FFF7F7FF00F009F80CF06A
:1001E000ACFB03B4FFF7F2FF03BC05F08DF8000091
:1001F0004FF4A06005F054FD05F03AF84FF4E130FB
:1002000005F08CF80B4841684820884701F089F9CF
:1002100004F0BAFE08480AF04DFA0028FAD100218D
:1002200040F2833004F0A8FF41F61F41042004F09F
:10023000F1FFFEE794030020600500207047FEE711
:10024000FEE7FEE7FEE77047704770477047000023
:100250000CB500224C4800920192016841F48031B3
:1002600001604FF4A063016801F40031019100992D
:10027000491C0091019911B900999942F3D1016883
:10028000890333D50121019140490A6842F01002E7
:100290000A600A6822F003020A600A6842F0020259
:1002A0000A604168416041684160416841F4806191
:1002B0004160416821F47C114160416841F4E811DA
:1002C0004160016841F08071016001688901FCD5DD
:1002D000416821F003014160416841F00201416041
:1002E0004168C1F381010229FAD10CBD01920CBD14
:1002F000254810B5016841F0010101604168244AB8
:10030000114041600168234A11400160016821F4F5
:1003100080210160416821F4FE0141604FF41F011A
:100320008160FFF795FF1C494FF00060086010BD29
:10033000154A10B55068194B10F00C01184803D03D
:10034000042901D0082901D0036012E051685368E4
:1003500001F470114FF0020413F4803F04EB91415B
:1003600002D053689B0301D50E4B00E00B4B594361
:10037000016051680A4AC1F30311121D515C026801
:10038000CA40026010BD0000001002400020024080
:100390000000FFF8FFFFF6FE08ED00E000127A0013
:1003A0000000002000093D004FF48072FE494A61C0
:1003B0004A154A61FD4B18608020486108610A6156
:1003C0007047F9494FF480720A614A154A61F74B48
:1003D00018608020486108610A6170472DE9F04784
:1003E000DFF8C8934FF08830A9F10C09C9F8000074
:1003F00009F104052860ED4E00203060EA4CA81594
:100400002061470067614FF04008C4F81480E84855
:100410008088A0F50941893902D1022004F03FFF0C
:10042000E248001F0068C4F8108080B227614FF0D6
:100430003331C9F8001029604FF6FF713160BDE813
:10044000F08710B50C46FFF7AFFFD7484FF4807127
:10045000016142154261D5490C6080214161016111
:10046000026110BD10B5FFF79FFFBDE81040B5E772
:10047000CF48008998E7CC494FF480720A614A1549
:100480004A61CA4B18608020486108610A61704760
:10049000C0F34511C20AC00200EB4110104480B203
:1004A0007047401EC0B2FCD270472DE9F34F04469E
:1004B000070A00F0FF090198BD4A060AC5B29188F3
:1004C0001046DFF8E4A24089A1F513434FF4807B86
:1004D000413B1CD0A1F5A643103B18D013469046D3
:1004E0009A791B88A1F5D04C1B1B5B1EBCF1040C38
:1004F0003CD0C446A1F5C858B8F163087DD0A1F539
:10050000A048B8F5A26876D0012A75D062E1FFF75D
:100510004BFF5446CAF810B04FF4007CCAF814C020
:10052000DFF88882C8F800708027CAF81470CAF80B
:100530001070CAF810C0CAF810B0CAF814C0C8F8D1
:100540000090CAF81470CAF81070CAF810C0984821
:100550008089FFF729FFC4F810B0C4F814C0C8F8A8
:10056000006067612761C4F810C027E1012A00D14B
:100570009CB2FFF719FF5746CAF810B04FF4007C41
:10058000CAF814C0DFF82492210AC9F800104FF00D
:100590008008CAF81480CAF81080CAF810C0CAF8D7
:1005A00010B0CAF814C0E1B2C9F80010CAF814803B
:1005B000C7F81080C7F810C07D488089FFF7F4FEA7
:1005C000C7F810B0C7F814C0C9F80060C7F81480A5
:1005D000C7F81080C7F810C0C7F810B0C7F814C02B
:1005E000C9F80050C7F81480C7F81080C7F810C0C9
:1005F000BDE8FC8F01E0A2E0EBE0E046F2B3FFF7DC
:10060000D3FE5C465046CAF810B04FF40071CAF8E9
:100610001410DFF898C1CCF800708022CAF81420BA
:10062000CAF81020CAF81010CAF810B0CAF814108E
:10063000CCF80090CAF81420CAF81020CAF810109C
:10064000CAF810404161B8F800305B1E1F12CCF8A8
:10065000007042610261016104614161DBB2CCF86A
:1006600000304261026101614446B8F80C00FFF7B6
:100670009BFE5F465046CAF810B000E02EE04FF4F3
:100680000072CAF81420DFF824C1CCF80060802181
:10069000CAF81410CAF81010CAF81020CAF810B01E
:1006A000CAF81420CCF80050CAF81410CAF8101078
:1006B000CAF81020CAF81070426163885B1E1C12D1
:1006C000CCF8004041610161026107614261DBB227
:1006D000CCF8003041610161026189E79CB2FFF70B
:1006E00063FE5B465046CAF810B04FF40071CAF87A
:1006F00014102E4F4FF0000CC7F800C08022CAF82B
:100700001420CAF81020CAF81010CAF810B0CAF89D
:100710001410C7F800C0CAF81420CAF81020CAF88C
:100720001010036141614FEA142CC7F800C0426108
:100730000261016103614161E3B23B6091E7FFF750
:1007400033FE5446CAF810B04FF4007CCAF814C007
:10075000DFF85880C8F800708027CAF81470CAF80B
:100760001070CAF810C012484089401C80B2FFF7D0
:100770001BFEC4F810B0C4F814C0C8F8009067613C
:100780002761C4F810C00A488089FFF70DFEC4F83D
:1007900010B0C4F814C0C8F8006067612761C4F8DD
:1007A00010C00348808905E0001001400C0C014096
:1007B00088040020401C80B2FFF7F6FDC4F810B09A
:1007C000C4F814C0C8F8005067612761C4F810C0AD
:1007D0000EE79CB22146FFF734FEBCF80C000199ED
:1007E000BDE8FC4F2DE62DE9F84FFB4D2A888242EB
:1007F00002D96A888A4202D80020BDE8F88FFFF744
:1008000054FEF54845F2103B8088A0F5134141396C
:1008100056D0A0F5D041043952D0584550D0A0F55B
:10082000C85163394CD0A0F5AA4110394AD02220D2
:10083000FFF7BAFDE94F4FF08830386007F1040C3C
:10084000CCF80000DFF894A34FF6FF750AF10C0A0C
:10085000CAF80050E24BB81518614FF40079C3F89C
:1008600014904FF04008C3F814800220401EC0B21C
:10087000FCD2DA4E08363068C3F8108080B2D64910
:100880004FF0333E8988A1F5C852633A1DD0C3F8B2
:1008900014800220401EC0B2FCD23068C3F8108021
:1008A00080B2A1F51342413A18D0594516D0A1F5AE
:1008B000AA42103A12D0A1F5D042043A1DD022E04B
:1008C0002E20B5E74FF43850B2E7C3F81090C7F8C0
:1008D00000E0CCF800E0CAF800508EE7C3F81480BE
:1008E0000222521ED2B2FCD2326892B20092C3F8F7
:1008F0001080C2B205EA022405E0C3F81480C3F8F0
:100900001080306880B2C3F81090C7F800E0CCF8CF
:1009100000E0CAF80050A1F51342253ADDD0A1F558
:100920008A42353AD9D0121DD7D0A1F50942893A69
:10093000D3D0A1F53542053ACFD0A1F51342413AC3
:1009400008D0594506D0A1F5AA42103A02D0BDE818
:10095000F84F9DE56FF30A00A10A40EA41110098A3
:1009600041EAD02049E79C488088A0F513414139ED
:1009700013D0A0F5D04104390FD0A0F5A64110390D
:100980000BD0A0F5C851633907D0A0F5AA411039A2
:1009900005D040F27311072053E5292001E04FF400
:1009A000245001E58C488088A0F51341413912D0CC
:1009B000A0F5D04104390ED0A0F5A64110390AD0D7
:1009C000A0F5C851633906D0A0F5AA41103904D06A
:1009D0000021072035E5282001E04FF42050E3E412
:1009E0002DE9F04F7C4C00262146A279898846F6F5
:1009F000040341F66317012A01D02AB11DE0994290
:100A00001BD0B94202D118E0B94216D1082814D23D
:100A1000DFE800F00406080A0C0E101206200CE0B5
:100A200007200AE0042008E0052006E0012004E099
:100A3000002002E0032000E00220A1F5134C45F263
:100A4000103245F21055BCF1410C07D0994205D047
:100A5000914203D0A94201D0B9427DD1082812D2D7
:100A6000DFE800F0110406080A0C0E1080260AE0E8
:100A7000402608E0C02606E0202604E0602602E0CA
:100A8000A02600E0E026A94202D14FF4585000E031
:100A90003620914205D0A94203D0B94201D046F098
:100AA0000806994201D146F002063146FFF7C9FC1B
:100AB000A088B8420AD0B1062188628802D5914246
:100AC00002D303E0914201D922806180444EDFF8D5
:100AD0000CA177154FF000084FF0800B4FF4807C8D
:100AE0000AF10C0AA8427ED16089FFF75DFCC6F8C6
:100AF00010C077614046C146D046CAF800005D4646
:100B0000C6F814B0C6F810B037616089401C80B2D6
:100B1000FFF74AFCC6F810C07761C8F8009075610D
:100B2000356137616089801C80B2FFF73DFCC6F8F3
:100B300010C077612088401E0112C8F8001075614E
:100B4000356137616089C01C80B2FFF72DFCC6F8A3
:100B500010C07761207800E09CE0401EC1B2C8F868
:100B60000010756135613761A089FFF71DFCC6F87B
:100B700010C07761C8F80090756135613761A08950
:100B8000401C80B2FFF710FCC6F810C07761C8F8AF
:100B90000090756135613761A089801C80B2FFF7D4
:100BA00003FCC6F810C077616088401E0112C8F8C7
:100BB0000010756135613761A089C01C80B2FFF7F4
:100BC000F3FBC6F810C07761A078401EC1B2C8F828
:100BD0000010756135615AE088040020000C014066
:100BE00000100140FFE7A1466089FFF7DDFBC6F872
:100BF00010C077615546CAF800805C46C6F814B04C
:100C0000C6F810B03761C6F810C07761CAF8008026
:100C1000C6F814B0C6F810B03761C6F810C07761D6
:100C2000B9F80000401E01122960C6F814B0346102
:100C30003761C6F810C07761C0B228607461346152
:100C40003761B9F80C00FFF7AFFBC6F810C0776149
:100C5000C5F80080746134613761C6F810C07761EF
:100C6000C5F80080746134613761C6F810C07761DF
:100C7000B9F80200401E01122960746134613761C5
:100C8000C6F810C07761C0B2286074613461376102
:100C9000BDE8F08F082812D2DFE800F00406081142
:100CA0000A0C0E1030260AE0102608E0202606E086
:100CB000382604E0282602E0182600E0082646F43C
:100CC0008051BDE8F04F0320FFF7BBBB00B5FFF735
:100CD000ECFBFFF7CDFBFC484FF48071016141153F
:100CE0004161FA4AFA4B12881A608022426102611D
:100CF000016100BD2DE9F74F0446F64881B0DFF8E9
:100D0000C8B381880298DFF8C89300F0FF08050A8D
:100D1000E0B20090EF48270AA1F5134240894FF452
:100D2000807A4FF40076413A18D0DFF8A8C3A1F5D5
:100D3000A642103A12D0B2F500723BD06346A1F53C
:100D4000C8579A791B881B1B5B1E633F6CD0A1F5AB
:100D5000D047043F7DD0012A7CD0F6E0DFF874C391
:100D6000FFF722FB5C46CBF810A0CBF81460C9F863
:100D700000708027CBF81470CBF81070CBF810609F
:100D8000CBF810A0CBF814600098C9F80000CBF89D
:100D90001470CBF81070CBF81060BCF80C00FFF7A3
:100DA00003FBC4F810A06661C9F8005067612761B1
:100DB000266130E0FFF7F8FA5C46CBF810A0CBF8DC
:100DC0001460C9F800708027CBF81470CBF810704D
:100DD000CBF81060BCF80A00401C80B2FFF7E4FAC0
:100DE000C4F810A066610098C9F800006761276127
:100DF0002661BCF80C00FFF7D7FAC4F810A06661B2
:100E0000C9F80050676127612661BCF80C00401CDE
:100E100080B2FFF7C9FAC4F810A06661C9F8008073
:100E200067612761266198E002B99CB2FFF7BCFABE
:100E30005F46CBF810A0CBF81460200AC9F8000078
:100E40004FF0800CCBF814C0CBF810C0CBF810607A
:100E500001E03EE078E0CBF810A0CBF81460E1B2FE
:100E6000C9F80010CBF814C0CBF810C0CBF8106054
:100E7000C7F810A07E61C9F80000C7F814C0C7F811
:100E800010C03E61C7F810A07E61C9F80010C7F815
:100E900014C0C7F810C03E618E488089FFF784FAFD
:100EA000C7F810A07E61C9F80050C7F814C0C7F891
:100EB00010C03E61C7F810A07E61C9F80080C7F875
:100EC00014C0C7F810C03E61C7F810A07E61484644
:100ED00029E0012A00D19CB2FFF766FA5F46CBF801
:100EE00010A0CBF81460210AC9F800104FF0800C54
:100EF000CBF814C0CBF810C0CBF81060CBF810A022
:100F0000CBF81460E1B2C9F80010CBF814C0CBF8EC
:100F100010C0CBF810606F488089FFF745FAC7F81A
:100F200010A07E6148460560C7F814C0C7F810C01D
:100F30003E61C7F810A07E61C9F80080C7F814C0F0
:100F4000C7F810C03E6108E09CB22146FFF779FA6D
:100F5000BCF80C000299FFF774FA5846CBF814A0BD
:100F6000CBF814605B490989C9F800108021CBF8DF
:100F70001410CBF81010CBF81060CBF810A0CBF801
:100F80001460039BC9F80030CBF81410CBF8101094
:100F90000661BDE8FF8F2DE9F0418446BE20FFF7D2
:100FA00003FA494C4FF48077276165156561DFF8D6
:100FB00020810521C8F80010802666612661256120
:100FC0002761656160460BF0FAFC4FF06632424BD8
:100FD0000BF008FD0BF0C6FCC8F800006661266146
:100FE0002561276165610121C8F8001066612661ED
:100FF000256127616561FF21C8F8001066612661DF
:101000002561276165610020C8F8000066612661DE
:10101000256127616561C8F8000066612661256168
:10102000BDE8F0812DE9F04F2A492A232B24898835
:1010300045F2105A4FF4305B4FF4285E4FF4487578
:101040004FF0F00C49F241394FF4A07745F21036D9
:101050004FF4F07280B11F484FF00108494580F805
:1010600006800780A0F802C001D0B14248D12C25EB
:1010700005814381848161E016484FF000084945AD
:1010800080F80680A0F800C0478006D0A1F5D04CBB
:10109000BCF1040C01D0B1420CD12C250581438157
:1010A000A1F5D0438481043B01D0B1424ED10780E9
:1010B00042804BE0514511D1A0F808B0A0F80AE0F9
:1010C0004FF42C51818118E00010014014000020E1
:1010D0000C0C01408804002066660440A1F5C85647
:1010E000633E06D02221018120214181212181817D
:1010F0002CE02C210181448183810280458025E000
:10110000A1F5D04CBCF1040C09D051450BD1A0F88D
:1011100008B0A0F80AE04FF42C53838120E02C257E
:101120000581448109E0A1F5C85CBCF1630C11D0D4
:10113000222303812123438120238381A1F5D043EE
:10114000043B01D0B14201D102804780BDE8F04F9D
:10115000002045E44FF02C0CA0F808C043818481A6
:1011600005804280EAE72DE9FF4F04469146484456
:10117000DFF878E4401E86B087B2BEF80400E2B221
:10118000049204EB0902521E1FFA82FC4FEA1C2251
:10119000CE1803920CF0FF02761E1FFA86FC029214
:1011A0004FEA1C2201920CF0FF020D46009272469B
:1011B000A0F513415289B3B24FEA14284FEA152B18
:1011C00005F0FF0A413910D0A0F5A64110390CD026
:1011D000A0F5D041043908D09EF8061041F6631CF2
:1011E0000591012950D160454ED1F1461046FFF7D7
:1011F000DBF8FF4C4FF48076266165156561FD4F85
:10120000C7F800804FF0800CC4F814C0C4F810C0B8
:1012100025612661656104983860C4F814C0C4F87B
:1012200010C025612661656103983860C4F814C058
:10123000C4F810C025612661656102983860C4F861
:1012400014C0C4F810C02561B9F80C00FFF7ACF861
:1012500026616561C7F800B0C4F814C0C4F810C0B6
:10126000256126616561C7F800A0C4F814C0C4F800
:1012700010C025612661656101983860C4F814C00A
:10128000C4F810C02561FDE0D849604509885BD1EC
:10129000A1EB0900001B1FFA80F8B0B209901046BC
:1012A000FFF782F8D24C4FF48077276165156561AE
:1012B000DFF840C34FEA1820CCF8000080266661B2
:1012C000266125612761656108F0FF00CCF8000008
:1012D0006661266125612761656108EB0900401E92
:1012E0000112CCF8001066612661256127616561F5
:1012F000C0B2CCF80000666126612561BB488089D8
:10130000FFF752F827616561CCF800B0666126618D
:10131000256127616561CCF800A0666126612561C1
:10132000276165610998000ACCF8000066612661B2
:101330002561276165610998C0B2CCF8000066613B
:10134000266125610AB0A3E4A0F5A04CBCF5A26C0F
:1013500024D0059801287CD03E4620462F469C4646
:10136000502201464FF0510A4FF052094FF05308F6
:101370001046FFF766F831465046FFF762F83946E7
:101380004846FFF75EF861464046FFF75AF80AB054
:1013900029462046BDE8F04FFFF787B8F1461046D2
:1013A000FFF702F8924C4FF480762661651565616F
:1013B000904FC7F800804FF0800CC4F814C0C4F8F8
:1013C00010C02561B9F80A00401C80B2FEF7ECFF9E
:1013D0002661656104983860C4F814C0C4F810C070
:1013E0002561B9F80A00801C80B2FEF7DDFF266196
:1013F000656103983860C4F814C0C4F810C0256152
:10140000B9F80A00C01C80B2FEF7CEFF2661656104
:1014100002983860C4F814C0C4F810C02561B9F847
:101420000C00FEF7C1FF26616561C7F800B0C4F883
:1014300014C0C4F810C02561B9F80C00401C80B27B
:10144000FEF7B2FF26616561C7F800A0C4F814C0BA
:1014500000E020E0C4F810C02561B9F80C00801C41
:1014600080B2FEF7A1FF2661656101983860C4F87B
:1014700014C0C4F810C02561B9F80C00C01C80B2BB
:10148000FEF792FF2661656100983860C4F814C0C9
:10149000C4F810C055E7CA1B521E091B491E284636
:1014A0001E4697B21FFA81FC5AE72DE9F0434F4FD1
:1014B0000646002438887D884543B888A0F5D04189
:1014C000043902D1B87901280CD000210846FEF772
:1014D000ECFFFEF7CDFF46494FF480774B15454AA8
:1014E00080201AE00020B8714FF02A08A7F80A807F
:1014F0004FF02B09A7F80C900146FEF7D6FF01200C
:10150000B871A7F80A90A7F80C80E2E70F614B6169
:101510001660486108610B61641CAC42F6D3BDE8FB
:10152000F0832DE9F84F0121192004F0D6F90121AB
:10153000314804F075F84FF4F864ADF8004010201D
:101540008DF80300DFF8A88003208DF802006946BB
:101550004546404603F0D9FF2146284604F03FF8AF
:10156000244D4FF6FF7B0C3D5C46ADF800B069465C
:10157000284603F0CAFF2146284604F030F83220FE
:1015800003F0A4FE01210020FEF75BFF322003F0F0
:101590009DFE0020FEF766FF144C49F2413746F6E7
:1015A0000409A08045F2103A45F21055FF2804D3F3
:1015B000584502D0B0F5134F79D1D320FEF7F4FE91
:1015C000FEF70CFFFEF70AFFFEF708FF0BEA00200C
:1015D0005E46A080FEF702FFA1880843A080B842C3
:1015E00065D0BF20FEF7E0FE08E000008804002080
:1015F000001001400C0C014000023000FEF7EEFE2E
:10160000FEF7ECFEFEF7EAFEFEF7E8FE06EA002033
:10161000A080FEF7E3FEA1880843A080484546D09D
:10162000D420FEF7C1FEFEF7D9FEFEF7D7FEFEF787
:10163000D5FE06EA0020A080FEF7D0FEA188084370
:10164000A080504533D04FF45A40FEF7ADFEFEF770
:10165000C5FE4FF45B40FEF7A7FEFEF7BFFE06EAAD
:101660000020A0804FF45C40FEF79EFEFEF7B6FE21
:10167000A1880843A080B0F5004F7DD0A84216D0C5
:10168000A120FEF791FEFEF7A9FEA080FEF7A6FEC0
:1016900006EA0020A080FEF7A1FEA1880843A0F57D
:1016A000AE41A080613902D141F66310A080A188CB
:1016B000FEA00AF0F5FDA088B8427DD1CF20FEF74C
:1016C00073FE0020FEF77DFEC120FEF77AFE30207B
:1016D000FEF777FEED20FEF767FE6420FEF771FE51
:1016E0000320FEF76EFE1220FEF76BFE8120FEF750
:1016F00068FEE820FEF758FE8520FEF762FE102007
:10170000FEF75FFE7A20FEF75CFECB20FEF74CFE74
:101710003920FEF756FE2C20FEF753FE0020FEF780
:1017200050FE3420FEF74DFE0220FEF74AFEF72061
:10173000FEF73AFE2020FEF744FEEA20FEF734FED4
:101740000020FEF73EFE0020FEF73BFEC020FEF725
:101750002BFE1B20FEF735FEC120FEF725FE0120E3
:10176000FEF72FFEC520FEF71FFE3020FEF729FEF4
:101770003020FEF726FE00E0B3E0C720FEF714FE9F
:10178000B720FEF71EFE3620FEF70EFE4820FEF7BD
:1017900018FE3A20FEF708FE5520FEF712FEB12093
:1017A000FEF702FE0020FEF70CFE1A20FEF709FEEF
:1017B000B620FEF7F9FD00E095E00A20FEF701FEF5
:1017C000A220FEF7FEFDF220FEF7EEFD0020FEF760
:1017D000F8FD2620FEF7E8FD0120FEF7F2FDE020EF
:1017E000FEF7E2FD0F20FEF7ECFD2A20FEF7E9FDF3
:1017F0002820FEF7E6FD0820FEF7E3FD0E20FEF7A9
:10180000E0FD0820FEF7DDFD5420FEF7DAFDA920FB
:10181000FEF7D7FD4320FEF7D4FD0A20FEF7D1FDE9
:101820000F20FEF7CEFD0020FEF7CBFD0020FEF7D7
:10183000C8FD0020FEF7C5FD0020FEF7C2FDE12037
:10184000FEF7B2FD0020FEF7BCFD1520FEF7B9FD46
:101850001720FEF7B6FD0720FEF7B3FD1120FEF7B7
:10186000B0FD0620FEF7ADFD2B20FEF7AAFD5620A9
:10187000FEF7A7FD3C20FEF7A4FD0520FEF7A1FD25
:101880001020FEF79EFD0F20FEF79BFD3F20FEF788
:1018900098FD3F20FEF795FD0F20FEF792FD2B20CF
:1018A000FEF782FD0020FEF78CFD0020FEF789FD8B
:1018B0000120FEF786FD3F20FEF783FD2A20FEF77C
:1018C00073FD0020FEF77DFD0020FEF77AFD00206D
:1018D000FEF777FDEF20FEF774FD1120FEF764FDA3
:1018E000A7E0A580E3E648457ED11120FEF75CFD28
:1018F000142003F0EBFCD020FEF756FD0720FEF786
:1019000060FD4220FEF75DFD1D20FEF75AFDD1204F
:10191000FEF74AFD0020FEF754FD1A20FEF751FDA8
:101920000920FEF74EFDD220FEF73EFD0120FEF716
:1019300048FD2220FEF745FDC020FEF735FD1020B2
:10194000FEF73FFD3B20FEF73CFD0020FEF739FD92
:101950000220FEF736FD1120FEF733FDC520FEF70D
:1019600023FD0320FEF72DFDC820FEF71DFD0020FE
:10197000FEF727FD2520FEF724FD2120FEF721FD9F
:101980000520FEF71EFD0020FEF71BFD0A20FEF7D6
:1019900018FD6520FEF715FD2520FEF712FD7720C6
:1019A000FEF70FFD5020FEF70CFD0F20FEF709FD9E
:1019B0000020FEF706FDF820FEF7F6FC0120FEF7FA
:1019C00000FDFE20FEF7F0FC0020FEF7FAFC0220EE
:1019D000FEF7F7FC2020FEF7E7FC3620FEF7E4FCDC
:1019E0000820FEF7EEFC00E029E03A20FEF7DCFCE0
:1019F0005520FEF7E6FC2B20FEF7D6FC0020FEF774
:101A0000E0FC0020FEF7DDFC0120FEF7DAFC3F20C1
:101A1000FEF7D7FC2A20FEF7C7FC0020FEF7D1FC1A
:101A20000020FEF7CEFC0120FEF7CBFCDF20FEF706
:101A3000C8FC782003F04AFC292001F004BF50457F
:101A40007ED1ED20FEF7B0FC0120FEF7BAFCFE20AF
:101A5000FEF7B7FCEE20FEF7A7FCDE20FEF7B1FC98
:101A60002120FEF7AEFCF120FEF79EFC0120FEF7E0
:101A7000A8FCDF20FEF798FC1020FEF7A2FCC42093
:101A8000FEF792FC8F20FEF79CFCC620FEF78CFC34
:101A90000020FEF796FCE220FEF793FCE220FEF722
:101AA00090FCE220FEF78DFCBF2007E0204C434471
:101AB0002049443A25780D0A00000000FEF774FC26
:101AC000AA20FEF77EFCB020FEF76EFC0D20FEF78C
:101AD00078FC0020FEF775FC0D20FEF772FC00205C
:101AE000FEF76FFC1120FEF76CFC0020FEF769FC8E
:101AF0001920FEF766FC0020FEF763FC2120FEF7AC
:101B000060FC0020FEF75DFC2D20FEF75AFC002053
:101B1000FEF757FC3D20FEF754FC0020FEF751FC79
:101B20005D20FEF74EFC0020FEF74BFC5D20FEF72B
:101B300048FC0020FEF745FCB120FEF735FC00E034
:101B4000FDE38020FEF73DFC0020FEF73AFC8B20F1
:101B5000FEF737FC0020FEF734FC9620FEF731FC40
:101B60000020FEF72EFCB220FEF71EFC0020FEF740
:101B700028FC0020FEF725FC0220FEF722FC0020B6
:101B8000FEF71FFC0320FEF71CFC0020FEF719FCEB
:101B9000B320FEF709FC0020FEF713FC0020FEF73F
:101BA00010FC0020FEF70DFC0020FEF70AFC0020D0
:101BB000FEF707FC0020FEF704FC0020FEF701FC06
:101BC0000020FEF7FEFB0020FEF7FBFB0020FEF7E7
:101BD000F8FB0020FEF7F5FB0020FEF7F2FB0020EB
:101BE000FEF7EFFB0020FEF7ECFB0020FEF7E9FB21
:101BF0000020FEF7E6FB0020FEF7E3FB0020FEF7E7
:101C0000E0FB0020FEF7DDFB0020FEF7DAFB002002
:101C1000FEF7D7FB0020FEF7D4FB0020FEF7D1FB38
:101C20000020FEF7CEFBB420FEF7BEFB8B20FEF7B4
:101C3000C8FB0020FEF7C5FB9620FEF7C2FB002084
:101C4000FEF7BFFBA120FEF7BCFB0020FEF7B9FBAF
:101C5000B520FEF7A9FB0220FEF7B3FB0020FEF73C
:101C6000B0FB0320FEF7ADFB0020FEF7AAFB04202B
:101C7000FEF7A7FB0020FEF7A4FBB620FEF794FBBF
:101C80000020FEF79EFB0020FEF79BFBB720FEF72F
:101C90008BFB0020FEF795FB0020FEF792FB3F2018
:101CA000FEF78FFB0020FEF78CFB5E20FEF789FB22
:101CB0000020FEF786FB6420FEF783FB0020FEF782
:101CC00080FB8C20FEF77DFB0020FEF77AFBAC202A
:101CD000FEF777FB0020FEF774FBDC20FEF771FBBC
:101CE0000020FEF76EFB7020FEF76BFB0020FEF776
:101CF00068FB9020FEF765FB0020FEF762FBEB20FF
:101D0000FEF75FFB0020FEF75CFBDC20FEF759FBD3
:101D10000020FEF756FBB820FEF746FB0020FEF73A
:101D200050FB0020FEF74DFB0020FEF74AFB002091
:101D3000FEF747FB0020FEF744FB0020FEF741FBC7
:101D40000020FEF73EFB0020FEF73BFBBA20FEF72B
:101D50002BFB2420FEF735FB0020FEF732FB002092
:101D6000FEF72FFB0020FEF72CFBC120FEF71CFB2B
:101D70002020FEF726FB0020FEF723FB5420FEF771
:101D800020FB0020FEF71DFBFF20FEF71AFB0020C2
:101D9000FEF717FBC220FEF707FB0A20FEF711FB38
:101DA0000020FEF70EFB0420FEF70BFB0020FEF7E1
:101DB00008FBC320FEF7F8FA3C20FEF702FB0020E8
:101DC000FEF7FFFA3A20FEF7FCFA0020FEF7F9FAD8
:101DD0003920FEF7F6FA0020FEF7F3FA3720FEF777
:101DE000F0FA0020FEF7EDFA3C20FEF7EAFA0020B8
:101DF000FEF7E7FA3620FEF7E4FA0020FEF7E1FAF4
:101E00003220FEF7DEFA0020FEF7DBFA2F20FEF785
:101E1000D8FA0020FEF7D5FA2C20FEF7D2FA0020DF
:101E2000FEF7CFFA2920FEF7CCFA0020FEF7C9FA18
:101E30002620FEF7C6FA0020FEF7C3FA2420FEF79C
:101E4000C0FA0020FEF7BDFA2420FEF7BAFA0020FF
:101E5000FEF7B7FA2320FEF7B4FA0020FEF7B1FA36
:101E60003C20FEF7AEFA0020FEF7ABFA3620FEF774
:101E7000A8FA0020FEF7A5FA3220FEF7A2FA002009
:101E8000FEF79FFA2F20FEF79CFA0020FEF799FA42
:101E90002C20FEF796FA0020FEF793FA2920FEF791
:101EA00090FA0020FEF78DFA2620FEF78AFA00202D
:101EB000FEF787FA2420FEF784FA0020FEF781FA65
:101EC0002420FEF77EFA0020FEF77BFA2320FEF79F
:101ED00078FA0020FEF775FAC420FEF765FA622052
:101EE000FEF76FFA0020FEF76CFA0520FEF769FA9C
:101EF0000020FEF766FA8420FEF763FA0020FEF762
:101F000060FAF020FEF75DFA0020FEF75AFA18207A
:101F1000FEF757FA0020FEF754FAA420FEF751FA14
:101F20000020FEF74EFA1820FEF74BFA0020FEF7CD
:101F300048FA5020FEF745FA0020FEF742FA0C203E
:101F4000FEF73FFA0020FEF73CFA1720FEF739FAB9
:101F50000020FEF736FA9520FEF733FA0020FEF750
:101F600030FAF320FEF72DFA0020FEF72AFAE620D9
:101F7000FEF727FA0020FEF724FAC520FEF714FA30
:101F80003220FEF71EFA0020FEF71BFA4420FEF76F
:101F900018FA0020FEF715FA6520FEF712FA002065
:101FA000FEF70FFA7620FEF70CFA0020FEF709FA8A
:101FB0008820FEF706FA0020FEF703FAC620FEF797
:101FC000F3F92020FEF7FDF90020FEF7FAF91720BB
:101FD000FEF7F7F90020FEF7F4F90120FEF7F1F91A
:101FE0000020FEF7EEF9C720FEF7DEF90020FEF72D
:101FF000E8F90020FEF7E5F90020FEF7E2F90020FD
:10200000FEF7DFF9C820FEF7CFF90020FEF7D9F977
:102010000020FEF7D6F90020FEF7D3F90020FEF7E6
:10202000D0F9C920FEF7C0F90020FEF7CAF9002058
:10203000FEF7C7F90020FEF7C4F90020FEF7C1F94A
:102040000020FEF7BEF90020FEF7BBF90020FEF7E6
:10205000B8F90020FEF7B5F90020FEF7B2F900202C
:10206000FEF7AFF90020FEF7ACF90020FEF7A9F962
:102070000020FEF7A6F90020FEF7A3F90020FEF7E6
:10208000A0F90020FEF79DF9E020FEF78DF916205B
:10209000FEF797F90020FEF794F91C20FEF791F95E
:1020A0000020FEF78EF92120FEF78BF90020FEF7C5
:1020B00088F93620FEF785F90020FEF782F94620E0
:1020C000FEF77FF90020FEF77CF95220FEF779F940
:1020D0000020FEF776F96420FEF773F90020FEF782
:1020E00070F97A20FEF76DF90020FEF76AF98B206F
:1020F000FEF767F90020FEF764F99920FEF761F911
:102100000020FEF75EF9A820FEF75BF90020FEF73D
:1021100058F9B920FEF755F90020FEF752F9C4200E
:10212000FEF74FF90020FEF74CF9CA20FEF749F9F7
:102130000020FEF746F9D220FEF743F90020FEF713
:1021400040F9D920FEF73DF90020FEF73AF9E020EA
:10215000FEF737F90020FEF734F9F320FEF731F9E6
:102160000020FEF72EF9E120FEF71EF91620FEF7FB
:1021700028F90020FEF725F91C20FEF722F900209F
:10218000FEF71FF92220FEF71CF90020FEF719F9CF
:102190003620FEF716F90020FEF713F94520FEF76A
:1021A00010F90020FEF70DF95220FEF70AF9002081
:1021B000FEF707F96420FEF704F90020FEF701F9A5
:1021C0007A20FEF7FEF80020FEF7FBF88B20FEF7E2
:1021D000F8F80020FEF7F5F89920FEF7F2F8002055
:1021E000FEF7EFF8A820FEF7ECF80020FEF7E9F87C
:1021F000B920FEF7E6F80020FEF7E3F8C420FEF76A
:10220000E0F80020FEF7DDF8CA20FEF7DAF800203B
:10221000FEF7D7F8D220FEF7D4F80020FEF7D1F869
:10222000D820FEF7CEF80020FEF7CBF8E020FEF72E
:10223000C8F80020FEF7C5F8F320FEF7C2F800202A
:10224000FEF7BFF8E220FEF7AFF80520FEF7B9F879
:102250000020FEF7B6F80B20FEF7B3F80020FEF7DB
:10226000B0F81B20FEF7ADF80020FEF7AAF83420E6
:10227000FEF7A7F80020FEF7A4F84420FEF7A1F827
:102280000020FEF79EF84F20FEF79BF80020FEF797
:1022900098F86120FEF795F80020FEF792F8792073
:1022A000FEF78FF80020FEF78CF88820FEF789F8FB
:1022B0000020FEF786F89720FEF783F80020FEF74F
:1022C00080F8A620FEF77DF80020FEF77AF8B72008
:1022D000FEF777F80020FEF774F8C220FEF771F8D9
:1022E0000020FEF76EF8C720FEF76BF80020FEF71F
:1022F00068F8D120FEF765F80020FEF762F8D620D6
:10230000FEF75FF80020FEF75CF8DD20FEF759F8D5
:102310000020FEF756F8F320FEF753F80020FEF7F2
:1023200050F8E320FEF740F80520FEF74AF80020B9
:10233000FEF747F80A20FEF744F8002000E003E328
:10234000FEF73FF81C20FEF73CF80020FEF739F8B6
:102350003320FEF736F80020FEF733F84420FEF76E
:1023600030F80020FEF72DF85020FEF72AF8002064
:10237000FEF727F86220FEF724F80020FEF721F888
:102380007820FEF71EF80020FEF71BF88820FEF7E5
:1023900018F80020FEF715F89720FEF712F8002035
:1023A000FEF70FF8A620FEF70CF80020FEF709F85C
:1023B000B720FEF706F80020FEF703F8C220FEF76C
:1023C00000F80020FDF7FDFFC720FDF7FAFF002011
:1023D000FDF7F7FFD120FDF7F4FF0020FDF7F1FF37
:1023E000D520FDF7EEFF0020FDF7EBFFDD20FDF728
:1023F000E8FF0020FDF7E5FFF320FDF7E2FF0020F6
:10240000FDF7DFFFE420FDF7CFFF0120FDF7D9FF47
:102410000020FDF7D6FF0120FDF7D3FF0020FDF7D8
:10242000D0FF0220FDF7CDFF0020FDF7CAFF2A20D4
:10243000FDF7C7FF0020FDF7C4FF3C20FDF7C1FFFB
:102440000020FDF7BEFF4B20FDF7BBFF0020FDF78E
:10245000B8FF5D20FDF7B5FF0020FDF7B2FF742047
:10246000FDF7AFFF0020FDF7ACFF8420FDF7A9FFCB
:102470000020FDF7A6FF9320FDF7A3FF0020FDF746
:10248000A0FFA220FDF79DFF0020FDF79AFFB320DB
:10249000FDF797FF0020FDF794FFBE20FDF791FFA9
:1024A0000020FDF78EFFC420FDF78BFF0020FDF715
:1024B00088FFCD20FDF785FF0020FDF782FFD320A8
:1024C000FDF77FFF0020FDF77CFFDD20FDF779FFA2
:1024D0000020FDF776FFF320FDF773FF0020FDF7E6
:1024E00070FFE520FDF760FF0020FDF76AFF002088
:1024F000FDF767FF0020FDF764FF0020FDF761FF97
:102500000220FDF75EFF0020FDF75BFF2920FDF7AD
:1025100058FF0020FDF755FF3C20FDF752FF00203B
:10252000FDF74FFF4B20FDF74CFF0020FDF749FF63
:102530005D20FDF746FF0020FDF743FF7420FDF707
:1025400040FF0020FDF73DFF8420FDF73AFF00200B
:10255000FDF737FF9320FDF734FF0020FDF731FF33
:10256000A220FDF72EFF0020FDF72BFFB320FDF783
:1025700028FF0020FDF725FFBE20FDF722FF0020E9
:10258000FDF71FFFC420FDF71CFF0020FDF719FF1A
:10259000CD20FDF716FF0020FDF713FFD320FDF738
:1025A00010FF0020FDF70DFFDC20FDF70AFF0020E3
:1025B000FDF707FFF320FDF704FF0020FDF701FF03
:1025C000E620FDF7F1FE1120FDF7FBFE0020FDF7F0
:1025D000F8FE3420FDF7F5FE0020FDF7F2FE562050
:1025E000FDF7EFFE0020FDF7ECFE7620FDF7E9FE9B
:1025F0000020FDF7E6FE7720FDF7E3FE0020FDF763
:10260000E0FE6620FDF7DDFE0020FDF7DAFE882003
:10261000FDF7D7FE0020FDF7D4FE9920FDF7D1FE8F
:102620000020FDF7CEFEBB20FDF7CBFE0020FDF71E
:10263000C8FE9920FDF7C5FE0020FDF7C2FE66200A
:10264000FDF7BFFE0020FDF7BCFE5520FDF7B9FEEB
:102650000020FDF7B6FE5520FDF7B3FE0020FDF784
:10266000B0FE4520FDF7ADFE0020FDF7AAFE432099
:10267000FDF7A7FE0020FDF7A4FE4420FDF7A1FE14
:102680000020FDF79EFEE720FDF78EFE3220FDF7CD
:1026900098FE0020FDF795FE5520FDF792FE0020E4
:1026A000FDF78FFE7620FDF78CFE0020FDF789FEFA
:1026B0006620FDF786FE0020FDF783FE6720FDF70C
:1026C00080FE0020FDF77DFE6720FDF77AFE0020EA
:1026D000FDF777FE8720FDF774FE0020FDF771FE01
:1026E0009920FDF76EFE0020FDF76BFEBB20FDF785
:1026F00068FE0020FDF765FE9920FDF762FE0020D0
:10270000FDF75FFE7720FDF75CFE0020FDF759FE28
:102710004420FDF756FE0020FDF753FE5620FDF73E
:1027200050FE0020FDF74DFE2320FDF74AFE00205D
:10273000FDF747FE3320FDF744FE0020FDF741FE84
:102740004520FDF73EFE0020FDF73BFEE820FDF7AB
:102750002BFE0020FDF735FE0020FDF732FE99200C
:10276000FDF72FFE0020FDF72CFE8720FDF729FE48
:102770000020FDF726FE8820FDF723FE0020FDF750
:1027800020FE7720FDF71DFE0020FDF71AFE6620D3
:10279000FDF717FE0020FDF714FE8820FDF711FE5F
:1027A0000020FDF70EFEAA20FDF70BFE0020FDF72E
:1027B00008FEBB20FDF705FE0020FDF702FE992074
:1027C000FDF7FFFD0020FDF7FCFD6620FDF7F9FD9C
:1027D0000020FDF7F6FD5520FDF7F3FD0020FDF785
:1027E000F0FD5520FDF7EDFD0020FDF7EAFD44204A
:1027F000FDF7E7FD0020FDF7E4FD4420FDF7E1FDD6
:102800000020FDF7DEFD5520FDF7DBFD0020FDF784
:10281000D8FDE920FDF7C8FDAA20FDF7D2FD002074
:10282000FDF7CFFD0020FDF7CCFD0020FDF7C9FD31
:102830000020FDF7B9FDAA20FDF7C3FDCF20FDF76D
:10284000B3FD0020FDF7BDFD0020FDF7BAFD00201F
:10285000FDF7B7FD0020FDF7B4FD0020FDF7B1FD49
:102860000020FDF7AEFD0020FDF7ABFD0020FDF7D9
:10287000A8FD0020FDF7A5FD0020FDF7A2FD00202A
:10288000FDF79FFD0020FDF79CFD0020FDF799FD61
:102890000020FDF796FD0020FDF793FD0020FDF7D9
:1028A00090FD0020FDF78DFDF020FDF77DFD00205F
:1028B000FDF787FD5020FDF784FD0020FDF781FD29
:1028C0000020FDF77EFD0020FDF77BFDF320FDF7E6
:1028D0006BFD0020FDF775FDF920FDF765FD062075
:1028E000FDF76FFD1020FDF76CFD2920FDF769FD58
:1028F0000020FDF766FD3A20FDF756FD5520FDF757
:1029000060FD1120FDF750FD642002F0DFFC29205E
:10291000FDF74AFD3520FDF747FD0020FDF751FD8D
:102920005120FDF741FDFF20FDF74BFD5320FDF742
:102930003BFD2C20FDF745FD5520FDF735FD8220A0
:10294000FDF73FFD2C20FCE3A8427DD14FF47044FD
:1029500055212046FDF775FD651CAA212846FDF787
:1029600070FDA61C52213046FDF76BFDE71C0821C7
:102970003846FDF766FD4FF2040C01216046FDF775
:1029800060FD0D214FF43040FDF75BFD0D214BF252
:102990000100FDF756FD0D214BF20200FDF751FD40
:1029A0004FF4364834214046FDF74BFD34214BF2BD
:1029B0000160FDF746FD34214BF20260FDF741FD59
:1029C0004FF431490D214846FDF73BFD4BF2011A0A
:1029D0000D215046FDF735FD0D214BF20210FDF79C
:1029E00030FD34214FF43740FDF72BFD34214BF2FD
:1029F0000170FDF726FD34214BF20270FDF721FD39
:102A000000214FF43240FDF71CFD00214BF2012064
:102A1000FDF717FD00214BF20220FDF712FD2421E6
:102A20004FF43840FDF70DFD24214BF60100FDF772
:102A300008FD24214BF60200FDF703FD01214FF4B0
:102A40003F40FDF7FEFC00E0FEE30F214FF4334072
:102A5000FDF7F7FC0F214BF20130FDF7F2FC0F21DF
:102A60004BF20230FDF7EDFC34214FF43940FDF715
:102A7000E8FC34214BF60110FDF7E3FC34214BF662
:102A80000210FDF7DEFC08214FF43540FDF7D9FCBC
:102A900008214BF20150FDF7D4FC08214BF2025003
:102AA000FDF7CFFC03214FF44240FDF7CAFC24217F
:102AB0004FF43A40FDF7C5FC24214BF60120FDF709
:102AC000C0FC24214BF60220FDF7BBFC00214FF493
:102AD0003C40FDF7B6FC78214BF60140FDF7B1FC18
:102AE00000214BF60240FDF7ACFC00214FF43D40C5
:102AF000FDF7A7FC78214BF60150FDF7A2FC002161
:102B00004BF60250FDF79DFC00214FF43E40FDF7CF
:102B100098FC64214BF60160FDF793FC00214FF413
:102B20005140FDF78EFC33214DF20110FDF789FC79
:102B300000214DF20210FDF784FC34214DF2031008
:102B4000FDF77FFC00214DF20410FDF77AFC3A21DD
:102B50004DF20510FDF775FC00214DF20610FDF752
:102B600070FC4A214DF20710FDF76BFC00214DF27D
:102B70000810FDF766FC5C214DF20910FDF761FCC1
:102B800000214DF20A10FDF75CFC81214DF20B1083
:102B9000FDF757FC00214DF20C10FDF752FCA62169
:102BA0004DF20D10FDF74DFC00214DF20E10FDF71A
:102BB00048FCE5214DF20F10FDF743FC01214DF2D9
:102BC0001010FDF73EFC13214DF21110FDF739FCFA
:102BD00001214DF21210FDF734FC54214DF2131077
:102BE000FDF72FFC01214DF21410FDF72AFC822184
:102BF0004DF21510FDF725FC01214DF21610FDF7E1
:102C000020FCCA214DF21710FDF71BFC02214DF2EA
:102C10001810FDF716FC00214DF21910FDF711FCFC
:102C200002214DF21A10FDF70CFC01214DF21B1090
:102C3000FDF707FC02214DF21C10FDF702FC3421C8
:102C40004DF21D10FDF7FDFB02214DF21E10FDF7A8
:102C5000F8FB67214DF21F10FDF7F3FB02214DF247
:102C60002010FDF7EEFB84214DF22110FDF7E9FB6A
:102C700002214DF22210FDF7E4FBA4214DF22310B6
:102C8000FDF7DFFB02214DF22410FDF7DAFBB7213F
:102C90004DF22510FDF7D5FB02214DF22610FDF770
:102CA000D0FBCF214DF22710FDF7CBFB02214DF2D7
:102CB0002810FDF7C6FBDE214DF22910FDF7C1FB00
:102CC00002214DF22A10FDF7BCFBF2214DF22B1030
:102CD000FDF7B7FB02214DF22C10FDF7B2FBFE21F0
:102CE0004DF22D10FDF7ADFB03214DF22E10FDF737
:102CF000A8FB10214DF22F10FDF7A3FB03214DF28D
:102D00003010FDF79EFB33214DF23110FDF799FB9A
:102D100003214DF23210FDF794FB6D214DF233107B
:102D2000FDF78FFB00214FF45240FDF78AFB332162
:102D30004DF20120FDF785FB00214DF20220FDF749
:102D400080FB34214DF20320FDF77BFB00214DF287
:102D50000420FDF776FB3A214DF20520FDF771FBCB
:102D600000214DF20620FDF76CFB4A214DF20720B1
:102D7000FDF767FB00214DF20820FDF762FB5C21A7
:102D80004DF20920FDF75DFB00214DF20A20FDF711
:102D900058FB81214DF20B20FDF753FB00214DF232
:102DA0000C20FDF74EFBA6214DF20D20FDF749FB4F
:102DB00000214DF20E20FDF744FBE5214DF20F20DE
:102DC000FDF73FFB01214DF21020FDF73AFB1321E7
:102DD0004DF21120FDF735FB01214DF21220FDF7D8
:102DE00030FB54214DF21320FDF72BFB01214DF256
:102DF0001420FDF726FB82214DF21520FDF721FB63
:102E000001214DF21620FDF71CFBCA214DF21720BF
:102E1000FDF717FB02214DF21820FDF712FB0021F0
:102E20004DF21920FDF70DFB02214DF21A20FDF79E
:102E300008FB01214DF21B20FDF703FB02214DF29F
:102E40001C20FDF7FEFA34214DF21D20FDF7F9FAA2
:102E500002214DF21E20FDF7F4FA67214DF21F20EA
:102E6000FDF7EFFA02214DF22020FDF7EAFA842166
:102E70004DF22120FDF7E5FA02214DF22220FDF767
:102E8000E0FAA4214DF22320FDF7DBFA02214DF2F6
:102E90002420FDF7D6FAB7214DF22520FDF7D1FA0F
:102EA00002214DF22620FDF7CCFACF214DF227204A
:102EB000FDF7C7FA02214DF22820FDF7C2FADE2104
:102EC0004DF22920FDF7BDFA02214DF22A20FDF72F
:102ED000B8FAF2214DF22B20FDF7B3FA02214DF2A0
:102EE0002C20FDF7AEFAFE214DF22D20FDF7A9FAB8
:102EF00003214DF22E20FDF7A4FA10214DF22F20D0
:102F0000FDF79FFA03214DF23020FDF79AFA3321A5
:102F10004DF23120FDF795FA03214DF23220FDF7F5
:102F200090FA6D214DF23320FDF78BFA00214FF41A
:102F30005340FDF786FA33214DF20130FDF781FA57
:102F400000214DF20230FDF77CFA34214DF20330BE
:102F5000FDF777FA00214DF20430FDF772FA3A21BD
:102F60004DF20530FDF76DFA00214DF20630FDF708
:102F700068FA4A214DF20730FDF763FA00214DF25D
:102F80000830FDF75EFA5C214DF20930FDF759FA81
:102F900000214DF20A30FDF754FA81214DF20B3039
:102FA000FDF74FFA00214DF20C30FDF74AFAA62149
:102FB0004DF20D30FDF745FA00214DF20E30FDF7D0
:102FC00040FAE5214DF20F30FDF73BFA01214DF2B9
:102FD0001030FDF736FA13214DF21130FDF731FABA
:102FE00001214DF21230FDF72CFA54214DF213302D
:102FF000FDF727FA01214DF21430FDF722FA822164
:103000004DF21530FDF71DFA01214DF21630FDF796
:1030100018FACA214DF21730FDF713FA02214DF2CA
:103020001830FDF70EFA00214DF21930FDF709FABC
:1030300002214DF21A30FDF704FA01214DF21B3046
:10304000FDF7FFF902214DF21C30FDF7FAF93421AA
:103050004DF21D30FDF7F5F902214DF21E30FDF75E
:10306000F0F967214DF21F30FDF7EBF902214DF227
:103070002030FDF7E6F984214DF22130FDF7E1F92A
:1030800002214DF22230FDF7DCF9A4214DF223306C
:10309000FDF7D7F902214DF22430FDF7D2F9B7211F
:1030A0004DF22530FDF7CDF902214DF22630FDF726
:1030B000C8F9CF214DF22730FDF7C3F902214DF2B7
:1030C0002830FDF7BEF9DE214DF22930FDF7B9F9C0
:1030D00002214DF22A30FDF7B4F9F2214DF22B30E6
:1030E000FDF7AFF902214DF22C30FDF7AAF9FE21D0
:1030F0004DF22D30FDF7A5F903214DF22E30FDF7ED
:10310000A0F910214DF22F30FDF79BF903214DF26C
:103110003030FDF796F933214DF23130FDF791F95A
:1031200003214DF23230FDF78CF96D214DF2333031
:10313000FDF787F900214FF45440FDF782F9332160
:1031400000E080E34DF20140FDF77BF900214DF2F4
:103150000240FDF776F934214DF20340FDF771F995
:1031600000214DF20440FDF76CF93A214DF2054083
:10317000FDF767F900214DF20640FDF762F94A219B
:103180004DF20740FDF75DF900214DF20840FDF7D3
:1031900058F95C214DF20940FDF753F900214DF239
:1031A0000A40FDF74EF981214DF20B40FDF749F938
:1031B00000214DF20C40FDF744F9A6214DF20D40DF
:1031C000FDF73FF900214DF20E40FDF73AF9E521F8
:1031D0004DF20F40FDF735F901214DF21040FDF79A
:1031E00030F913214DF21140FDF72BF901214DF279
:1031F0001240FDF726F954214DF21340FDF721F955
:1032000001214DF21440FDF71CF982214DF21540C9
:10321000FDF717F901214DF21640FDF712F9CA2109
:103220004DF21740FDF70DF902214DF21840FDF760
:1032300008F900214DF21940FDF703F902214DF282
:103240001A40FDF7FEF800E001E301214DF21B40BA
:10325000FDF7F7F802214DF21C40FDF7F2F834219A
:103260004DF21D40FDF7EDF802214DF21E40FDF735
:10327000E8F867214DF21F40FDF7E3F802214DF217
:103280002040FDF7DEF884214DF22140FDF7D9F80A
:1032900002214DF22240FDF7D4F8A4214DF2234043
:1032A000FDF7CFF802214DF22440FDF7CAF8B7210F
:1032B0004DF22540FDF7C5F802214DF22640FDF7FD
:1032C000C0F8CF214DF22740FDF7BBF802214DF2A7
:1032D0002840FDF7B6F8DE214DF22940FDF7B1F8A0
:1032E00002214DF22A40FDF7ACF8F2214DF22B40BD
:1032F000FDF7A7F802214DF22C40FDF7A2F8FE21C0
:103300004DF22D40FDF79DF803214DF22E40FDF7C3
:1033100098F810214DF22F40FDF793F803214DF25C
:103320003040FDF78EF833214DF23140FDF789F83A
:1033300003214DF23240FDF784F86D214DF2334008
:10334000FDF77FF800214FF45540FDF77AF833215F
:103350004DF20150FDF775F800214DF20250FDF7D6
:1033600070F834214DF20350FDF76BF800214DF257
:103370000450FDF766F83A214DF20550FDF761F86B
:1033800000214DF20650FDF75CF84A214DF207503E
:10339000FDF757F800214DF20850FDF752F85C2177
:1033A0004DF20950FDF74DF800214DF20A50FDF79E
:1033B00048F881214DF20B50FDF743F800214DF202
:1033C0000C50FDF73EF8A6214DF20D50FDF739F8EF
:1033D00000214DF20E50FDF734F8E5214DF20F506B
:1033E000FDF72FF801214DF21050FDF72AF81321B7
:1033F0004DF21150FDF725F801214DF21250FDF765
:1034000020F854214DF21350FDF71BF801214DF225
:103410001450FDF716F882214DF21550FDF711F802
:1034200001214DF21650FDF70CF8CA214DF217504C
:10343000FDF707F802214DF21850FDF702F80021C0
:103440004DF21950FCF7FDFF02214DF21A50FCF726
:10345000F8FF01214DF21B50FCF7F3FF02214DF262
:103460001C50FCF7EEFF34214DF21D50FCF7E9FF34
:1034700002214DF21E50FCF7E4FF67214DF21F5070
:10348000FCF7DFFF02214DF22050FCF7DAFF842128
:103490004DF22150FCF7D5FF02214DF22250FCF7EE
:1034A000D0FFA4214DF22350FCF7CBFF02214DF2B7
:1034B0002450FCF7C6FFB7214DF22550FCF7C1FFA1
:1034C00002214DF22650FCF7BCFFCF214DF22750D0
:1034D000FCF7B7FF02214DF22850FCF7B2FFDE21C6
:1034E0004DF22950FCF7ADFF02214DF22A50FCF7B6
:1034F000A8FFF2214DF22B50FCF7A3FF02214DF261
:103500002C50FCF79EFFFE214DF22D50FCF799FF49
:1035100003214DF22E50FCF794FF10214DF22F5055
:10352000FCF78FFF03214DF23050FCF78AFF332167
:103530004DF23150FCF785FF03214DF23250FCF77C
:1035400080FF6D214DF23350FCF77BFF00214FF4DB
:103550005640FCF776FF33214DF20160FCF771FF16
:1035600000214DF20260FCF76CFF34214DF2036044
:10357000FCF767FF00214DF20460FCF762FF3A217F
:103580004DF20560FCF75DFF00214DF20660FCF78F
:1035900058FF4A214DF20760FCF753FF00214DF21E
:1035A0000860FCF74EFF5C214DF20960FCF749FF13
:1035B00000214DF20A60FCF744FF81214DF20B60BF
:1035C000FCF73FFF00214DF20C60FCF73AFFA6210B
:1035D0004DF20D60FCF735FF00214DF20E60FCF757
:1035E00030FFE5214DF20F60FCF72BFF01214DF27A
:1035F0001060FCF726FF13214DF21160FCF721FF4C
:1036000001214DF21260FCF71CFF54214DF21360B2
:10361000FCF717FF01214DF21460FCF712FF822125
:103620004DF21560FCF70DFF01214DF21660FCF71D
:1036300008FFCA214DF21760FCF703FF02214DF28B
:103640001860FCF7FEFE00214DF21960FCF7F9FE50
:1036500002214DF21A60FCF7F4FE01214DF21B60CD
:10366000FCF7EFFE02214DF21C60FCF7EAFE34216C
:103670004DF21D60FCF7E5FE02214DF21E60FCF7E5
:10368000E0FE67214DF21F60FCF7DBFE02214DF2E8
:103690002060FCF7D6FE84214DF22160FCF7D1FEBC
:1036A00002214DF22260FCF7CCFEA4214DF22360F2
:1036B000FCF7C7FE02214DF22460FCF7C2FEB721E1
:1036C0004DF22560FCF7BDFE02214DF22660FCF7AD
:1036D000B8FECF214DF22760FCF7B3FE02214DF278
:1036E0002860FCF7AEFEDE214DF22960FCF7A9FE52
:1036F00002214DF22A60FCF7A4FEF2214DF22B606C
:10370000FCF79FFE02214DF22C60FCF79AFEFE2191
:103710004DF22D60FCF795FE03214DF22E60FCF773
:1037200090FE10214DF22F60FCF78BFE03214DF22D
:103730003060FCF786FE33214DF23160FCF781FEEC
:1037400003214DF23260FCF77CFE6D214DF23360B7
:10375000FCF777FE55212046FCF773FEAA21284688
:10376000FCF76FFE52213046FCF76BFE082138460D
:10377000FCF767FE00216046FCF763FECC2148465B
:10378000FCF75FFE00215046FCF75BFE052140463A
:10379000FCF757FE70214FF43740FCF752FE7021C2
:1037A0004BF20170FCF74DFE01214FF43840FCF75D
:1037B00048FE03214BF60100FCF743FE03214BF6C4
:1037C0000200FCF73EFE03214BF60300FCF739FE36
:1037D00002214FF43C40FCF734FE00214BF601403F
:1037E000FCF72FFE00214BF60240FCF72AFED02109
:1037F0004FF44940FCF725FE02214CF60110FCF77E
:1038000020FE50214CF60210FCF71BFE50214CF616
:103810000310FCF716FE50214CF60410FCF711FEC5
:1038200000214FF45450FCF70CFE55214FF4685022
:10383000FCF707FE4FF48850FCF7B6FD782001F046
:103840002EFD4FF42450FCF7AFFD01F047BAA0F570
:1038500013414FF480774FF4E06940F2022A40F2BE
:103860003F144FF42746253928D040F20775C91E6A
:103870007ED04FF4887608317BD011397AD0A0F50C
:10388000A841083977D0A0F5A8514FF44076053902
:1038900072D0B1F5204170D0B1F580516ED0A0F555
:1038A000094189396BD0A0F58A41313968D0091FA7
:1038B00067D0A0F5C85163397DD0C6E747F6F0015F
:1038C000E520FCF7BEFD39460120FCF7BAFD49466C
:1038D0000220FCF7B6FD41F230010320FCF7B1FDF8
:1038E00000210420FCF7ADFD51460820FCF7A9FD9E
:1038F00000210920FCF7A5FD00210A20FCF7A1FD0D
:1039000000210C20FCF79DFD00210D20FCF799FD06
:1039100000210F20FCF795FD00211020FCF791FD00
:1039200007211120FCF78DFD00211220FCF789FDF5
:1039300000211320FCF785FD00210720FCF781FD05
:1039400041F290611020FCF77CFD40F2272111200C
:10395000FCF777FD9D211220FCF773FD4FF4C85151
:103960001320FCF76EFD25212920FCF76AFD09E0F4
:103970007CE037E1DAE1AEE249E3FDE3FDE3FDE3BC
:10398000FDE3FDE30D212B20FCF75BFD072130203B
:10399000FCF757FD40F203313120FCF752FD0321C3
:1039A0003220FCF74EFD40F206213520FCF749FDA0
:1039B0000821362000E0FDE3FCF743FD40F206411C
:1039C0003720FCF73EFD4FF441713820FCF739FDFC
:1039D00007213920FCF735FD40F202613C20FCF75D
:1039E00030FD08213D20FCF72CFD00215020FCF784
:1039F00028FDEF215120FCF724FD00215220FCF787
:103A000020FD21465320FCF71CFD31466020FCF7C9
:103A100018FD01216120FCF714FD00216A20FCF74C
:103A200010FD00218020FCF70CFD00218120FCF717
:103A300008FD00218220FCF704FD00218320FCF713
:103A400000FD00218420FCF7FCFC00218520FCF710
:103A5000F8FC10219020FCF7F4FC4FF4C061922098
:103A6000FCF7EFFC40F233110720FDE341F28F0138
:103A7000EC20FCF7E6FC41F23421EF20FCF7E1FCFE
:103A800039460120FCF7DDFC49460220FCF7D9FC51
:103A900041F230010320FCF7D4FC00210420FCF7A4
:103AA000D0FC51460820FCF7CCFC00210920FCF793
:103AB000C8FC00210A20FCF7C4FC01210C20FCF703
:103AC000C0FC00210D20FCF7BCFC00210F20FCF7FE
:103AD000B8FC00211020FCF7B4FC07211120FCF7F2
:103AE000B0FC00211220FCF7ACFC00211320FCF7F5
:103AF000A8FC01210720FCF7A4FC322001F0E6FB22
:103B000041F290411020FCF79CFC40F2272111204B
:103B1000FCF797FC322001F0D9FB8A211220FCF738
:103B200090FC322001F0D2FB4FF4D0511320FCF76F
:103B300088FC06212920FCF784FC0D212B20FCF7B2
:103B400080FC322001F0C2FB00212020FCF779FC30
:103B500000212120FCF775FC322001F0B7FB002189
:103B60003020FCF76EFC40F204613120FCF769FC68
:103B700040F205313220FCF764FC00213520FCF7CF
:103B800060FC40F609413620FCF75BFC4FF4017104
:103B90003720FCF756FC40F201313820FCF751FC8D
:103BA00029463920FCF74DFC00213C20FCF749FC5C
:103BB00040F60A213D20FCF744FC322001F086FB50
:103BC00000215020FCF73DFCEF215120FCF739FC8F
:103BD00000215220FCF735FC21465320FCF731FC34
:103BE00031464DE100210846FCF72BFC3946012007
:103BF000FCF727FC49460220FCF723FC41F2300188
:103C00000320FCF71EFC00210420FCF71AFC51469F
:103C10000820FCF716FC00210920FCF712FC00210B
:103C20000A20FCF70EFC01210C20FCF70AFC002105
:103C30000D20FCF706FC00210F20FCF702FC3220CF
:103C400001F044FB40F201110720FCF7FAFB32209F
:103C500001F03CFB4FF486511020FCF7F2FB0721EA
:103C60001120FCF7EEFB31461220FCF7EAFB4FF483
:103C700030611320FCF7E5FB00212920FCF7E1FB74
:103C800044F210012B20FCF7DCFB00215020FCF754
:103C9000D8FBEF215120FCF7D4FB00215220FCF788
:103CA000D0FB21465320FCF7CCFB4FF41C51602085
:103CB000FCF7C7FB01216120FCF7C3FB00216A2050
:103CC000FCF7BFFB00218020FCF7BBFB002181201B
:103CD000FCF7B7FB00218220FCF7B3FB0021832017
:103CE000FCF7AFFB00218420FCF7ABFB0021852013
:103CF000FCF7A7FB10219020FCF7A3FB00219220EA
:103D0000FCF79FFB01219320FCF79BFB314695209C
:103D1000FCF797FB00219720FCF793FB00219820EC
:103D2000FCF78FFB40F2731107207FE341F214018F
:103D3000E720FCF786FB39460120FCF782FB4FF4B5
:103D400000710220FCF77DFB41F238010320FCF7F3
:103D500078FB51460820FCF774FB00210920FCF792
:103D600070FB00210A20FCF76CFB00210C20FCF703
:103D700068FB00210D20FCF764FB00210F20FCF7FD
:103D800060FB00211020FCF75CFB07211120FCF7F1
:103D900058FB00211220FCF754FB00211320FCF7F4
:103DA00050FBC82001F092FA41F290611020FCF71C
:103DB00048FB40F227211120FCF743FB322001F0A1
:103DC00085FA0C211220FCF73CFB322001F07EFA30
:103DD0004FF400611320FCF734FB11212920FCF77C
:103DE00030FB0B212B20FCF72CFB322001F06EFA6C
:103DF00000212020FCF725FB21462120FCF721FB98
:103E000000213020FCF71DFB4FF483763146312032
:103E1000FCF717FB00213220FCF713FB4FF4017174
:103E20003520FCF70EFB41F20A613620FCF709FB56
:103E300029463720FCF705FB31463820FCF701FB0B
:103E400029463920FCF7FDFA40F202413C20FCF7FC
:103E5000F8FA40F60F413D20FCF7F3FA002150201C
:103E6000FCF7EFFAEF215120FCF7EBFA002152208A
:103E7000FCF7E7FA21465320FCF7E3FA4FF41C5114
:103E80006020FCF7DEFA01216120FCF7DAFA00215C
:103E90006A20FCF7D6FA00218020FCF7D2FA002134
:103EA0008120FCF7CEFA00218220FCF7CAFA00211B
:103EB0008320FCF7C6FA00218420FCF7C2FA002117
:103EC0008520FCF7BEFA10219020FCF7BAFA4FF4D7
:103ED000C0619220FEE339460120FCF7B2FA494660
:103EE0000220FCF7AEFA41F230010320FCF7A9FAF8
:103EF00000210420FCF7A5FA40F207210820FCF776
:103F0000A0FA00210920FCF79CFA00210A20FCF706
:103F100098FA00210C20FCF794FA00210D20FCF700
:103F200090FA00210F20FCF78CFA142001F0CEF952
:103F300041F2B0611020FCF784FA01211120FCF756
:103F400080FA01211720FCF77CFA4FF49C711220B3
:103F5000FCF777FA4FF400611320FCF772FA09219D
:103F60002920FCF76EFA09212A20FCF76AFA0021C1
:103F7000A420FCF766FA00215020FCF762FAEF213A
:103F80005120FCF75EFA00215220FCF75AFA214634
:103F90005320FCF756FA4FF41C516020FCF751FAFD
:103FA00001216120FCF74DFA00216A20FCF749FA53
:103FB00000218020FCF745FA00218120FCF741FA1E
:103FC00000218220FCF73DFA00218320FCF739FA1A
:103FD00000218420FCF735FA00218520FCF731FA16
:103FE00013219020FCF72DFA00219220FCF729FAEA
:103FF00003219320FCF725FA31469520FCF721FA9E
:1040000040F273110720FCF71CFA32200EE1002168
:104010000720FCF716FA322001F058F94FF48E71A0
:104020001220FCF70EFA0121A420FCF70AFA0F2156
:104030000820FCF706FA08210A20FCF702FA0821FA
:104040000D20FCF7FEF929463020FCF7FAF907218C
:104050003120FCF7F6F940F203613220FCF7F1F968
:1040600049463320FCF7EDF951463420FCF7E9F9D5
:1040700002213520FCF7E5F941F60F713620FCF7F7
:10408000E0F929463720FCF7DCF900213820FCF75D
:10409000D8F900213920FCF7D4F929463A20FCF759
:1040A000D0F900213B20FCF7CCF907213C20FCF79C
:1040B000C8F900213D20FCF7C4F9322001F006F9CF
:1040C00001210720FCF7BDF901211720FCF7B9F900
:1040D000322001F0FBF84FF4BD511020FCF7B1F98C
:1040E00040F217211120FCF7ACF94FF48F71122028
:1040F000FCF7A7F94FF470611320FCF7A2F9002137
:104100002A20FCF79EF90A212920FCF79AF94FF49E
:104110009F711220FCF795F900215020FCF791F9CE
:10412000EF215120FCF78DF900215220FCF789F98D
:1041300021465320FCF785F94FF41C516020FCF711
:1041400080F901216120FCF77CF900216A20FCF74D
:1041500078F900218020FCF774F900218120FCF718
:1041600070F900218220FCF76CF900218320FCF714
:1041700068F90021842004E05BE058E11FE2D3E20B
:1041800087E3FCF75EF900218520FCF75AF913213B
:104190009020FCF756F931469220FCF752F90521A0
:1041A0009320FCF74EF900219520FCF74AF90021F5
:1041B000972000E0FDE3FCF744F900219820FCF78C
:1041C00040F939460120FCF73CF949460220FCF74A
:1041D00038F941F238010320FCF733F900210420BB
:1041E000FCF72FF900210C20FCF72BF900210F2000
:1041F000FCF727F900212020FCF723F900212120DA
:10420000FCF71FF921210720FCF71BF9142001F00E
:104210005DF861210720FCF714F9142001F056F82D
:1042200040F273110720FCF70CF9142001F04EF84E
:104230002EE300210846FCF704F900210846FCF7AC
:1042400000F900210846FCF7FCF800210846FCF7BD
:10425000F8F80121A420FCF7F4F8142001F036F856
:104260004FF41C55294600E0DCE06020FCF7E9F83B
:10427000564651460820FCF7E4F84FF4057130200B
:10428000FCF7DFF843F215713120FCF7DAF840F261
:1042900004613220FCF7D5F840F616613320FCF7B4
:1042A000D0F842F211213420FCF7CBF84FF4A8519A
:1042B0003520FCF7C6F848F207513620FCF7C1F864
:1042C00041F207413720FCF7BCF841F203413820A6
:1042D000FCF7B7F820213920FCF7B3F81A21902019
:1042E000FCF7AFF800211020FCF7ABF807211120F4
:1042F000FCF7A7F800211220FCF7A3F800211320F7
:10430000FCF79FF8142000F0E1FF4FF4E661102065
:10431000FCF797F840F237111120FCF792F81420BF
:1043200000F0D4FF4FF4DC711220FCF78AF814205F
:1043300000F0CCFF4FF470611320FCF782F880216D
:104340002A20FCF77EF848212920FCF77AF814206F
:1043500000F0BCFF39460120FCF773F84946022003
:10436000FCF76FF841F238010320FCF76AF8314698
:104370000820FCF766F800210A20FCF762F800210B
:104380000C20FCF75EF800210D20FCF75AF83021D4
:104390000E20FCF756F800215020FCF752F8EF21D0
:1043A0005120FCF74EF800215220FCF74AF8214634
:1043B0005320FCF746F829466020FCF742F801211B
:1043C0006120FCF73EF800216A20FCF73AF8112141
:1043D0009020FCF736F84FF4C0619220FCF731F8DA
:1043E00040F202419320FCF72CF802219420FCF7C4
:1043F00028F8142000F06AFF01210720FCF721F8BB
:10440000142000F063FF61210720FCF71AF840F246
:1044100073110720FCF715F800212020FCF711F894
:1044200000212120FCF70DF8222100202EE200219E
:104430000846FCF706F800210846FCF702F81420AD
:1044400000F044FF00210846FBF7FBFF002108466F
:10445000FBF7F7FF00210846FBF7F3FF00210846B2
:10446000FBF7EFFF0121A420FBF7EBFF142000F086
:104470002DFF4FF41C516020FBF7E3FF40F60601CF
:104480000820FBF7DEFF40F2037529463020FBF7DA
:10449000D8FF01213120FBF7D4FF04213220FBF7A4
:1044A000D0FF4FF481713320FBF7CBFF314634202E
:1044B000FBF7C7FF40F203113520FBF7C2FF1F21B6
:1044C0003620FBF7BEFF29463720FBF7BAFF012154
:1044D0003820FBF7B6FF04213920FBF7B2FF152186
:1044E0009020FBF7AEFF4FF482611020FBF7A9FF8D
:1044F00040F247211120FBF7A4FF4FF4DE71122098
:10450000FBF79FFF4FF460611320FBF79AFF7820C1
:1045100000F0DCFE39460120FBF793FF4FF40071F9
:104520000220FBF78EFF41F230010320FBF789FFE9
:1045300008210A20FBF785FF00210C20FBF781FFF3
:1045400020210E20FBF77DFF00210F20FBF779FFD4
:1045500000212020FBF775FF00212120FBF771FFD0
:104560003D212A20FBF76DFF142000F0AFFE2D2126
:104570002920FBF766FF00215020FBF762FF4DF278
:10458000EF015120FBF75DFF00215220FBF759FF9F
:1045900021465320FBF755FF00216120FBF751FF17
:1045A00000216A20FBF74DFF31469220FBF749FFBF
:1045B00005219320FBF745FF3946FFF7B5BB0121E5
:1045C0000020FBF73EFF4AF6A4010320FBF739FF6A
:1045D00000210C20FBF735FF40F60C010D20FBF706
:1045E00030FF4FF42C510E20FBF72BFFB0211E2083
:1045F000FBF727FF42F63F310120FBF722FF4FF484
:10460000C0610220FBF71DFF00211020FBF719FFFE
:1046100046F278011120FBF714FF00210520FBF77B
:1046200010FF00210620FBF70CFF4EF61C71162030
:10463000FBF707FF03211720FBF703FF40F23321AD
:104640000720FBF7FEFE00210B20FBF7FAFE0021FE
:104650000F20FBF7F6FE00214120FBF7F2FE0021C0
:104660004220FBF7EEFE00214820FBF7EAFE214640
:104670004920FBF7E6FE00214A20FBF7E2FE00217D
:104680004B20FBF7DEFE4FF46F414420FBF7D9FED1
:1046900000214520FBF7D5FE21464620FBF7D1FE41
:1046A00029463020FBF7CDFE4FF40174214631201E
:1046B000FBF7C7FE21463220FBF7C3FE40F202554E
:1046C00029463320FBF7BDFE691D3420FBF7B9FEF8
:1046D000214600E082E13520FBF7B3FE214636207B
:1046E000FBF7AFFE29463720FBF7ABFE40F2023462
:1046F00021463A20FBF7A5FE21463B20FBF7A1FE11
:1047000000212320FBF79DFE00212420FBF799FECA
:104710004FF400412520FBF794FE00214F20FBF7CA
:1047200090FE00214E20B1E001210020FBF789FE20
:104730000A2000F0CBFD41F228611020FBF781FE3A
:104740000E211220FBF77DFE40F639211320FBF7E6
:1047500078FE0A2000F0BAFD40211120FBF771FE1F
:1047600050211520FBF76DFE0A2000F0AFFD1E2141
:104770001220FBF766FE0A2000F0A8FD4FF4B151AD
:104780001020FBF75EFE42F639211320FBF759FE9D
:104790000A2000F09BFD39460120FBF752FE31460E
:1047A0000220FBF74EFE41F238010320FBF749FEE1
:1047B00051460820FBF745FE08210A20FBF741FE81
:1047C00000213020FBF73DFE40F202413120FBF793
:1047D00038FE4FF483713220FBF733FE40F2035171
:1047E0003320FBF72EFE4FF482713420FBF729FEB5
:1047F00040F201313520FBF724FE29463620FBF735
:1048000020FE40F205313720FBF71BFE4FF402710A
:104810003820FBF716FE40F60B713920FBF711FE2E
:1048200002214120FBF70DFE4FF41C516020FBF7E5
:1048300008FE01216120FBF704FE4FF40471902073
:10484000FBF7FFFD4FF485719220FBF7FAFD042181
:104850009320FBF7F6FD3946A020FBF7F2FD01217E
:104860000720FBF7EEFD21210720FBF7EAFD2321BE
:104870000720FBF7E6FD33210720FBF7E2FD40F2BE
:1048800033110720FBF7DDFD0021A020FBF7D9FD48
:1048900024E230211520FBF7D4FD10219A20FBF7EC
:1048A000D0FD20211120FBF7CCFD43F22841102040
:1048B000FBF7C7FD02211220FBF7C3FD41F23801CF
:1048C0001320FBF7BEFD282000F000FD1221084652
:1048D000FBF7B7FD282000F0F9FC43F2204110203F
:1048E000FBF7AFFD43F238011320FBF7AAFD46208A
:1048F00000F0ECFC00213020FBF7A3FD40F2024168
:104900003120FBF79EFD40F207313220FBF799FD85
:104910004FF441713320FBF794FD04213420FBF761
:1049200090FD40F201413520FBF78BFD29463620F2
:10493000FBF787FD40F205313720FBF782FD4FF48E
:10494000C26421463820FBF77CFD21463920FBF765
:1049500078FD39460120FBF774FD31460220FBF754
:1049600070FD41F230010320FBF76BFD40F60801BA
:104970000820FBF766FD08210A20FBF762FD4FF4D3
:104980001C516020FBF75DFD01216120FBF759FD03
:104990004FF49F719020FBF754FD39469220FBF7AE
:1049A00050FD39469320FBF74CFD4FF44051A020B9
:1049B00000E018E0FBF745FD1021A320FBF741FDC7
:1049C00001210720FBF73DFD21210720FBF739FDE1
:1049D00023210720FBF735FD33210720FBF731FDAD
:1049E00040F23311E9E5E220FBF7DEFC4446C8F86B
:1049F00010704FF40075C8F81450DFF87C851D2145
:104A0000C8F800108026666126612561276165610E
:104A10000220C8F800006661266125612761656192
:104A20000420C8F80000666126612561642000F05A
:104A300036FCE020FBF7B8FC276165614FF0010907
:104A4000C8F800906661266125610A2000F03EFCEE
:104A5000E020FBF7A9FC276165614FF0030AC8F865
:104A600000A06661266125610C2000F02FFC01206A
:104A7000FBF79AFC0A2000F029FCE620FBF794FCE7
:104A8000276165612F21C8F80010666126612561E4
:104A900027616561FF21C8F8001066612661256104
:104AA00027616561C8F80010666126612561B02044
:104AB000FBF77AFC2761656120214046C8F80010A9
:104AC000666126612561276165614FF0000CC8F8B9
:104AD00000C066612661256127616561C8F800A094
:104AE0006661266125612761656140F21F310160C1
:104AF00066612661256127616561C8F8009066617D
:104B0000266125612761656140F2DF11C8F8001058
:104B100066612661256127616561C8F800C066612C
:104B200026612561B420FBF73FFC27616561042005
:104B3000C8F800006661266125612761656140F261
:104B40001F414046C8F80010666126612561276153
:104B50006561C8F800C066612661256127616561ED
:104B60002E21C8F800106661266125612761656104
:104B7000C0F800C066612661256127616561C0F8E3
:104B800000C066612661256127616561C0F800C0CB
:104B900066612661256127616561C0F800C06661B4
:104BA00026612561B620FBF7FFFB276165610221C5
:104BB0004046C8F80010666126612561276165617D
:104BC0004FF40371C8F80010666126612561276102
:104BD0006561C8F800C0666126612561276165616D
:104BE00017210160666126612561276165611521D4
:104BF000016066612661256127616561C0F800C0BA
:104C000066612661256127616561C0F800C0666143
:104C100026612561F020FBF7C7FB27616561C8F8B5
:104C200000A06661266125612920FBF7BDFBD0202D
:104C3000FBF7BAFB27616561C8F800C066612661B1
:104C40002561BE20FBF7B0FB276165610521C8F82F
:104C5000001066612661256127616561FE21C8F843
:104C6000001066612661256127616561C8F80090C2
:104C700066612661256127616561C8F800C06661CB
:104C80002661256127616561C8F800C066612661FB
:104C9000256127616561C8F800C0666126612561EC
:104CA000B820FBF781FB27616561C8F800A0666149
:104CB0002661256127616561C8F8009066612661FB
:104CC0002561BA20FBF770FB27616561C8F8009089
:104CD0006661266125616420FCF75DF90020FCF720
:104CE000A1F9A6490120C1F8A8015846FCF7DDFB4F
:104CF000BDE8F88F2DE9F84FA14D81469846A88868
:104D00000A9EA0F5D043043B02D1A87901280AD01D
:104D1000A2EB0900401C85B20C469A4F4FF4007A72
:104D20004FF0800B31E02B880846991A0024AC71B3
:104D30002A24A3EB09036C812B27491E5B1EAF813C
:104D400089B242469BB20096FFF7D4FF0120A871BA
:104D50006F81AC81CCE721464846FBF7A6FBFBF709
:104D600087FB00204FF4807C5346834A594608E075
:104D7000C7F810C07B611660796139613B61401CE6
:104D800080B2A842F4D3641CA4B24445E3D9AFE78F
:104D90002DE9F04F8346A2EB0B00401C894685B2FB
:104DA000A3EB0900401C1FFA80FA0024099E21E0B1
:104DB00009EB040081B25846FBF777FBFBF758FB81
:104DC000704900204B154FF480786B4A80270DE026
:104DD000C1F810804B6104FB050C36F81CC0C2F80A
:104DE00000C04F610F610B61401C80B2A842EFD33D
:104DF000641CA4B25445DBD3BDE8F08F2DE9FE4F0F
:104E00000026A2EB000882465F1A701E35468946CE
:104E1000B8F1000F02DD4FF0010102E003D14FF0C5
:104E20000001019102E0C8F100080190002F02DDAD
:104E30004FF0010002E003D14FF00000009002E0CB
:104E4000C7F1000700904046B84501DD044600E088
:104E50003C46601C4FF0000B029015E01FFA89F1F0
:104E60001FFA8AF0FBF732FF46443D44A64202DDBA
:104E70000199361B8A44A54202DD00992D1B894405
:104E80000BF101001FFA80FB02998B45E6DDBDE8BE
:104E9000FE8FF0B51C4615460E4607460B46FFF73B
:104EA000ADFF3A46234631461046FFF7A7FF23469B
:104EB0002A4619463846FFF7A1FF2A4623463146BF
:104EC000BDE8F040104699E72DE9FC4F80460024EC
:104ED000154603200F46A0EB450649E0781B81B23A
:104EE00008EB040A01901FFA8AF0FBF7EFFE381B6B
:104EF00081B208EB050900901FFA89F0FBF7E6FE86
:104F000007EB040B1FFA8BF11FFA89F0FBF7DEFEAB
:104F100007EB05091FFA89F11FFA8AF0FBF7D6FEA5
:104F2000A8EB040A1FFA89F11FFA8AF0FBF7CEFEFC
:104F3000A8EB05091FFA8BF11FFA89F0FBF7C6FEF3
:104F4000019881B21FFA8AF0FBF7C0FE009881B287
:104F50001FFA89F0FBF7BAFE641C002E03DA06EB99
:104F60008406B61D04E0601B06EB80066D1E0A3643
:104F7000AC42B3DDBDE8FC8F0C0C014000002242C6
:104F8000880400200010014038B50121142000F0F1
:104F9000A4FC0121344800F043FB0420ADF80000DC
:104FA000324D48248DF803406946284600F0ADFA9A
:104FB0000220ADF800008DF803406946284600F055
:104FC000A4FA0120ADF800008DF803406946284698
:104FD00000F09BFA38BD70B5254C244D012608B170
:104FE000267001E0207870B10421284600F0E3FA31
:104FF00080B10221284600F0DEFA58B1012128468E
:1050000000F0D9FA30B10421284600F0D4FA012882
:105010001BD027E00A2000F059F90020207004215D
:10502000284600F0C8FA50B10221284600F0C3FA21
:1050300038B10121284600F0BEFA20B112E001206B
:1050400070BD022070BD032070BD0221284600F013
:10505000B2FA012806D10121284600F0ACFA012855
:1050600000D12670002070BD000230000008014011
:105070001600002038490880081F01884906FCD521
:10508000704710B50C460346002204E0985CFFF719
:10509000F1FF521CD2B2A242F8D310BD0CB52FA022
:1050A0000221006800902EA0006801906846FFF77A
:1050B000E8FF02212B48FFF7E4FF022101A8FFF7D8
:1050C000E0FF0CBD70B5274C2648A41E008821883F
:1050D000081A07F007FE054660602946606907F078
:1050E0002DFE06462846A16807F0F4FE216907F068
:1050F00025FEE16807F074FD314607F071FD1A499D
:10510000E060884200DDE160E06807F0CBFD81B23D
:10511000164801F0D2FB6068A06070BD10B5012197
:105120008C07204601F0E7FB01280AD10121204627
:1051300001F0F7FB05F063FBFFF7C4FFBDE810408B
:10514000ACE710BD0A4810B5008807F0E3FDBDE8E4
:105150001040084907F0BEBE0438014003FC0000BF
:10516000FC0300001A00002000006144002C0140F4
:10517000460300200000204230B50D4604460121C0
:1051800089B0C80200F0A9FB0121042000F0A5FBB2
:105190004FF48072ADF81C2018228DF81F200320D8
:1051A0008DF81E0007A9194800F0AFF9ADF81440BA
:1051B000ADF810500024164DADF81640ADF8124071
:1051C00004A9284600F0D0FE7021ADF8001001209F
:1051D000ADF802000220ADF80800ADF806406946BF
:1051E000284600F0FAFE0121284601F06FF9082157
:1051F000284601F03FFA0121284601F013FA012167
:10520000284601F059F909B030BD000000080140FE
:10521000002C01407FB50E4605460121084600F0EE
:1052200065FB0024ADF80640ADF80450ADF802402F
:105230004FF08045ADF800606946284600F094FEC6
:105240001C208DF80C0001218DF80F108DF80D40F9
:105250008DF80E1003A800F028FD01221146284603
:1052600001F03FF90121284601F026F97FBD000039
:1052700010B56FF0040000F058FD20482049006888
:10528000B0FBF1F01F49C0B200EB40020870C2EB66
:10529000C0104FF6FF7202EAC000488010BD1949E5
:1052A000097848434FF0E021486100238B61086989
:1052B00040F0010008610869C20701D0C003FAD5B7
:1052C000086920F0010008618B6170470D49498829
:1052D00048434FF0E021486100238B61086940F0AA
:1052E000010008610869C20701D0C003FAD5086946
:1052F00020F0010008618B61704700000000002071
:1053000000127A0030000020704740490A88520697
:10531000FCD53E4AC1B2121D1180704770B50546DA
:1053200086B0012144F2040000F0D7FA4FF4007077
:10533000ADF8100003248DF812401820344E8DF87B
:10534000130004A9304600F0E0F83015ADF8100065
:1053500004208DF8130004A9304600F0D6F825206B
:105360008DF814008DF815408DF8164001208DF849
:10537000170005A800F099FC0020ADF80400ADF876
:105380000600ADF80800ADF80C000C201F4CADF87D
:105390000A0000956946204600F01EFB012240F2FB
:1053A0002551204600F095FB0121204600F087FBA7
:1053B00006B070BD70B5154C40F22551204600F086
:1053C0003FFC00280ED0204600F0D3FB114AC1B2AA
:1053D0001088030406D444044FF0000306D50A29BC
:1053E00001D0138070BD40F400400DE00D2909D0BC
:1053F000C0F30D04084D401C80B229551080C72809
:10540000EFD870BD40F48040108070BD003801407E
:10541000000801403400002096040020094880471D
:1054200009480047FEE7FEE7FEE7FEE7FEE7FEE786
:10543000FEE7FEE7FEE7FEE704480549054A064B9E
:1054400070470000F1020008ED000008100800207D
:10545000100E0020100A0020100A00208F4910B5FD
:10546000884206D10121042000F049FA00210420DD
:105470003BE08B49884206D10121082000F03FFA29
:105480000021082031E08749884206D101211020FF
:1054900000F035FA0021102027E08349884206D128
:1054A0000121202000F02BFA002120201DE07F495F
:1054B000884206D10121402000F021FA002140203D
:1054C00013E07B49884206D10121802000F017FAC1
:1054D0000021802009E0774988420AD18415012102
:1054E000204600F00CFA00212046BDE8104000F0F4
:1054F00006BA10BD10B50121084600F000FA0021DF
:10550000BDE81040012000F0FAB9F0B5CC780022D7
:1055100004F00F03E40601D58C7823430C784FF098
:105520000F0C14F0FF0F4FF0010E1BD005680E8812
:105530000EFA02F42640A64210D196000CFA06F7A5
:1055400025EA070703FA06F5CE783D43282E02D058
:10555000482E02D002E0446100E00461521C082A97
:10556000E5D305600A88FF2A1CD94468002202F1AD
:1055700008060EFA06F50E882E40AE420ED19600B1
:105580000CFA06F7BC4303FA06F7CE783C43282E04
:1055900000D14561CE78482E00D10561521C082A01
:1055A000E5D34460F0BD4FF6FF71018002218170A8
:1055B0000421C17070470246002092680A4200D060
:1055C00001207047806880B2704702460020D26890
:1055D0000A4200D001207047C06880B27047016164
:1055E0007047416170470AB101617047416170477E
:1055F000C160704741F4803282618161826181695A
:10560000806970472C4B10B51A684FF680742240A1
:1056100042EA00100843186010BD2849C86170476D
:10562000F0B5254C002801DAE36900E06368450D18
:105630002E0185B2C0F30157B540C0F30342032FDA
:1056400005D0C6020AD503269640B34307E023F0EF
:105650007062636823F07063636002E0AB4343F001
:10566000706201B12A43002801DAE261F0BD626094
:10567000F0BD10B58A0721F003040F49120F214431
:105680000F238C6893409C438C608B68904003434D
:105690008B6010BD0949C1F8DC007047000801406B
:1056A000000C0140001001400014014000180140AE
:1056B000001C014000200140000001400000204289
:1056C000A548016841F0010101604168A34A114009
:1056D00041600168A24A11400160016821F4802103
:1056E0000160416821F4FE0141604FF41F018160B7
:1056F000704799490A6822F480320A600A6822F4E5
:1057000080220A60B0F5803F07D0B0F5802F03D12A
:10571000086840F4A02008607047086840F48030B2
:10572000F9E70346002059098B4A01290AD00229CA
:105730000AD0516A03F01F02012393400B4200D0AC
:10574000012070471168F5E7116AF3E718B50020EA
:105750004FF4A06400903120FFF7E3FF0099491C4B
:105760000091A14201D00028F5D03120FFF7D9FFE8
:10577000002800D0012018BD774A116821F0F801F7
:1057800041EAC00010607047764908607047724B6C
:105790005A68084322F47C121043586070477149DC
:1057A000086670476C4A516821F00301014351605B
:1057B00070476948406800F00C007047664A5168BD
:1057C00021F0F001014351607047634A516821F4B0
:1057D000E0610143516070475F4A516821F46051B4
:1057E00041EAC000506070475B4A0029517A01D0FD
:1057F000014300E08143517270475A49C1F8D80013
:105800007047554A516821F4404101435160704747
:105810005149002281F8202081F82020012802D05F
:10582000042802D1052081F8200070474E49086005
:10583000704749490A6A02430A6270474A49443933
:105840000860704730B5444A5168484B11F00C016C
:1058500003D0042901D0082901D0036012E0516867
:10586000536801F470114FF0020413F4803F04EB0D
:10587000914102D053689B0301D53D4B00E03B4B67
:105880005943016051680F2303EA1111394B5C5CE5
:105890000168E14041605468072505EA14241C5D55
:1058A00021FA04F48460546805EAD4241B5DD940CD
:1058B000C1605268032303EA92322E4B1B1F9A5C8D
:1058C000B1FBF2F1016130BD234A0029516901D0D9
:1058D000014300E08143516170471F4A00299169EB
:1058E00001D0014300E08143916170471A4A0029C9
:1058F000D16901D0014300E08143D1617047164A6C
:105900000029D16801D0014300E08143D160704794
:10591000114A0029116901D0014300E0814311615E
:10592000704711494039086070470E49C864704794
:105930000949C87170470848416A41F08071416265
:105940007047054A0146002092680A4200D00120B3
:105950007047014988727047001002400000FFF84C
:10596000FFFFF6FE000042428004424200127A002D
:1059700000093D0040000020C44910B588420AD10A
:1059800001218C032046FFF7BAFF2046BDE81040F6
:105990000021FFF7B4BFBE49884202D101214C0467
:1059A00010E0BC49884202D101218C040AE0BA49C6
:1059B000884202D10121CC0404E0B84988420AD1CE
:1059C00001210C052046FFF7A3FF2046BDE810404B
:1059D0000021FFF79DBF10BD30B50446008A85B099
:1059E0000D464CF6FF710840E98801432182A089E9
:1059F0004EF6F3110840A9882A8911436A890243A7
:105A00001143A181A08A4FF6FF410840A9890143B3
:105A1000A1826846FFF716FF9C48844201D1039893
:105A200000E00298A189090400EBC00101EB00101D
:105A3000296801D5490000E08900B0FBF1F064223B
:105A4000B0FBF2F109010B096FF018056B4300EB95
:105A50008300A3891D044FF0320306D503EBC00079
:105A6000B0FBF2F000F0070005E003EB0010B0FB24
:105A7000F2F000F00F000843208105B030BD4FF474
:105A80001651016000218180C18001810C22428178
:105A90008181704710B5028A4FF2FF031A400B88CC
:105AA0004C8823438C88C9880C43234313430382C7
:105AB00010BD0021018041808180C1807047002994
:105AC000818902D041F4005101E021F4005181812B
:105AD000704710B5C1F3421301F01F040121A1402A
