:020000040800F2
:1000000078070020890100087D070008E506000840
:1000100079070008390200080F10000800000000EE
:10002000000000000000000000000000950900082A
:100030003D020008000000007D080008BD0A00081D
:10004000A3010008A3010008A3010008A301000800
:10005000A3010008A3010008410200086103000891
:10006000A30100088D030008B9030008A3010008DC
:10007000A3010008A3010008A3010008A3010008D0
:10008000A3010008A3010008A3010008A3010008C0
:10009000A3010008A3010008A3010008E103000870
:1000A000A3010008A3010008A3010008A3010008A0
:1000B000BD0B0008A3010008A3010008A30100086C
:1000C000A3010008A3010008A3010008A301000880
:1000D000A3010008CD0D0008A3010008A30100083A
:1000E00065020008A3010008A301000800F002F85F
:1000F00000F03AF80AA090E8000C82448344AAF188
:100100000107DA4501D100F02FF8AFF2090EBAE885
:100110000F0013F0010F18BFFB1A43F0010318473B
:10012000D4170000F4170000103A24BF78C878C133
:10013000FAD8520724BF30C830C144BF04680C60ED
:10014000704700000023002400250026103A28BF35
:1001500078C1FBD8520728BF30C148BF0B60704739
:100160001FB51FBD10B510BD00F033F81146FFF7E5
:10017000F7FF01F00DF900F051F803B4FFF7F2FFBB
:1001800003BC00F05BFF00000948804709480047B6
:10019000FEE7FEE7FEE7FEE7FEE7FEE7FEE7FEE737
:1001A000FEE7FEE704480549054A064B7047000094
:1001B000C10A0008ED00000878010020780700203F
:1001C000780300207803002070477047704770471D
:1001D0007047754600F02CF8AE4605006946534658
:1001E00020F00700854618B020B5FFF7DBFFBDE81B
:1001F00020404FF000064FF000074FF000084FF08E
:10020000000B21F00701AC46ACE8C009ACE8C0091E
:10021000ACE8C009ACE8C0098D46704710B504468B
:10022000AFF300802046BDE81040FFF7A6BF0000F6
:10023000004870471401002000BFFEE7704700002F
:1002400010B5012000F034F90121044800F03FFA14
:1002500010B900200249086010BD0000000C0140E8
:100260003800002010B54FF4004000F027F960B1CD
:100270004FF4004000F01CF94FF40051304800F0FA
:1002800026FA10B92F48304908604FF4005000F0AA
:1002900015F960B14FF4005000F00AF94FF4005125
:1002A000274800F014FA10B92648274908604FF48F
:1002B000804000F003F960B14FF4804000F0F8F89E
:1002C0004FF480411E4800F002FA10B91F481E4941
:1002D00008604FF4806000F0F1F860B14FF4806086
:1002E00000F0E6F84FF48061154800F0F0F910B91D
:1002F0001748154908604FF4006000F0DFF860B15E
:100300004FF4006000F0D4F84FF400610C4800F0A6
:10031000DEF910B90F480C4908604FF4805000F026
:10032000CDF860B14FF4805000F0C2F84FF4805126
:10033000094800F0CCF910B908480349086010BD1D
:10034000000C01400000A041380000200000B44132
:1003500000004841000070410008014000008C414D
:1003600010B50A2000F090FE022000F0A1F8022152
:10037000034800F0ACF910B902480349086010BD09
:10038000000C0140000020403800002010B508207B
:1003900000F094F840B1082000F08AF800200349EA
:1003A000086003480349086010BD0000B401224200
:1003B0000000F0413800002010B5102000F078F85F
:1003C0001021044800F083F910B90348034908607C
:1003D00010BD0000000C0140000002423800002067
:1003E00010B5402000F06AF850B1402000F060F8ED
:1003F0004021264800F06BF910B9254825490860CE
:100400004FF4007000F05AF860B14FF4007000F043
:100410004FF84FF40071204800F059F910B91F4807
:100420001C490860202000F049F850B1202000F05D
:100430003FF82021154800F04AF910B9184815492D
:100440000860802000F03AF850B1802000F030F8C9
:1004500080210E4800F03BF910B912480D490860A0
:100460004FF4807000F02AF878B14FF4807000F0FB
:100470001FF84FF48071084800F029F928B90020CE
:100480000949086009480349086010BD0008014097
:100490000000F04038000020000C01400000DC416A
:1004A0000000A04000002041B40122420000C841E9
:1004B0000149086070470000140401400146002013
:1004C0000022074B1B6803EA0102054B14331B682B
:1004D0000B4013B10AB1012000E00020704700007A
:1004E00000040140002123498279002A3AD00A46BB
:1004F000126803689A430B461A600A1D1268036863
:100500009A430B1D1A60027911440A6803681A4362
:100510000A60184A0832126803689A43154B083378
:100520001A601A1D126803689A43124B0C331A6042
:100530004279102A0ED11A1F126803681A430D4B14
:1005400008331A601A1D126803681A43094B0C33EA
:100550001A600DE00749427911440A6803681A439A
:100560000A6005E0027911440A6803689A430A6048
:10057000704700000004014030B500228B071C0FBB
:100580000F2303FA04F20B4B8C1053F824309343DF
:10059000084C8D1044F8253023468C1053F8243035
:1005A0008C07240F00FA04F42343024C8D1044F806
:1005B000253030BD080001402DE9F04102460025FC
:1005C0000026002000230024002791F803C00CF02F
:1005D0000F0591F803C00CF0100CBCF1000F03D014
:1005E00091F802C04CEA050591F800C0BCF1000F7B
:1005F00031D0146800202BE04FF0010C0CFA00F30E
:10060000B1F800C00CEA03069E4220D183004FF0EF
:100610000F0C0CFA03F7BC4305FA03FC4CEA040484
:1006200091F803C0BCF1280F06D14FF0010C0CFA71
:1006300000FCC2F814C00AE091F803C0BCF1480FF6
:1006400005D14FF0010C0CFA00FCC2F810C0401CA0
:100650000828D1D31460B1F800C0BCF1FF0F34DD1D
:10066000546800202EE000F1080C4FF0010808FA51
:100670000CF3B1F800C00CEA03069E4221D18300BE
:100680004FF00F0C0CFA03F7BC4305FA03FC4CEADD
:10069000040491F803C0BCF1280F05D100F1080C47
:1006A00008FA0CF8C2F8148091F803C0BCF1480FA6
:1006B00007D100F1080C4FF0010808FA0CF8C2F855
:1006C0001080401C0828CED35460BDE8F08102465B
:1006D000002093680B400BB1012000E00020704720
:1006E0000161704700BFFEE72DE9FC5F04460D463F
:1006F0001D4E0027284600F099FF8146214601F053
:1007000079F8804600F076FF1849086008460068CE
:1007100000F08CFF3946009000F0A0FF824613499C
:100720000968134A1268881A00F080FF3146009069
:1007300000F094FF8346514600F0FAFE81460D48D2
:10074000006800F073FF4946019000F0F1FE80461A
:1007500000F050FF07490860044800680449086039
:1007600004480068BDE8FC9F0000A0414000002054
:10077000480000204400002000BFFEE77047000052
:1007800070B5002100230F22C47804B3154C2468EF
:1007900004F4E064C4F5E064210AC1F10403CA4032
:1007A000447804FA03F184781440214309010E4C83
:1007B0000678A155047804F01F050124AC400578A3
:1007C0006D11AD0005F1E025C5F8004109E00478A0
:1007D00004F01F050124AC40044D0678761145F85D
:1007E000264070BD0CED00E000E400E080E100E098
:1007F00002490143024A1160704700000000FA05F7
:100800000CED00E010B5044603211B4800F0FBFB93
:1008100000BF8021184800F029FB0028F9D0FC21F6
:10082000154800F0F0FB00BF8021134800F01EFBCC
:100830000028F9D00021104800F0E5FB00BF80211E
:100840000D4800F013FB0028F9D0FC210A4800F005
:10085000DAFB00BF8021084800F008FB0028F9D02F
:100860000321054800F0CFFB00BF8021024800F0C3
:10087000FDFA0028F9D010BD003801407047000093
:1008800029B1064AD2690243044BDA6104E0034A03
:10089000D2698243014BDA617047000000100240C8
:1008A00029B1064A92690243044B9A6104E0034A63
:1008B00092698243014B9A61704700000010024028
:1008C00030B500210022002400232D4D6D6805F075
:1008D0000C0121B1042905D0082923D105E0294DB7
:1008E000056022E0274D05601FE0254D6D6805F489
:1008F0007012234D6D6805F48034022505EB924299
:100900001CB9214D554305600BE01D4D6D6805F484
:1009100000351DB11C4D5543056002E0194D55438E
:10092000056002E0174D056000BF00BF144D6D6803
:1009300005F0F0010909154D6B5C0568DD40456067
:100940000F4D6D6805F4E061090A104D6B5C456858
:10095000DD4085600A4D6D6805F46051C90A0B4D94
:100960006B5C4568DD40C560054D6D6805F4404130
:10097000890B074D6B5CC568B5FBF3F5056130BDB0
:100980000010024000127A0000093D001E00002005
:100990002E000020704710B500F002F810BD0000D6
:1009A0000CB50020019000903348006840F480307E
:1009B0003149086000BF3048006800F40030009002
:1009C0000198401C0190009818B90198B0F5A06FEB
:1009D000F1D12948006800F4003010B101200090E6
:1009E00001E0002000900098012843D123480068CE
:1009F00040F01000214908600846006820F003001C
:100A000008600846006840F0020008601A48406824
:100A1000194948600846406848600846406840F404
:100A2000806048600846406820F47C1048600846B2
:100A3000406840F4E81048600846006840F0807064
:100A4000086000BF0C48006800F000700028F9D072
:100A50000948406820F0030007494860084640689C
:100A600040F00200486000BF0348406800F00C00FE
:100A70000828F9D10CBD00000010024000200240FF
:100A800010B50446A1B2024800F04BF910BD0000B9
:100A9000002C0140042808D14FF0E021096941F001
:100AA00004014FF0E022116107E04FF0E0210969F5
:100AB00021F004014FF0E0221161704770470000FF
:100AC00010B51348006840F001001149086008465D
:100AD0004068104908400E494860084600680E49C1
:100AE00008400B4908600846006820F48020086030
:100AF0000846406820F4FE0048604FF41F008860FC
:100B0000FFF749FF4FF000600449086010BD000086
:100B1000001002400000FFF8FFFFF6FE08ED00E0C5
:100B200030B589B005460C460121C802FFF7B8FE72
:100B300001210420FFF7B4FE4FF48070ADF82000CF
:100B400018208DF8230003208DF8220008A91948E9
:100B5000FFF732FDADF81850ADF814400020ADF8A5
:100B60001A00ADF8160005A9134800F0DDF8702052
:100B7000ADF804000120ADF806000020ADF80A0031
:100B80000220ADF80C0001A90B4800F075F8012116
:100B9000094800F050F80821074800F0B9F8012191
:100BA000054800F02DF80121034800F038F809B09D
:100BB00030BD000000080140002C014010B50121AB
:100BC000880700F047F8012811D10121800700F0C3
:100BD00023F80848016808480068FFF785FD0749C1
:100BE000086000F017FA05480068FFF749FF002089
:100BF00010BD000034000020380000203C00002020
:100C000021B1028842F08002028004E002884FF69F
:100C10007F731A4002807047CA430282704721B135
:100C2000028842F00102028004E002884FF6FE735F
:100C30001A400280704731B1B0F8442042F40042BB
:100C4000A0F8442005E0B0F84420C2F30E02A0F85A
:100C50004420704702460020138A0B400BB101204C
:100C600000E0002070471AB183890B43838102E0C2
:100C700083898B438381704770B500240022002351
:100C8000058C4FF6FE7635400584028C8388048BF4
:100C90004FF68F752C40B51E2C400D882C43751EC9
:100CA0002A400D892A434D882A43144DA8420BD06F
:100CB000134DA84208D0134DA84205D0124DA842AA
:100CC00002D0124DA84213D14FF6F7752A404D8934
:100CD0002A434FF6FB752A408D882A434FF6FF655D
:100CE0002B404FF6FF552B408D892B43CD892B434D
:100CF00083800483CD888586028470BD002C0140EA
:100D000000340140004001400044014000480140DF
:100D10000A460021018B4FF6F773194011430183F6
:100D20007047818670470000002202881D4B984260
:100D30000ED01D4B98420BD0B0F1804F08D01B4B0A
:100D4000984205D01A4B984202D01A4B984204D1CF
:100D50004FF68F731A404B881A43174B984207D0AF
:100D6000164B984204D04FF6FF431A40CB881A43E3
:100D700002808B8883850B8803850A4B98420BD0B1
:100D8000094B984208D00E4B984205D00D4B984223
:100D900002D00D4B984201D10B7A03860123838246
:100DA00070470000002C0140003401400004004066
:100DB00000080040000C00400010004000140040FB
:100DC00000400140004401400048014010B540F29D
:100DD00025511D4800F057F810B31B4800F00EF9DC
:100DE000C4B21A48008800F40040C8B91748008807
:100DF00000F4804060B10A2C03D000201349088021
:100E000020E01248008840F400401049088019E0B2
:100E10000D2C06D10D48008840F480400B49088015
:100E200010E00A480088C0F30D0009490C54074837
:100E30000088401C0549088008460088C72801DD55
:100E40000020088010BD0000003801401C00002078
:100E50004C00002021B1828942F40052828104E0DA
:100E600082894DF6FF731A40828170470246002046
:100E7000B1F5007F00D100BF13880B400BB10120FA
:100E800000E00020704770B50246002400230025D2
:100E9000002040F66A16B14200D100BFC1F34215EE
:100EA00001F01F03012606FA03F3012D02D19689F2
:100EB000334006E0022D02D1168A334001E0968AC3
:100EC00033400C12012606FA04F41688344013B19C
:100ED0000CB1012000E0002070BDF0B503460024F5
:100EE00000260025002040F66A17B94200D100BF55
:100EF0001846C1F3421401F01F06012707FA06F550
:100F0000012C01D10C3004E0022C01D1103000E0A2
:100F100014301AB107682F43076002E00768AF4337
:100F20000760F0BD2DE9F04786B005460E46002467
:100F3000A24600BFA1460027B08900B100BF2F46DE
:100F40002C8A4CF6FF700440F08804432C82AC8954
:100F50004EF6F3100440B088318908437189084384
:100F60000443AC81AC8A4FF6FF400440B08904438F
:100F7000AC8201A8FFF7A4FC1F48874202D1DDF82C
:100F800010A001E0DDF80CA0A88900F4004040B1F9
:100F90000AEBCA0000EB0A1031684900B0FBF1F817
:100FA00007E00AEBCA0000EB0A1031688900B0FBC9
:100FB000F1F86420B8FBF0F004012009642101FB82
:100FC0001089A88900F4004040B1322000EBC9002C
:100FD000B0FBF1F000F00700044308E0322000EB22
:100FE00009106421B0FBF1F000F00F0004432C81E4
:100FF00006B0BDE8F087000000380140014688884F
:10100000C0F308007047C1F308028280704700BF38
:10101000FEE7000041F6BC300749096842429142B0
:1010200002DA4142044A116003490968814201DD44
:1010300001490860704700003C000020014600BFE5
:101040007047000010B56FF00400FFF723FD0A4859
:1010500000680A49B0FBF1F00949087008460078B9
:1010600000EB4001C1EBC0104FF6FF7101EAC00078
:101070000449088010BD00000000002000127A0022
:1010800014000020160000200146114A12884A432D
:101090004FF0E0235A6100229A611A46126942F029
:1010A00001021A6100BF4FF0E022106900F0010256
:1010B0001AB100F48032002AF5D04FF0E022126914
:1010C00022F001024FF0E0231A6100229A6170477A
:1010D000160000200EB501210846FFF7E1FB0021B4
:1010E0000120FFF749FA0120019000208DF8080047
:1010F0000C208DF8090001208DF80A0001A8FFF7E7
:10110000F1F901210846FFF737FA0220019000208B
:101110008DF808000C208DF8090001208DF80A00D8
:1011200001A8FFF7DFF905210020FFF725FA2020AD
:10113000019000208DF808000C208DF80900012096
:101140008DF80A0001A8FFF7CDF906210020FFF76E
:1011500013FA4020019000208DF808000C208DF833
:10116000090001208DF80A0001A8FFF7BBF907214B
:101170000020FFF701FA8020019000208DF8080080
:101180000C208DF8090001208DF80A0001A8FFF756
:10119000A9F90A210120FFF7EFF94FF480600190CF
:1011A00000208DF808000C208DF8090001208DF832
:1011B0000A0001A8FFF796F90B210120FFF7DCF9DF
:1011C0004FF40060019000208DF808000C208DF88D
:1011D000090001208DF80A0001A8FFF783F90C210E
:1011E0000020FFF7C9F94FF48050019000208DF8DE
:1011F00008000C208DF8090001208DF80A0001A8D4
:10120000FFF770F90D210120FFF7B6F94FF40050F8
:10121000019000208DF808000C208DF809000120B5
:101220008DF80A0001A8FFF75DF90E210120FFF7F4
:10123000A3F94FF48040019000208DF808000C20A5
:101240008DF8090001208DF80A0001A8FFF74AF97E
:1012500008210120FFF790F94FF4807001900020E1
:101260008DF808000C208DF8090001208DF80A0087
:1012700001A8FFF737F909210120FFF77DF94FF4A5
:101280000070019000208DF808000C208DF80900F6
:1012900001208DF80A0001A8FFF724F9032100209E
:1012A000FFF76AF90820019000208DF808000C2053
:1012B0008DF8090001208DF80A0001A8FFF712F946
:1012C00004210120FFF758F91020019000208DF82B
:1012D00008000C208DF8090001208DF80A0001A8F3
:1012E000FFF700F906208DF8000002208DF80100BC
:1012F00001208DF802008DF803006846FFF740FAE0
:1013000007208DF8000002208DF8010001208DF8E3
:1013100002008DF803006846FFF732FA09208DF8C5
:10132000000002208DF8010001208DF802008DF8E8
:1013300003006846FFF724FA0A208DF80000022017
:101340008DF8010001208DF802008DF80300684639
:10135000FFF716FA17208DF8000002208DF8010023
:1013600001208DF802008DF803006846FFF708FAA7
:1013700028208DF8000002208DF8010000208DF853
:10138000020001208DF803006846FFF7F9F90EBD51
:101390004FF4A060FFF72CFAFFF754FE4FF41650FD
:1013A00000F076F8002141F61F40FFF7B9FB41F647
:1013B0001F41632000F042F8FFF78CFE00F008F8B0
:1013C00003E002480068FFF71DFAFAE73800002042
:1013D00008B501211C20FFF763FA4FF48750ADF8E0
:1013E000000004208DF8030069461148FFF7E4F877
:1013F00042F6DB70ADF8000004208DF8030069466A
:101400000C48FFF7D9F84FF40050ADF80000102059
:101410008DF8030003208DF8020069460648FFF7A7
:10142000CBF84FF400510448FFF75AF908BD00000B
:1014300000080140000C0140001001407FB5054646
:101440000C4601210846FFF71BFA0020ADF80A0000
:10145000ADF80600ADF80850ADF8044001A94FF012
:101460008040FFF761FC1C208DF8000001208DF802
:10147000030000208DF8010001208DF8020068466D
:10148000FFF77EF9012211469007FFF7ECFB7FBDC5
:1014900010B586B00446012144F20400FFF700FABB
:1014A0004FF40070ADF8140003208DF816001820DA
:1014B0008DF8170005A91C48FFF77EF84FF48060EF
:1014C000ADF8140004208DF8170005A91648FFF7A1
:1014D00073F825208DF8000003208DF801008DF8A9
:1014E000020001208DF803006846FFF749F90194D6
:1014F0000020ADF80800ADF80A00ADF80C00ADF81A
:1015000010000C20ADF80E0001A90848FFF70AFDF5
:10151000012240F225510548FFF7DFFC0121034875
:10152000FFF798FC06B010BD0008014000380140EC
:1015300090EA010F48BF81F0004100F16C81421A2E
:101540003CBF801A89184FEAD0524FF07F4C1CEAFA
:10155000410FA2EBD15318BF9CEA026F00F03B8011
:101560004FF0004C4CEA00204CEA012121FA03FC28
:1015700010EB0C0C1ED202F1FF325FEA1C2040EB94
:10158000C25038BF70471CF07F0F4FEA400C18BFA5
:10159000BCF17F4F38BF7047C3F12003994008BFAB
:1015A00020F00100BCF17F4F38BF7047A0F1C04070
:1015B00000F01BB94FEA3C00000A40EBC25028BFC4
:1015C0001CF0FF0F4FEA400CE6D018BFBCF17F4F74
:1015D00038BF7047EAE79CEA026F05D010EA5C0F5B
:1015E00008BF00F00040704710B500F0B8F800BF29
:1015F00064FBBE3E41000B0ED3F19E0208D950F4AD
:1016000000034FEA032323FA02F048BF4042704729
:1016100010B500F0A4F800BF499224800020704764
:101620006FF0004282EA20007047000010F0004195
:1016300048BF4042B0FA80F310FA03F2C3F19D03B1
:101640000BD051EAC35101EB1220530638BF70474B
:1016500000F1010008BF20F0010070474FF47F0C3B
:101660001CEAD0121EBF1CEAD11392EA0C0F93EAB7
:101670000C0F00F0478090EA010F48BF42F48072DF
:101680004FF0004C4CEA00204CEA012102EB03022F
:10169000A0FB0113A2F50002002918BF43F00103CB
:1016A0005B0028BF4FEA330342EB22425FEA132C70
:1016B0004CEBC2502EBFBCEB436FB2F57C0F7047B2
:1016C0004FEA036CBCF1004F08BF20F00100B2F5F7
:1016D0007C0F38BF70470BD582F0FF0212F5803FB8
:1016E000C8BF704700F1C040D8BF00F0004070474D
:1016F00000F5000C5FEA4C0C48BF7047B0F1C040E9
:1017000000F073B890EA010F0CEAD11348BF42F41D
:101710008072624538BF634504D280EA010000F060
:101720000040704710B500F01AF800BF8900013E74
:1017300000F007B800F009B85FEA410C5FEA1C6CE2
:1017400008D080EA010000F050B85FEA400C5FEA80
:101750001C6CF6D14FF00040A0F5800070470EF1F0
:10176000020E2EF0030E5EF8044B244204D44FEA1E
:101770004102B2F17F4F11D84FEA4003B3F17F4FDE
:101780000CD80ED14FEAD07CB2F17F4F0CEB4C0C51
:101790000CF1020C08BF4CEBD17C04E04FF0080CBC
:1017A00001E04FEAD17C0CEB4C0324FA03F404F083
:1017B0000704B4F1040C06D20EEB840CBDE8104013
:1017C0004CF0010C6047DFE80CF0070802024FF014
:1017D0000040A0F5800010BD0846420018BFD2F1BD
:1017E000807288BF00F0004010BDFF2141EAD05058
:1017F000C005704780F0004090EA010F7FF59FAE72
:1018000081F0004100F007B890EA010F48BF81F075
:1018100000413FF594AE421A04D882F00042A0EB9A
:10182000020011444FEAD0524FF07F4C1CEA410FA6
:10183000A2EBD15318BF9CEA026F4AD04FF0004C84
:101840004CEA00204CEA012121FA03FCB0EB0C0C1D
:101850000FD412F0FE0F36D05FEA4C001DD50012F7
:1018600040EBC25038BF70471CF03F0F18BF7047A5
:101870000BE0A2F101025FEA1C2040EBC25038BF2E
:1018800070471CF07F0F18BF7047C3F120039940C9
:1018900014BF401E20F00100704780084FEA122359
:1018A00008BF7047B0FA80FCA2EB0C02CCF1280C08
:1018B00060FA0CF093EA122F04BF00EBC25070479D
:1018C0004FEAC3707047130A5FEADC1008BF704725
:1018D000F6E79CEA026F04D010EA5C0F08BF002014
:1018E000704710B5FFF73BFF40DFF63E81F0004048
:1018F0007047000014190008000000204C00000090
:1019000028010008601900084C0000202C07000086
:101910004401000800A24A0400000000000000008A
:10192000010203040607080900000000000000008F
:101930000000000000000102030401020304060786
:1019400008090204060800000F0000000000000063
:101950000000000000000000000000000000000087
:04000005080000ED02
:00000001FF
